{
  "_format": "hh-sol-artifact-1",
  "contractName": "PeerReview",
  "sourceName": "contracts/PeerReview.sol",
  "abi": [
    {
      "inputs": [
        {
          "internalType": "uint64",
          "name": "schemaId",
          "type": "uint64"
        }
      ],
      "stateMutability": "nonpayable",
      "type": "constructor"
    },
    {
      "inputs": [],
      "name": "AccessControlBadConfirmation",
      "type": "error"
    },
    {
      "inputs": [
        {
          "internalType": "address",
          "name": "account",
          "type": "address"
        },
        {
          "internalType": "bytes32",
          "name": "neededRole",
          "type": "bytes32"
        }
      ],
      "name": "AccessControlUnauthorizedAccount",
      "type": "error"
    },
    {
      "anonymous": false,
      "inputs": [
        {
          "indexed": true,
          "internalType": "bytes32",
          "name": "role",
          "type": "bytes32"
        },
        {
          "indexed": true,
          "internalType": "bytes32",
          "name": "previousAdminRole",
          "type": "bytes32"
        },
        {
          "indexed": true,
          "internalType": "bytes32",
          "name": "newAdminRole",
          "type": "bytes32"
        }
      ],
      "name": "RoleAdminChanged",
      "type": "event"
    },
    {
      "anonymous": false,
      "inputs": [
        {
          "indexed": true,
          "internalType": "bytes32",
          "name": "role",
          "type": "bytes32"
        },
        {
          "indexed": true,
          "internalType": "address",
          "name": "account",
          "type": "address"
        },
        {
          "indexed": true,
          "internalType": "address",
          "name": "sender",
          "type": "address"
        }
      ],
      "name": "RoleGranted",
      "type": "event"
    },
    {
      "anonymous": false,
      "inputs": [
        {
          "indexed": true,
          "internalType": "bytes32",
          "name": "role",
          "type": "bytes32"
        },
        {
          "indexed": true,
          "internalType": "address",
          "name": "account",
          "type": "address"
        },
        {
          "indexed": true,
          "internalType": "address",
          "name": "sender",
          "type": "address"
        }
      ],
      "name": "RoleRevoked",
      "type": "event"
    },
    {
      "anonymous": false,
      "inputs": [
        {
          "indexed": false,
          "internalType": "address",
          "name": "user",
          "type": "address"
        },
        {
          "indexed": false,
          "internalType": "uint256",
          "name": "projectId",
          "type": "uint256"
        },
        {
          "indexed": false,
          "internalType": "uint256",
          "name": "amount",
          "type": "uint256"
        }
      ],
      "name": "completeProjectEvent",
      "type": "event"
    },
    {
      "anonymous": false,
      "inputs": [
        {
          "indexed": false,
          "internalType": "address",
          "name": "user",
          "type": "address"
        },
        {
          "indexed": false,
          "internalType": "uint256",
          "name": "projectId",
          "type": "uint256"
        },
        {
          "indexed": false,
          "internalType": "address[]",
          "name": "evaluators",
          "type": "address[]"
        }
      ],
      "name": "createEvaluatorOfEvent",
      "type": "event"
    },
    {
      "anonymous": false,
      "inputs": [
        {
          "indexed": false,
          "internalType": "string",
          "name": "username",
          "type": "string"
        },
        {
          "indexed": false,
          "internalType": "uint256",
          "name": "points",
          "type": "uint256"
        },
        {
          "indexed": false,
          "internalType": "uint256",
          "name": "currentProject",
          "type": "uint256"
        },
        {
          "indexed": false,
          "internalType": "uint256[]",
          "name": "completedProjects",
          "type": "uint256[]"
        },
        {
          "indexed": false,
          "internalType": "bool",
          "name": "created",
          "type": "bool"
        }
      ],
      "name": "createUserEvent",
      "type": "event"
    },
    {
      "anonymous": false,
      "inputs": [
        {
          "indexed": false,
          "internalType": "address",
          "name": "userAddress",
          "type": "address"
        },
        {
          "indexed": false,
          "internalType": "uint256",
          "name": "projectId",
          "type": "uint256"
        }
      ],
      "name": "failProjectEvent",
      "type": "event"
    },
    {
      "anonymous": false,
      "inputs": [
        {
          "indexed": false,
          "internalType": "address",
          "name": "evaluatee",
          "type": "address"
        },
        {
          "indexed": false,
          "internalType": "uint256",
          "name": "projectId",
          "type": "uint256"
        },
        {
          "indexed": false,
          "internalType": "uint256",
          "name": "score",
          "type": "uint256"
        },
        {
          "indexed": false,
          "internalType": "string",
          "name": "evaluationFeedback",
          "type": "string"
        }
      ],
      "name": "submitAttestationEvent",
      "type": "event"
    },
    {
      "inputs": [],
      "name": "ADMIN_ROLE",
      "outputs": [
        {
          "internalType": "bytes32",
          "name": "",
          "type": "bytes32"
        }
      ],
      "stateMutability": "view",
      "type": "function"
    },
    {
      "inputs": [],
      "name": "DEFAULT_ADMIN_ROLE",
      "outputs": [
        {
          "internalType": "bytes32",
          "name": "",
          "type": "bytes32"
        }
      ],
      "stateMutability": "view",
      "type": "function"
    },
    {
      "inputs": [],
      "name": "EVALUATEE_ROLE",
      "outputs": [
        {
          "internalType": "bytes32",
          "name": "",
          "type": "bytes32"
        }
      ],
      "stateMutability": "view",
      "type": "function"
    },
    {
      "inputs": [],
      "name": "EVALUATOR_ROLE",
      "outputs": [
        {
          "internalType": "bytes32",
          "name": "",
          "type": "bytes32"
        }
      ],
      "stateMutability": "view",
      "type": "function"
    },
    {
      "inputs": [],
      "name": "OWNER_ROLE",
      "outputs": [
        {
          "internalType": "bytes32",
          "name": "",
          "type": "bytes32"
        }
      ],
      "stateMutability": "view",
      "type": "function"
    },
    {
      "inputs": [
        {
          "internalType": "address",
          "name": "userAddress",
          "type": "address"
        },
        {
          "internalType": "uint256",
          "name": "amount",
          "type": "uint256"
        }
      ],
      "name": "addUserPoints",
      "outputs": [],
      "stateMutability": "nonpayable",
      "type": "function"
    },
    {
      "inputs": [
        {
          "internalType": "address",
          "name": "userAddress",
          "type": "address"
        },
        {
          "internalType": "uint256",
          "name": "projectId",
          "type": "uint256"
        },
        {
          "internalType": "uint256",
          "name": "amount",
          "type": "uint256"
        },
        {
          "internalType": "bool",
          "name": "pass",
          "type": "bool"
        }
      ],
      "name": "completeProject",
      "outputs": [],
      "stateMutability": "nonpayable",
      "type": "function"
    },
    {
      "inputs": [
        {
          "internalType": "string",
          "name": "username",
          "type": "string"
        }
      ],
      "name": "createUser",
      "outputs": [],
      "stateMutability": "nonpayable",
      "type": "function"
    },
    {
      "inputs": [
        {
          "internalType": "address",
          "name": "",
          "type": "address"
        },
        {
          "internalType": "uint256",
          "name": "",
          "type": "uint256"
        }
      ],
      "name": "evaluatorOf",
      "outputs": [
        {
          "internalType": "address",
          "name": "",
          "type": "address"
        }
      ],
      "stateMutability": "view",
      "type": "function"
    },
    {
      "inputs": [
        {
          "internalType": "bytes32",
          "name": "role",
          "type": "bytes32"
        }
      ],
      "name": "getRoleAdmin",
      "outputs": [
        {
          "internalType": "bytes32",
          "name": "",
          "type": "bytes32"
        }
      ],
      "stateMutability": "view",
      "type": "function"
    },
    {
      "inputs": [
        {
          "internalType": "bytes32",
          "name": "role",
          "type": "bytes32"
        },
        {
          "internalType": "address",
          "name": "account",
          "type": "address"
        }
      ],
      "name": "grantRole",
      "outputs": [],
      "stateMutability": "nonpayable",
      "type": "function"
    },
    {
      "inputs": [
        {
          "internalType": "bytes32",
          "name": "role",
          "type": "bytes32"
        },
        {
          "internalType": "address",
          "name": "account",
          "type": "address"
        }
      ],
      "name": "hasRole",
      "outputs": [
        {
          "internalType": "bool",
          "name": "",
          "type": "bool"
        }
      ],
      "stateMutability": "view",
      "type": "function"
    },
    {
      "inputs": [
        {
          "internalType": "uint256",
          "name": "projectId",
          "type": "uint256"
        }
      ],
      "name": "matchmaking",
      "outputs": [],
      "stateMutability": "nonpayable",
      "type": "function"
    },
    {
      "inputs": [
        {
          "internalType": "bytes32",
          "name": "role",
          "type": "bytes32"
        },
        {
          "internalType": "address",
          "name": "callerConfirmation",
          "type": "address"
        }
      ],
      "name": "renounceRole",
      "outputs": [],
      "stateMutability": "nonpayable",
      "type": "function"
    },
    {
      "inputs": [
        {
          "internalType": "bytes32",
          "name": "role",
          "type": "bytes32"
        },
        {
          "internalType": "address",
          "name": "account",
          "type": "address"
        }
      ],
      "name": "revokeRole",
      "outputs": [],
      "stateMutability": "nonpayable",
      "type": "function"
    },
    {
      "inputs": [
        {
          "internalType": "address",
          "name": "account",
          "type": "address"
        }
      ],
      "name": "setAdmin",
      "outputs": [],
      "stateMutability": "nonpayable",
      "type": "function"
    },
    {
      "inputs": [
        {
          "internalType": "address",
          "name": "instance",
          "type": "address"
        }
      ],
      "name": "setSPInstance",
      "outputs": [],
      "stateMutability": "nonpayable",
      "type": "function"
    },
    {
      "inputs": [
        {
          "internalType": "uint64",
          "name": "schemaId_",
          "type": "uint64"
        }
      ],
      "name": "setSchemaID",
      "outputs": [],
      "stateMutability": "nonpayable",
      "type": "function"
    },
    {
      "inputs": [],
      "name": "spInstance",
      "outputs": [
        {
          "internalType": "contract ISP",
          "name": "",
          "type": "address"
        }
      ],
      "stateMutability": "view",
      "type": "function"
    },
    {
      "inputs": [
        {
          "components": [
            {
              "internalType": "uint256",
              "name": "projectId",
              "type": "uint256"
            },
            {
              "internalType": "uint256",
              "name": "score",
              "type": "uint256"
            },
            {
              "internalType": "address",
              "name": "evaluatee",
              "type": "address"
            },
            {
              "internalType": "string",
              "name": "evaluationFeedback",
              "type": "string"
            }
          ],
          "internalType": "struct PeerReview.Evaluations",
          "name": "evaluationData",
          "type": "tuple"
        }
      ],
      "name": "submitEvaluation",
      "outputs": [
        {
          "internalType": "uint256",
          "name": "",
          "type": "uint256"
        }
      ],
      "stateMutability": "nonpayable",
      "type": "function"
    },
    {
      "inputs": [
        {
          "internalType": "bytes4",
          "name": "interfaceId",
          "type": "bytes4"
        }
      ],
      "name": "supportsInterface",
      "outputs": [
        {
          "internalType": "bool",
          "name": "",
          "type": "bool"
        }
      ],
      "stateMutability": "view",
      "type": "function"
    },
    {
      "inputs": [
        {
          "internalType": "address",
          "name": "account",
          "type": "address"
        }
      ],
      "name": "transferOwnership",
      "outputs": [],
      "stateMutability": "nonpayable",
      "type": "function"
    },
    {
      "inputs": [
        {
          "internalType": "address",
          "name": "",
          "type": "address"
        }
      ],
      "name": "userProfiles",
      "outputs": [
        {
          "internalType": "string",
          "name": "username",
          "type": "string"
        },
        {
          "internalType": "uint256",
          "name": "points",
          "type": "uint256"
        },
        {
          "internalType": "uint256",
          "name": "currentProject",
          "type": "uint256"
        },
        {
          "internalType": "bool",
          "name": "created",
          "type": "bool"
        }
      ],
      "stateMutability": "view",
      "type": "function"
    }
  ],
  "bytecode": "0x608060405234801561001057600080fd5b5060405161376938038061376983398181016040528101906100329190610277565b80600360006101000a81548167ffffffffffffffff021916908367ffffffffffffffff16021790555061008b7f6270edb7c868f86fda4adedba75108201087268ea345934db8bad688e1feb91b336100c360201b60201c565b506100bc7fdf8b4c520ffe197c5343c6f5aec59570151ef9a492f2c624fd45ddde6135ec42336100c360201b60201c565b50506102a4565b60006100d583836101c060201b60201c565b6101b557600160008085815260200190815260200160002060000160008473ffffffffffffffffffffffffffffffffffffffff1673ffffffffffffffffffffffffffffffffffffffff16815260200190815260200160002060006101000a81548160ff02191690831515021790555061015261022a60201b60201c565b73ffffffffffffffffffffffffffffffffffffffff168273ffffffffffffffffffffffffffffffffffffffff16847f2f8788117e7eff1d82e926ec794901d17c78024a50270940304540a733656f0d60405160405180910390a4600190506101ba565b600090505b92915050565b600080600084815260200190815260200160002060000160008373ffffffffffffffffffffffffffffffffffffffff1673ffffffffffffffffffffffffffffffffffffffff16815260200190815260200160002060009054906101000a900460ff16905092915050565b600033905090565b600080fd5b600067ffffffffffffffff82169050919050565b61025481610237565b811461025f57600080fd5b50565b6000815190506102718161024b565b92915050565b60006020828403121561028d5761028c610232565b5b600061029b84828501610262565b91505092915050565b6134b6806102b36000396000f3fe608060405234801561001057600080fd5b506004361061014d5760003560e01c80635d06edb5116100c3578063a217fddf1161007c578063a217fddf146103af578063a89a57df146103cd578063a8c5dc33146103e9578063d547741f14610407578063e58378bb14610423578063f2fde38b146104415761014d565b80635d06edb5146102f1578063697ad3c01461030d578063704b6c021461032957806375b238fc146103455780638e9d660f1461036357806391d148541461037f5761014d565b80632f2ff15d116101155780632f2ff15d1461021c57806330d0ea3114610238578063332d56d71461025657806336568abe14610289578063507ffba5146102a557806357598268146102c15761014d565b806301ffc9a71461015257806305ca8ee3146101825780631163efb91461019e57806323ed747e146101bc578063248a9ca3146101ec575b600080fd5b61016c60048036038101906101679190611e20565b61045d565b6040516101799190611e68565b60405180910390f35b61019c60048036038101906101979190611ec3565b6104d7565b005b6101a6610538565b6040516101b39190611f09565b60405180910390f35b6101d660048036038101906101d19190611fb8565b61055c565b6040516101e39190612007565b60405180910390f35b6102066004803603810190610201919061204e565b6105aa565b6040516102139190611f09565b60405180910390f35b6102366004803603810190610231919061207b565b6105c9565b005b6102406105eb565b60405161024d9190611f09565b60405180910390f35b610270600480360381019061026b91906120bb565b61060e565b6040516102809493929190612187565b60405180910390f35b6102a3600480360381019061029e919061207b565b6106d3565b005b6102bf60048036038101906102ba9190612308565b61074e565b005b6102db60048036038101906102d691906123ef565b61098f565b6040516102e89190612438565b60405180910390f35b61030b6004803603810190610306919061247f565b610cbe565b005b61032760048036038101906103229190611fb8565b610fb3565b005b610343600480360381019061033e91906120bb565b6110db565b005b61034d61113d565b60405161035a9190611f09565b60405180910390f35b61037d600480360381019061037891906120bb565b611161565b005b6103996004803603810190610394919061207b565b6111da565b6040516103a69190611e68565b60405180910390f35b6103b7611244565b6040516103c49190611f09565b60405180910390f35b6103e760048036038101906103e291906124e6565b61124b565b005b6103f161183e565b6040516103fe9190612572565b60405180910390f35b610421600480360381019061041c919061207b565b611864565b005b61042b611886565b6040516104389190611f09565b60405180910390f35b61045b600480360381019061045691906120bb565b6118aa565b005b60007f7965db0b000000000000000000000000000000000000000000000000000000007bffffffffffffffffffffffffffffffffffffffffffffffffffffffff1916827bffffffffffffffffffffffffffffffffffffffffffffffffffffffff191614806104d057506104cf82611936565b5b9050919050565b7f6270edb7c868f86fda4adedba75108201087268ea345934db8bad688e1feb91b61050281336111da565b61050b57600080fd5b81600360006101000a81548167ffffffffffffffff021916908367ffffffffffffffff1602179055505050565b7ff322defc376bba64d27c59f0dffa3645eb556d2707692077ad37e9255bed73bb81565b6005602052816000526040600020818154811061057857600080fd5b906000526020600020016000915091509054906101000a900473ffffffffffffffffffffffffffffffffffffffff1681565b6000806000838152602001908152602001600020600101549050919050565b6105d2826105aa565b6105db816119a0565b6105e583836119b4565b50505050565b7e4f13fa3e85221cae6e297e754a8ab58b2ac55382b0b17ca3d53370d4f5633581565b6004602052806000526040600020600091509050806000018054610631906125bc565b80601f016020809104026020016040519081016040528092919081815260200182805461065d906125bc565b80156106aa5780601f1061067f576101008083540402835291602001916106aa565b820191906000526020600020905b81548152906001019060200180831161068d57829003601f168201915b5050505050908060010154908060020154908060040160009054906101000a900460ff16905084565b6106db611aa5565b73ffffffffffffffffffffffffffffffffffffffff168173ffffffffffffffffffffffffffffffffffffffff161461073f576040517f6697b23200000000000000000000000000000000000000000000000000000000815260040160405180910390fd5b6107498282611aad565b505050565b60001515600460003373ffffffffffffffffffffffffffffffffffffffff1673ffffffffffffffffffffffffffffffffffffffff16815260200190815260200160002060040160009054906101000a900460ff161515146107e4576040517f08c379a00000000000000000000000000000000000000000000000000000000081526004016107db90612639565b60405180910390fd5b6040518060a001604052808281526020016000815260200160008152602001600067ffffffffffffffff81111561081e5761081d6121dd565b5b60405190808252806020026020018201604052801561084c5781602001602082028036833780820191505090505b50815260200160011515815250600460003373ffffffffffffffffffffffffffffffffffffffff1673ffffffffffffffffffffffffffffffffffffffff16815260200190815260200160002060008201518160000190816108ad91906127fb565b50602082015181600101556040820151816002015560608201518160030190805190602001906108de929190611d29565b5060808201518160040160006101000a81548160ff0219169083151502179055509050507f1c0cc64807bda721d70698a9b11d2dbe4ce3858942ca90156ba19a68c31be89d81600080600067ffffffffffffffff811115610942576109416121dd565b5b6040519080825280602002602001820160405280156109705781602001602082028036833780820191505090505b5060016040516109849594939291906129c6565b60405180910390a150565b60007e4f13fa3e85221cae6e297e754a8ab58b2ac55382b0b17ca3d53370d4f563356109bb81336111da565b6109c457600080fd5b826040015173ffffffffffffffffffffffffffffffffffffffff163373ffffffffffffffffffffffffffffffffffffffff1614610a36576040517f08c379a0000000000000000000000000000000000000000000000000000000008152600401610a2d90612a99565b60405180910390fd5b6000836000015190506000600167ffffffffffffffff811115610a5c57610a5b6121dd565b5b604051908082528060200260200182016040528015610a8f57816020015b6060815260200190600190039081610a7a5790505b5090508460400151604051602001610aa79190612007565b60405160208183030381529060405281600081518110610aca57610ac9612ab9565b5b6020026020010181905250600085604051602001610ae89190612ba4565b60405160208183030381529060405290506000604051806101400160405280600360009054906101000a900467ffffffffffffffff1667ffffffffffffffff168152602001600067ffffffffffffffff168152602001600067ffffffffffffffff168152602001600067ffffffffffffffff1681526020013373ffffffffffffffffffffffffffffffffffffffff168152602001600067ffffffffffffffff16815260200160006003811115610ba157610ba0612bc6565b5b81526020016000151581526020018481526020018381525090506000600160009054906101000a900473ffffffffffffffffffffffffffffffffffffffff1673ffffffffffffffffffffffffffffffffffffffff1663b82916cb836040518263ffffffff1660e01b8152600401610c189190612ead565b6020604051808303816000875af1158015610c37573d6000803e3d6000fd5b505050506040513d601f19601f82011682018060405250810190610c5b9190612f1d565b67ffffffffffffffff1690507f305a9f260e4d3c1f2c538e3032a604da7425b5901d9c5d759f27dbedcf6783958860400151868a602001518b60600151604051610ca89493929190612f4a565b60405180910390a1809650505050505050919050565b7fdf8b4c520ffe197c5343c6f5aec59570151ef9a492f2c624fd45ddde6135ec42610ce981336111da565b610cf257600080fd5b60011515600460008773ffffffffffffffffffffffffffffffffffffffff1673ffffffffffffffffffffffffffffffffffffffff16815260200190815260200160002060040160009054906101000a900460ff16151514610d88576040517f08c379a0000000000000000000000000000000000000000000000000000000008152600401610d7f90612fe2565b60405180910390fd5b83600460008773ffffffffffffffffffffffffffffffffffffffff1673ffffffffffffffffffffffffffffffffffffffff1681526020019081526020016000206002015414610e0c576040517f08c379a0000000000000000000000000000000000000000000000000000000008152600401610e0390613074565b60405180910390fd5b600082610e1a576000610e1c565b835b905080600460008873ffffffffffffffffffffffffffffffffffffffff1673ffffffffffffffffffffffffffffffffffffffff1681526020019081526020016000206001016000828254610e7091906130c3565b925050819055506000600460008873ffffffffffffffffffffffffffffffffffffffff1673ffffffffffffffffffffffffffffffffffffffff168152602001908152602001600020600201819055506000811115610f7157600460008773ffffffffffffffffffffffffffffffffffffffff1673ffffffffffffffffffffffffffffffffffffffff1681526020019081526020016000206003018590806001815401808255809150506001900390600052602060002001600090919091909150557fab0cba6e6f4f659868746ec49ac3a984770e64f2da708d53203e4630e17daf8a868686604051610f64939291906130f7565b60405180910390a1610fab565b7fa4d3f59fce00e6b46e27bdc2a6fe2341a5ed7a9fb4d755467194525263112b988686604051610fa292919061312e565b60405180910390a15b505050505050565b7fdf8b4c520ffe197c5343c6f5aec59570151ef9a492f2c624fd45ddde6135ec42610fde81336111da565b610fe757600080fd5b60011515600460008573ffffffffffffffffffffffffffffffffffffffff1673ffffffffffffffffffffffffffffffffffffffff16815260200190815260200160002060040160009054906101000a900460ff1615151461107d576040517f08c379a000000000000000000000000000000000000000000000000000000000815260040161107490612fe2565b60405180910390fd5b81600460008573ffffffffffffffffffffffffffffffffffffffff1673ffffffffffffffffffffffffffffffffffffffff16815260200190815260200160002060010160008282546110cf91906130c3565b92505081905550505050565b7f6270edb7c868f86fda4adedba75108201087268ea345934db8bad688e1feb91b61110681336111da565b61110f57600080fd5b6111397fdf8b4c520ffe197c5343c6f5aec59570151ef9a492f2c624fd45ddde6135ec42836105c9565b5050565b7fdf8b4c520ffe197c5343c6f5aec59570151ef9a492f2c624fd45ddde6135ec4281565b7f6270edb7c868f86fda4adedba75108201087268ea345934db8bad688e1feb91b61118c81336111da565b61119557600080fd5b81600160006101000a81548173ffffffffffffffffffffffffffffffffffffffff021916908373ffffffffffffffffffffffffffffffffffffffff1602179055505050565b600080600084815260200190815260200160002060000160008373ffffffffffffffffffffffffffffffffffffffff1673ffffffffffffffffffffffffffffffffffffffff16815260200190815260200160002060009054906101000a900460ff16905092915050565b6000801b81565b60005b600280549050811015611659573373ffffffffffffffffffffffffffffffffffffffff166002828154811061128657611285612ab9565b5b9060005260206000200160009054906101000a900473ffffffffffffffffffffffffffffffffffffffff1673ffffffffffffffffffffffffffffffffffffffff161461164c57600060046000600284815481106112e6576112e5612ab9565b5b9060005260206000200160009054906101000a900473ffffffffffffffffffffffffffffffffffffffff1673ffffffffffffffffffffffffffffffffffffffff1673ffffffffffffffffffffffffffffffffffffffff16815260200190815260200160002060010154905060006064600a600460003373ffffffffffffffffffffffffffffffffffffffff1673ffffffffffffffffffffffffffffffffffffffff168152602001908152602001600020600101546113a49190613157565b6113ae91906131c8565b905080600460003373ffffffffffffffffffffffffffffffffffffffff1673ffffffffffffffffffffffffffffffffffffffff168152602001908152602001600020600101546113fe91906130c3565b8211156114ab5760066002848154811061141b5761141a612ab9565b5b9060005260206000200160009054906101000a900473ffffffffffffffffffffffffffffffffffffffff169080600181540180825580915050600190039060005260206000200160009091909190916101000a81548173ffffffffffffffffffffffffffffffffffffffff021916908373ffffffffffffffffffffffffffffffffffffffff160217905550611649565b80600460003373ffffffffffffffffffffffffffffffffffffffff1673ffffffffffffffffffffffffffffffffffffffff168152602001908152602001600020600101546114f991906131f9565b8210156115a65760086002848154811061151657611515612ab9565b5b9060005260206000200160009054906101000a900473ffffffffffffffffffffffffffffffffffffffff169080600181540180825580915050600190039060005260206000200160009091909190916101000a81548173ffffffffffffffffffffffffffffffffffffffff021916908373ffffffffffffffffffffffffffffffffffffffff160217905550611648565b6007600284815481106115bc576115bb612ab9565b5b9060005260206000200160009054906101000a900473ffffffffffffffffffffffffffffffffffffffff169080600181540180825580915050600190039060005260206000200160009091909190916101000a81548173ffffffffffffffffffffffffffffffffffffffff021916908373ffffffffffffffffffffffffffffffffffffffff1602179055505b5b50505b808060010191505061124e565b50600060068054905011156116c4576000611678600680549050611b9f565b90506116c26006828154811061169157611690612ab9565b5b9060005260206000200160009054906101000a900473ffffffffffffffffffffffffffffffffffffffff1633611be1565b505b6000600780549050111561172e5760006116e2600780549050611b9f565b905061172c600782815481106116fb576116fa612ab9565b5b9060005260206000200160009054906101000a900473ffffffffffffffffffffffffffffffffffffffff1633611be1565b505b6000600880549050111561179857600061174c600880549050611b9f565b90506117966008828154811061176557611764612ab9565b5b9060005260206000200160009054906101000a900473ffffffffffffffffffffffffffffffffffffffff1633611be1565b505b600660006117a69190611d76565b600760006117b49190611d76565b600860006117c29190611d76565b7f678658d9f1fe0c70d4af48cd4f90bedffba7c52b6c30d6510050749b1d6bc43e3382600560003373ffffffffffffffffffffffffffffffffffffffff1673ffffffffffffffffffffffffffffffffffffffff16815260200190815260200160002060405161183393929190613342565b60405180910390a150565b600160009054906101000a900473ffffffffffffffffffffffffffffffffffffffff1681565b61186d826105aa565b611876816119a0565b6118808383611aad565b50505050565b7f6270edb7c868f86fda4adedba75108201087268ea345934db8bad688e1feb91b81565b7f6270edb7c868f86fda4adedba75108201087268ea345934db8bad688e1feb91b6118d581336111da565b6118de57600080fd5b6119087f6270edb7c868f86fda4adedba75108201087268ea345934db8bad688e1feb91b836105c9565b6119327f6270edb7c868f86fda4adedba75108201087268ea345934db8bad688e1feb91b33611864565b5050565b60007f01ffc9a7000000000000000000000000000000000000000000000000000000007bffffffffffffffffffffffffffffffffffffffffffffffffffffffff1916827bffffffffffffffffffffffffffffffffffffffffffffffffffffffff1916149050919050565b6119b1816119ac611aa5565b611cd8565b50565b60006119c083836111da565b611a9a57600160008085815260200190815260200160002060000160008473ffffffffffffffffffffffffffffffffffffffff1673ffffffffffffffffffffffffffffffffffffffff16815260200190815260200160002060006101000a81548160ff021916908315150217905550611a37611aa5565b73ffffffffffffffffffffffffffffffffffffffff168273ffffffffffffffffffffffffffffffffffffffff16847f2f8788117e7eff1d82e926ec794901d17c78024a50270940304540a733656f0d60405160405180910390a460019050611a9f565b600090505b92915050565b600033905090565b6000611ab983836111da565b15611b9457600080600085815260200190815260200160002060000160008473ffffffffffffffffffffffffffffffffffffffff1673ffffffffffffffffffffffffffffffffffffffff16815260200190815260200160002060006101000a81548160ff021916908315150217905550611b31611aa5565b73ffffffffffffffffffffffffffffffffffffffff168273ffffffffffffffffffffffffffffffffffffffff16847ff6391f5c32d9c69d2a47ea670b442974b53935d1edc7fd64eb21e047a839171b60405160405180910390a460019050611b99565b600090505b92915050565b600081424433604051602001611bb7939291906133e9565b6040516020818303038152906040528051906020012060001c611bda9190613426565b9050919050565b611c0a7e4f13fa3e85221cae6e297e754a8ab58b2ac55382b0b17ca3d53370d4f56335836105c9565b611c347ff322defc376bba64d27c59f0dffa3645eb556d2707692077ad37e9255bed73bb826105c9565b600560008273ffffffffffffffffffffffffffffffffffffffff1673ffffffffffffffffffffffffffffffffffffffff168152602001908152602001600020829080600181540180825580915050600190039060005260206000200160009091909190916101000a81548173ffffffffffffffffffffffffffffffffffffffff021916908373ffffffffffffffffffffffffffffffffffffffff1602179055505050565b611ce282826111da565b611d255780826040517fe2517d3f000000000000000000000000000000000000000000000000000000008152600401611d1c929190613457565b60405180910390fd5b5050565b828054828255906000526020600020908101928215611d65579160200282015b82811115611d64578251825591602001919060010190611d49565b5b509050611d729190611d97565b5090565b5080546000825590600052602060002090810190611d949190611d97565b50565b5b80821115611db0576000816000905550600101611d98565b5090565b6000604051905090565b600080fd5b600080fd5b60007fffffffff0000000000000000000000000000000000000000000000000000000082169050919050565b611dfd81611dc8565b8114611e0857600080fd5b50565b600081359050611e1a81611df4565b92915050565b600060208284031215611e3657611e35611dbe565b5b6000611e4484828501611e0b565b91505092915050565b60008115159050919050565b611e6281611e4d565b82525050565b6000602082019050611e7d6000830184611e59565b92915050565b600067ffffffffffffffff82169050919050565b611ea081611e83565b8114611eab57600080fd5b50565b600081359050611ebd81611e97565b92915050565b600060208284031215611ed957611ed8611dbe565b5b6000611ee784828501611eae565b91505092915050565b6000819050919050565b611f0381611ef0565b82525050565b6000602082019050611f1e6000830184611efa565b92915050565b600073ffffffffffffffffffffffffffffffffffffffff82169050919050565b6000611f4f82611f24565b9050919050565b611f5f81611f44565b8114611f6a57600080fd5b50565b600081359050611f7c81611f56565b92915050565b6000819050919050565b611f9581611f82565b8114611fa057600080fd5b50565b600081359050611fb281611f8c565b92915050565b60008060408385031215611fcf57611fce611dbe565b5b6000611fdd85828601611f6d565b9250506020611fee85828601611fa3565b9150509250929050565b61200181611f44565b82525050565b600060208201905061201c6000830184611ff8565b92915050565b61202b81611ef0565b811461203657600080fd5b50565b60008135905061204881612022565b92915050565b60006020828403121561206457612063611dbe565b5b600061207284828501612039565b91505092915050565b6000806040838503121561209257612091611dbe565b5b60006120a085828601612039565b92505060206120b185828601611f6d565b9150509250929050565b6000602082840312156120d1576120d0611dbe565b5b60006120df84828501611f6d565b91505092915050565b600081519050919050565b600082825260208201905092915050565b60005b83811015612122578082015181840152602081019050612107565b60008484015250505050565b6000601f19601f8301169050919050565b600061214a826120e8565b61215481856120f3565b9350612164818560208601612104565b61216d8161212e565b840191505092915050565b61218181611f82565b82525050565b600060808201905081810360008301526121a1818761213f565b90506121b06020830186612178565b6121bd6040830185612178565b6121ca6060830184611e59565b95945050505050565b600080fd5b600080fd5b7f4e487b7100000000000000000000000000000000000000000000000000000000600052604160045260246000fd5b6122158261212e565b810181811067ffffffffffffffff82111715612234576122336121dd565b5b80604052505050565b6000612247611db4565b9050612253828261220c565b919050565b600067ffffffffffffffff821115612273576122726121dd565b5b61227c8261212e565b9050602081019050919050565b82818337600083830152505050565b60006122ab6122a684612258565b61223d565b9050828152602081018484840111156122c7576122c66121d8565b5b6122d2848285612289565b509392505050565b600082601f8301126122ef576122ee6121d3565b5b81356122ff848260208601612298565b91505092915050565b60006020828403121561231e5761231d611dbe565b5b600082013567ffffffffffffffff81111561233c5761233b611dc3565b5b612348848285016122da565b91505092915050565b600080fd5b600080fd5b60006080828403121561237157612370612351565b5b61237b608061223d565b9050600061238b84828501611fa3565b600083015250602061239f84828501611fa3565b60208301525060406123b384828501611f6d565b604083015250606082013567ffffffffffffffff8111156123d7576123d6612356565b5b6123e3848285016122da565b60608301525092915050565b60006020828403121561240557612404611dbe565b5b600082013567ffffffffffffffff81111561242357612422611dc3565b5b61242f8482850161235b565b91505092915050565b600060208201905061244d6000830184612178565b92915050565b61245c81611e4d565b811461246757600080fd5b50565b60008135905061247981612453565b92915050565b6000806000806080858703121561249957612498611dbe565b5b60006124a787828801611f6d565b94505060206124b887828801611fa3565b93505060406124c987828801611fa3565b92505060606124da8782880161246a565b91505092959194509250565b6000602082840312156124fc576124fb611dbe565b5b600061250a84828501611fa3565b91505092915050565b6000819050919050565b600061253861253361252e84611f24565b612513565b611f24565b9050919050565b600061254a8261251d565b9050919050565b600061255c8261253f565b9050919050565b61256c81612551565b82525050565b60006020820190506125876000830184612563565b92915050565b7f4e487b7100000000000000000000000000000000000000000000000000000000600052602260045260246000fd5b600060028204905060018216806125d457607f821691505b6020821081036125e7576125e661258d565b5b50919050565b7f5573657220616c72656164792065786973747300000000000000000000000000600082015250565b60006126236013836120f3565b915061262e826125ed565b602082019050919050565b6000602082019050818103600083015261265281612616565b9050919050565b60008190508160005260206000209050919050565b60006020601f8301049050919050565b600082821b905092915050565b6000600883026126bb7fffffffffffffffffffffffffffffffffffffffffffffffffffffffffffffffff8261267e565b6126c5868361267e565b95508019841693508086168417925050509392505050565b60006126f86126f36126ee84611f82565b612513565b611f82565b9050919050565b6000819050919050565b612712836126dd565b61272661271e826126ff565b84845461268b565b825550505050565b600090565b61273b61272e565b612746818484612709565b505050565b5b8181101561276a5761275f600082612733565b60018101905061274c565b5050565b601f8211156127af5761278081612659565b6127898461266e565b81016020851015612798578190505b6127ac6127a48561266e565b83018261274b565b50505b505050565b600082821c905092915050565b60006127d2600019846008026127b4565b1980831691505092915050565b60006127eb83836127c1565b9150826002028217905092915050565b612804826120e8565b67ffffffffffffffff81111561281d5761281c6121dd565b5b61282782546125bc565b61283282828561276e565b600060209050601f8311600181146128655760008415612853578287015190505b61285d85826127df565b8655506128c5565b601f19841661287386612659565b60005b8281101561289b57848901518255600182019150602085019450602081019050612876565b868310156128b857848901516128b4601f8916826127c1565b8355505b6001600288020188555050505b505050505050565b6000819050919050565b60006128f26128ed6128e8846128cd565b612513565b611f82565b9050919050565b612902816128d7565b82525050565b600081519050919050565b600082825260208201905092915050565b6000819050602082019050919050565b61293d81611f82565b82525050565b600061294f8383612934565b60208301905092915050565b6000602082019050919050565b600061297382612908565b61297d8185612913565b935061298883612924565b8060005b838110156129b95781516129a08882612943565b97506129ab8361295b565b92505060018101905061298c565b5085935050505092915050565b600060a08201905081810360008301526129e0818861213f565b90506129ef60208301876128f9565b6129fc60408301866128f9565b8181036060830152612a0e8185612968565b9050612a1d6080830184611e59565b9695505050505050565b7f546869732075736572206e6f7420617574686f72697a656420746f206576616c60008201527f7561746520746865206576616c75617465652e00000000000000000000000000602082015250565b6000612a836033836120f3565b9150612a8e82612a27565b604082019050919050565b60006020820190508181036000830152612ab281612a76565b9050919050565b7f4e487b7100000000000000000000000000000000000000000000000000000000600052603260045260246000fd5b612af181611f44565b82525050565b600082825260208201905092915050565b6000612b13826120e8565b612b1d8185612af7565b9350612b2d818560208601612104565b612b368161212e565b840191505092915050565b6000608083016000830151612b596000860182612934565b506020830151612b6c6020860182612934565b506040830151612b7f6040860182612ae8565b5060608301518482036060860152612b978282612b08565b9150508091505092915050565b60006020820190508181036000830152612bbe8184612b41565b905092915050565b7f4e487b7100000000000000000000000000000000000000000000000000000000600052602160045260246000fd5b612bfe81611e83565b82525050565b60048110612c1557612c14612bc6565b5b50565b6000819050612c2682612c04565b919050565b6000612c3682612c18565b9050919050565b612c4681612c2b565b82525050565b612c5581611e4d565b82525050565b600081519050919050565b600082825260208201905092915050565b6000819050602082019050919050565b600081519050919050565b600082825260208201905092915050565b6000612cae82612c87565b612cb88185612c92565b9350612cc8818560208601612104565b612cd18161212e565b840191505092915050565b6000612ce88383612ca3565b905092915050565b6000602082019050919050565b6000612d0882612c5b565b612d128185612c66565b935083602082028501612d2485612c77565b8060005b85811015612d605784840389528151612d418582612cdc565b9450612d4c83612cf0565b925060208a01995050600181019050612d28565b50829750879550505050505092915050565b600061014083016000830151612d8b6000860182612bf5565b506020830151612d9e6020860182612bf5565b506040830151612db16040860182612bf5565b506060830151612dc46060860182612bf5565b506080830151612dd76080860182612ae8565b5060a0830151612dea60a0860182612bf5565b5060c0830151612dfd60c0860182612c3d565b5060e0830151612e1060e0860182612c4c565b50610100830151848203610100860152612e2a8282612cfd565b915050610120830151848203610120860152612e468282612ca3565b9150508091505092915050565b50565b6000612e636000836120f3565b9150612e6e82612e53565b600082019050919050565b600082825260208201905092915050565b6000612e97600083612e79565b9150612ea282612e53565b600082019050919050565b60006080820190508181036000830152612ec78184612d72565b90508181036020830152612eda81612e56565b90508181036040830152612eed81612e8a565b90508181036060830152612f0081612e8a565b905092915050565b600081519050612f1781611e97565b92915050565b600060208284031215612f3357612f32611dbe565b5b6000612f4184828501612f08565b91505092915050565b6000608082019050612f5f6000830187611ff8565b612f6c6020830186612178565b612f796040830185612178565b8181036060830152612f8b818461213f565b905095945050505050565b7f5573657220646f6573206e6f7420657869737473000000000000000000000000600082015250565b6000612fcc6014836120f3565b9150612fd782612f96565b602082019050919050565b60006020820190508181036000830152612ffb81612fbf565b9050919050565b7f50726f6a65637420686173206e6f74207374617274656420627920746869732060008201527f7573657200000000000000000000000000000000000000000000000000000000602082015250565b600061305e6024836120f3565b915061306982613002565b604082019050919050565b6000602082019050818103600083015261308d81613051565b9050919050565b7f4e487b7100000000000000000000000000000000000000000000000000000000600052601160045260246000fd5b60006130ce82611f82565b91506130d983611f82565b92508282019050808211156130f1576130f0613094565b5b92915050565b600060608201905061310c6000830186611ff8565b6131196020830185612178565b6131266040830184612178565b949350505050565b60006040820190506131436000830185611ff8565b6131506020830184612178565b9392505050565b600061316282611f82565b915061316d83611f82565b925082820261317b81611f82565b9150828204841483151761319257613191613094565b5b5092915050565b7f4e487b7100000000000000000000000000000000000000000000000000000000600052601260045260246000fd5b60006131d382611f82565b91506131de83611f82565b9250826131ee576131ed613199565b5b828204905092915050565b600061320482611f82565b915061320f83611f82565b925082820390508181111561322757613226613094565b5b92915050565b600081549050919050565b600082825260208201905092915050565b60008190508160005260206000209050919050565b600061326a8383612ae8565b60208301905092915050565b60008160001c9050919050565b600073ffffffffffffffffffffffffffffffffffffffff82169050919050565b60006132b66132b183613276565b613283565b9050919050565b60006132c982546132a3565b9050919050565b6000600182019050919050565b60006132e88261322d565b6132f28185613238565b93506132fd83613249565b8060005b8381101561333557613312826132bd565b61331c888261325e565b9750613327836132d0565b925050600181019050613301565b5085935050505092915050565b60006060820190506133576000830186611ff8565b6133646020830185612178565b818103604083015261337681846132dd565b9050949350505050565b6000819050919050565b61339b61339682611f82565b613380565b82525050565b60008160601b9050919050565b60006133b9826133a1565b9050919050565b60006133cb826133ae565b9050919050565b6133e36133de82611f44565b6133c0565b82525050565b60006133f5828661338a565b602082019150613405828561338a565b60208201915061341582846133d2565b601482019150819050949350505050565b600061343182611f82565b915061343c83611f82565b92508261344c5761344b613199565b5b828206905092915050565b600060408201905061346c6000830185611ff8565b6134796020830184611efa565b939250505056fea2646970667358221220b30ff1a46d3d5551d7ad70d5d115f9bfc7e856d5da66659bda5fc33d7190a80564736f6c634300081b0033",
  "linkReferences": {},
  "deployedLinkReferences": {}
}