{
  "_format": "hh-sol-artifact-1",
  "contractName": "PeerReview",
  "sourceName": "contracts/PeerReview.sol",
  "abi": [
    {
      "inputs": [
        {
          "internalType": "uint64",
          "name": "schemaId",
          "type": "uint64"
        }
      ],
      "stateMutability": "nonpayable",
      "type": "constructor"
    },
    {
      "inputs": [],
      "name": "AccessControlBadConfirmation",
      "type": "error"
    },
    {
      "inputs": [
        {
          "internalType": "address",
          "name": "account",
          "type": "address"
        },
        {
          "internalType": "bytes32",
          "name": "neededRole",
          "type": "bytes32"
        }
      ],
      "name": "AccessControlUnauthorizedAccount",
      "type": "error"
    },
    {
      "anonymous": false,
      "inputs": [
        {
          "indexed": true,
          "internalType": "bytes32",
          "name": "role",
          "type": "bytes32"
        },
        {
          "indexed": true,
          "internalType": "bytes32",
          "name": "previousAdminRole",
          "type": "bytes32"
        },
        {
          "indexed": true,
          "internalType": "bytes32",
          "name": "newAdminRole",
          "type": "bytes32"
        }
      ],
      "name": "RoleAdminChanged",
      "type": "event"
    },
    {
      "anonymous": false,
      "inputs": [
        {
          "indexed": true,
          "internalType": "bytes32",
          "name": "role",
          "type": "bytes32"
        },
        {
          "indexed": true,
          "internalType": "address",
          "name": "account",
          "type": "address"
        },
        {
          "indexed": true,
          "internalType": "address",
          "name": "sender",
          "type": "address"
        }
      ],
      "name": "RoleGranted",
      "type": "event"
    },
    {
      "anonymous": false,
      "inputs": [
        {
          "indexed": true,
          "internalType": "bytes32",
          "name": "role",
          "type": "bytes32"
        },
        {
          "indexed": true,
          "internalType": "address",
          "name": "account",
          "type": "address"
        },
        {
          "indexed": true,
          "internalType": "address",
          "name": "sender",
          "type": "address"
        }
      ],
      "name": "RoleRevoked",
      "type": "event"
    },
    {
      "anonymous": false,
      "inputs": [
        {
          "indexed": false,
          "internalType": "address",
          "name": "user",
          "type": "address"
        },
        {
          "indexed": false,
          "internalType": "uint256",
          "name": "projectId",
          "type": "uint256"
        },
        {
          "indexed": false,
          "internalType": "uint256",
          "name": "amount",
          "type": "uint256"
        }
      ],
      "name": "completeProjectEvent",
      "type": "event"
    },
    {
      "anonymous": false,
      "inputs": [
        {
          "indexed": false,
          "internalType": "address",
          "name": "user",
          "type": "address"
        },
        {
          "indexed": false,
          "internalType": "uint256",
          "name": "projectId",
          "type": "uint256"
        },
        {
          "indexed": false,
          "internalType": "address[]",
          "name": "evaluators",
          "type": "address[]"
        }
      ],
      "name": "createEvaluatorOfEvent",
      "type": "event"
    },
    {
      "anonymous": false,
      "inputs": [
        {
          "indexed": false,
          "internalType": "address",
          "name": "evaluatee",
          "type": "address"
        },
        {
          "indexed": false,
          "internalType": "uint256",
          "name": "projectId",
          "type": "uint256"
        },
        {
          "indexed": false,
          "internalType": "uint256",
          "name": "score",
          "type": "uint256"
        },
        {
          "indexed": false,
          "internalType": "string",
          "name": "evaluationFeedback",
          "type": "string"
        }
      ],
      "name": "submitAttestationEvent",
      "type": "event"
    },
    {
      "inputs": [],
      "name": "ADMIN_ROLE",
      "outputs": [
        {
          "internalType": "bytes32",
          "name": "",
          "type": "bytes32"
        }
      ],
      "stateMutability": "view",
      "type": "function"
    },
    {
      "inputs": [],
      "name": "DEFAULT_ADMIN_ROLE",
      "outputs": [
        {
          "internalType": "bytes32",
          "name": "",
          "type": "bytes32"
        }
      ],
      "stateMutability": "view",
      "type": "function"
    },
    {
      "inputs": [],
      "name": "EVALUATEE_ROLE",
      "outputs": [
        {
          "internalType": "bytes32",
          "name": "",
          "type": "bytes32"
        }
      ],
      "stateMutability": "view",
      "type": "function"
    },
    {
      "inputs": [],
      "name": "EVALUATOR_ROLE",
      "outputs": [
        {
          "internalType": "bytes32",
          "name": "",
          "type": "bytes32"
        }
      ],
      "stateMutability": "view",
      "type": "function"
    },
    {
      "inputs": [],
      "name": "OWNER_ROLE",
      "outputs": [
        {
          "internalType": "bytes32",
          "name": "",
          "type": "bytes32"
        }
      ],
      "stateMutability": "view",
      "type": "function"
    },
    {
      "inputs": [
        {
          "internalType": "address",
          "name": "userAddress",
          "type": "address"
        },
        {
          "internalType": "uint256",
          "name": "amount",
          "type": "uint256"
        }
      ],
      "name": "addUserPoints",
      "outputs": [],
      "stateMutability": "nonpayable",
      "type": "function"
    },
    {
      "inputs": [
        {
          "internalType": "address",
          "name": "userAddress",
          "type": "address"
        },
        {
          "internalType": "uint256",
          "name": "projectId",
          "type": "uint256"
        },
        {
          "internalType": "uint256",
          "name": "amount",
          "type": "uint256"
        }
      ],
      "name": "completeProject",
      "outputs": [],
      "stateMutability": "nonpayable",
      "type": "function"
    },
    {
      "inputs": [
        {
          "internalType": "string",
          "name": "username",
          "type": "string"
        }
      ],
      "name": "createUser",
      "outputs": [],
      "stateMutability": "nonpayable",
      "type": "function"
    },
    {
      "inputs": [
        {
          "internalType": "address",
          "name": "",
          "type": "address"
        },
        {
          "internalType": "uint256",
          "name": "",
          "type": "uint256"
        }
      ],
      "name": "evaluatorOf",
      "outputs": [
        {
          "internalType": "address",
          "name": "",
          "type": "address"
        }
      ],
      "stateMutability": "view",
      "type": "function"
    },
    {
      "inputs": [
        {
          "internalType": "bytes32",
          "name": "role",
          "type": "bytes32"
        }
      ],
      "name": "getRoleAdmin",
      "outputs": [
        {
          "internalType": "bytes32",
          "name": "",
          "type": "bytes32"
        }
      ],
      "stateMutability": "view",
      "type": "function"
    },
    {
      "inputs": [
        {
          "internalType": "bytes32",
          "name": "role",
          "type": "bytes32"
        },
        {
          "internalType": "address",
          "name": "account",
          "type": "address"
        }
      ],
      "name": "grantRole",
      "outputs": [],
      "stateMutability": "nonpayable",
      "type": "function"
    },
    {
      "inputs": [
        {
          "internalType": "bytes32",
          "name": "role",
          "type": "bytes32"
        },
        {
          "internalType": "address",
          "name": "account",
          "type": "address"
        }
      ],
      "name": "hasRole",
      "outputs": [
        {
          "internalType": "bool",
          "name": "",
          "type": "bool"
        }
      ],
      "stateMutability": "view",
      "type": "function"
    },
    {
      "inputs": [
        {
          "internalType": "uint256",
          "name": "projectId",
          "type": "uint256"
        }
      ],
      "name": "matchmaking",
      "outputs": [],
      "stateMutability": "nonpayable",
      "type": "function"
    },
    {
      "inputs": [
        {
          "internalType": "bytes32",
          "name": "role",
          "type": "bytes32"
        },
        {
          "internalType": "address",
          "name": "callerConfirmation",
          "type": "address"
        }
      ],
      "name": "renounceRole",
      "outputs": [],
      "stateMutability": "nonpayable",
      "type": "function"
    },
    {
      "inputs": [
        {
          "internalType": "bytes32",
          "name": "role",
          "type": "bytes32"
        },
        {
          "internalType": "address",
          "name": "account",
          "type": "address"
        }
      ],
      "name": "revokeRole",
      "outputs": [],
      "stateMutability": "nonpayable",
      "type": "function"
    },
    {
      "inputs": [
        {
          "internalType": "address",
          "name": "account",
          "type": "address"
        }
      ],
      "name": "setAdmin",
      "outputs": [],
      "stateMutability": "nonpayable",
      "type": "function"
    },
    {
      "inputs": [
        {
          "internalType": "address",
          "name": "instance",
          "type": "address"
        }
      ],
      "name": "setSPInstance",
      "outputs": [],
      "stateMutability": "nonpayable",
      "type": "function"
    },
    {
      "inputs": [
        {
          "internalType": "uint64",
          "name": "schemaId_",
          "type": "uint64"
        }
      ],
      "name": "setSchemaID",
      "outputs": [],
      "stateMutability": "nonpayable",
      "type": "function"
    },
    {
      "inputs": [],
      "name": "spInstance",
      "outputs": [
        {
          "internalType": "contract ISP",
          "name": "",
          "type": "address"
        }
      ],
      "stateMutability": "view",
      "type": "function"
    },
    {
      "inputs": [
        {
          "components": [
            {
              "internalType": "uint256",
              "name": "projectId",
              "type": "uint256"
            },
            {
              "internalType": "uint256",
              "name": "score",
              "type": "uint256"
            },
            {
              "internalType": "address",
              "name": "evaluatee",
              "type": "address"
            },
            {
              "internalType": "string",
              "name": "evaluationFeedback",
              "type": "string"
            }
          ],
          "internalType": "struct PeerReview.Evaluations",
          "name": "evaluationData",
          "type": "tuple"
        }
      ],
      "name": "submitEvaluation",
      "outputs": [
        {
          "internalType": "uint256",
          "name": "",
          "type": "uint256"
        }
      ],
      "stateMutability": "nonpayable",
      "type": "function"
    },
    {
      "inputs": [
        {
          "internalType": "bytes4",
          "name": "interfaceId",
          "type": "bytes4"
        }
      ],
      "name": "supportsInterface",
      "outputs": [
        {
          "internalType": "bool",
          "name": "",
          "type": "bool"
        }
      ],
      "stateMutability": "view",
      "type": "function"
    },
    {
      "inputs": [
        {
          "internalType": "address",
          "name": "account",
          "type": "address"
        }
      ],
      "name": "transferOwnership",
      "outputs": [],
      "stateMutability": "nonpayable",
      "type": "function"
    },
    {
      "inputs": [
        {
          "internalType": "address",
          "name": "",
          "type": "address"
        }
      ],
      "name": "userProfiles",
      "outputs": [
        {
          "internalType": "string",
          "name": "username",
          "type": "string"
        },
        {
          "internalType": "uint256",
          "name": "points",
          "type": "uint256"
        },
        {
          "internalType": "uint256",
          "name": "currentProject",
          "type": "uint256"
        },
        {
          "internalType": "bool",
          "name": "created",
          "type": "bool"
        }
      ],
      "stateMutability": "view",
      "type": "function"
    }
  ],
  "bytecode": "0x608060405234801561001057600080fd5b506040516134cf3803806134cf83398181016040528101906100329190610277565b80600360006101000a81548167ffffffffffffffff021916908367ffffffffffffffff16021790555061008b7f6270edb7c868f86fda4adedba75108201087268ea345934db8bad688e1feb91b336100c360201b60201c565b506100bc7fdf8b4c520ffe197c5343c6f5aec59570151ef9a492f2c624fd45ddde6135ec42336100c360201b60201c565b50506102a4565b60006100d583836101c060201b60201c565b6101b557600160008085815260200190815260200160002060000160008473ffffffffffffffffffffffffffffffffffffffff1673ffffffffffffffffffffffffffffffffffffffff16815260200190815260200160002060006101000a81548160ff02191690831515021790555061015261022a60201b60201c565b73ffffffffffffffffffffffffffffffffffffffff168273ffffffffffffffffffffffffffffffffffffffff16847f2f8788117e7eff1d82e926ec794901d17c78024a50270940304540a733656f0d60405160405180910390a4600190506101ba565b600090505b92915050565b600080600084815260200190815260200160002060000160008373ffffffffffffffffffffffffffffffffffffffff1673ffffffffffffffffffffffffffffffffffffffff16815260200190815260200160002060009054906101000a900460ff16905092915050565b600033905090565b600080fd5b600067ffffffffffffffff82169050919050565b61025481610237565b811461025f57600080fd5b50565b6000815190506102718161024b565b92915050565b60006020828403121561028d5761028c610232565b5b600061029b84828501610262565b91505092915050565b61321c806102b36000396000f3fe608060405234801561001057600080fd5b506004361061014d5760003560e01c8063697ad3c0116100c3578063a590794f1161007c578063a590794f146103b1578063a89a57df146103cd578063a8c5dc33146103e9578063d547741f14610407578063e58378bb14610423578063f2fde38b146104415761014d565b8063697ad3c0146102f1578063704b6c021461030d57806375b238fc146103295780638e9d660f1461034757806391d1485414610363578063a217fddf146103935761014d565b80632f2ff15d116101155780632f2ff15d1461021c57806330d0ea3114610238578063332d56d71461025657806336568abe14610289578063507ffba5146102a557806357598268146102c15761014d565b806301ffc9a71461015257806305ca8ee3146101825780631163efb91461019e57806323ed747e146101bc578063248a9ca3146101ec575b600080fd5b61016c60048036038101906101679190611d3a565b61045d565b6040516101799190611d82565b60405180910390f35b61019c60048036038101906101979190611ddd565b6104d7565b005b6101a6610538565b6040516101b39190611e23565b60405180910390f35b6101d660048036038101906101d19190611ed2565b61055c565b6040516101e39190611f21565b60405180910390f35b61020660048036038101906102019190611f68565b6105aa565b6040516102139190611e23565b60405180910390f35b61023660048036038101906102319190611f95565b6105c9565b005b6102406105eb565b60405161024d9190611e23565b60405180910390f35b610270600480360381019061026b9190611fd5565b61060e565b60405161028094939291906120a1565b60405180910390f35b6102a3600480360381019061029e9190611f95565b6106d3565b005b6102bf60048036038101906102ba9190612222565b61074e565b005b6102db60048036038101906102d69190612309565b610905565b6040516102e89190612352565b60405180910390f35b61030b60048036038101906103069190611ed2565b610c34565b005b61032760048036038101906103229190611fd5565b610d5c565b005b610331610dbe565b60405161033e9190611e23565b60405180910390f35b610361600480360381019061035c9190611fd5565b610de2565b005b61037d60048036038101906103789190611f95565b610e5b565b60405161038a9190611d82565b60405180910390f35b61039b610ec5565b6040516103a89190611e23565b60405180910390f35b6103cb60048036038101906103c6919061236d565b610ecc565b005b6103e760048036038101906103e291906123c0565b611165565b005b6103f1611758565b6040516103fe919061244c565b60405180910390f35b610421600480360381019061041c9190611f95565b61177e565b005b61042b6117a0565b6040516104389190611e23565b60405180910390f35b61045b60048036038101906104569190611fd5565b6117c4565b005b60007f7965db0b000000000000000000000000000000000000000000000000000000007bffffffffffffffffffffffffffffffffffffffffffffffffffffffff1916827bffffffffffffffffffffffffffffffffffffffffffffffffffffffff191614806104d057506104cf82611850565b5b9050919050565b7f6270edb7c868f86fda4adedba75108201087268ea345934db8bad688e1feb91b6105028133610e5b565b61050b57600080fd5b81600360006101000a81548167ffffffffffffffff021916908367ffffffffffffffff1602179055505050565b7ff322defc376bba64d27c59f0dffa3645eb556d2707692077ad37e9255bed73bb81565b6005602052816000526040600020818154811061057857600080fd5b906000526020600020016000915091509054906101000a900473ffffffffffffffffffffffffffffffffffffffff1681565b6000806000838152602001908152602001600020600101549050919050565b6105d2826105aa565b6105db816118ba565b6105e583836118ce565b50505050565b7e4f13fa3e85221cae6e297e754a8ab58b2ac55382b0b17ca3d53370d4f5633581565b600460205280600052604060002060009150905080600001805461063190612496565b80601f016020809104026020016040519081016040528092919081815260200182805461065d90612496565b80156106aa5780601f1061067f576101008083540402835291602001916106aa565b820191906000526020600020905b81548152906001019060200180831161068d57829003601f168201915b5050505050908060010154908060020154908060040160009054906101000a900460ff16905084565b6106db6119bf565b73ffffffffffffffffffffffffffffffffffffffff168173ffffffffffffffffffffffffffffffffffffffff161461073f576040517f6697b23200000000000000000000000000000000000000000000000000000000815260040160405180910390fd5b61074982826119c7565b505050565b60001515600460003373ffffffffffffffffffffffffffffffffffffffff1673ffffffffffffffffffffffffffffffffffffffff16815260200190815260200160002060040160009054906101000a900460ff161515146107e4576040517f08c379a00000000000000000000000000000000000000000000000000000000081526004016107db90612513565b60405180910390fd5b6040518060a001604052808281526020016000815260200160008152602001600067ffffffffffffffff81111561081e5761081d6120f7565b5b60405190808252806020026020018201604052801561084c5781602001602082028036833780820191505090505b50815260200160011515815250600460003373ffffffffffffffffffffffffffffffffffffffff1673ffffffffffffffffffffffffffffffffffffffff16815260200190815260200160002060008201518160000190816108ad91906126d5565b50602082015181600101556040820151816002015560608201518160030190805190602001906108de929190611c43565b5060808201518160040160006101000a81548160ff02191690831515021790555090505050565b60007e4f13fa3e85221cae6e297e754a8ab58b2ac55382b0b17ca3d53370d4f563356109318133610e5b565b61093a57600080fd5b826040015173ffffffffffffffffffffffffffffffffffffffff163373ffffffffffffffffffffffffffffffffffffffff16146109ac576040517f08c379a00000000000000000000000000000000000000000000000000000000081526004016109a390612819565b60405180910390fd5b6000836000015190506000600167ffffffffffffffff8111156109d2576109d16120f7565b5b604051908082528060200260200182016040528015610a0557816020015b60608152602001906001900390816109f05790505b5090508460400151604051602001610a1d9190611f21565b60405160208183030381529060405281600081518110610a4057610a3f612839565b5b6020026020010181905250600085604051602001610a5e9190612933565b60405160208183030381529060405290506000604051806101400160405280600360009054906101000a900467ffffffffffffffff1667ffffffffffffffff168152602001600067ffffffffffffffff168152602001600067ffffffffffffffff168152602001600067ffffffffffffffff1681526020013373ffffffffffffffffffffffffffffffffffffffff168152602001600067ffffffffffffffff16815260200160006003811115610b1757610b16612955565b5b81526020016000151581526020018481526020018381525090506000600160009054906101000a900473ffffffffffffffffffffffffffffffffffffffff1673ffffffffffffffffffffffffffffffffffffffff1663b82916cb836040518263ffffffff1660e01b8152600401610b8e9190612c3c565b6020604051808303816000875af1158015610bad573d6000803e3d6000fd5b505050506040513d601f19601f82011682018060405250810190610bd19190612cac565b67ffffffffffffffff1690507f305a9f260e4d3c1f2c538e3032a604da7425b5901d9c5d759f27dbedcf6783958860400151868a602001518b60600151604051610c1e9493929190612cd9565b60405180910390a1809650505050505050919050565b7fdf8b4c520ffe197c5343c6f5aec59570151ef9a492f2c624fd45ddde6135ec42610c5f8133610e5b565b610c6857600080fd5b60011515600460008573ffffffffffffffffffffffffffffffffffffffff1673ffffffffffffffffffffffffffffffffffffffff16815260200190815260200160002060040160009054906101000a900460ff16151514610cfe576040517f08c379a0000000000000000000000000000000000000000000000000000000008152600401610cf590612d71565b60405180910390fd5b81600460008573ffffffffffffffffffffffffffffffffffffffff1673ffffffffffffffffffffffffffffffffffffffff1681526020019081526020016000206001016000828254610d509190612dc0565b92505081905550505050565b7f6270edb7c868f86fda4adedba75108201087268ea345934db8bad688e1feb91b610d878133610e5b565b610d9057600080fd5b610dba7fdf8b4c520ffe197c5343c6f5aec59570151ef9a492f2c624fd45ddde6135ec42836105c9565b5050565b7fdf8b4c520ffe197c5343c6f5aec59570151ef9a492f2c624fd45ddde6135ec4281565b7f6270edb7c868f86fda4adedba75108201087268ea345934db8bad688e1feb91b610e0d8133610e5b565b610e1657600080fd5b81600160006101000a81548173ffffffffffffffffffffffffffffffffffffffff021916908373ffffffffffffffffffffffffffffffffffffffff1602179055505050565b600080600084815260200190815260200160002060000160008373ffffffffffffffffffffffffffffffffffffffff1673ffffffffffffffffffffffffffffffffffffffff16815260200190815260200160002060009054906101000a900460ff16905092915050565b6000801b81565b7fdf8b4c520ffe197c5343c6f5aec59570151ef9a492f2c624fd45ddde6135ec42610ef78133610e5b565b610f0057600080fd5b60011515600460008673ffffffffffffffffffffffffffffffffffffffff1673ffffffffffffffffffffffffffffffffffffffff16815260200190815260200160002060040160009054906101000a900460ff16151514610f96576040517f08c379a0000000000000000000000000000000000000000000000000000000008152600401610f8d90612d71565b60405180910390fd5b82600460008673ffffffffffffffffffffffffffffffffffffffff1673ffffffffffffffffffffffffffffffffffffffff168152602001908152602001600020600201541461101a576040517f08c379a000000000000000000000000000000000000000000000000000000000815260040161101190612e66565b60405180910390fd5b81600460008673ffffffffffffffffffffffffffffffffffffffff1673ffffffffffffffffffffffffffffffffffffffff168152602001908152602001600020600101600082825461106c9190612dc0565b92505081905550600460008573ffffffffffffffffffffffffffffffffffffffff1673ffffffffffffffffffffffffffffffffffffffff1681526020019081526020016000206003018390806001815401808255809150506001900390600052602060002001600090919091909150556000600460008673ffffffffffffffffffffffffffffffffffffffff1673ffffffffffffffffffffffffffffffffffffffff168152602001908152602001600020600201819055507fab0cba6e6f4f659868746ec49ac3a984770e64f2da708d53203e4630e17daf8a84848460405161115793929190612e86565b60405180910390a150505050565b60005b600280549050811015611573573373ffffffffffffffffffffffffffffffffffffffff16600282815481106111a05761119f612839565b5b9060005260206000200160009054906101000a900473ffffffffffffffffffffffffffffffffffffffff1673ffffffffffffffffffffffffffffffffffffffff16146115665760006004600060028481548110611200576111ff612839565b5b9060005260206000200160009054906101000a900473ffffffffffffffffffffffffffffffffffffffff1673ffffffffffffffffffffffffffffffffffffffff1673ffffffffffffffffffffffffffffffffffffffff16815260200190815260200160002060010154905060006064600a600460003373ffffffffffffffffffffffffffffffffffffffff1673ffffffffffffffffffffffffffffffffffffffff168152602001908152602001600020600101546112be9190612ebd565b6112c89190612f2e565b905080600460003373ffffffffffffffffffffffffffffffffffffffff1673ffffffffffffffffffffffffffffffffffffffff168152602001908152602001600020600101546113189190612dc0565b8211156113c55760066002848154811061133557611334612839565b5b9060005260206000200160009054906101000a900473ffffffffffffffffffffffffffffffffffffffff169080600181540180825580915050600190039060005260206000200160009091909190916101000a81548173ffffffffffffffffffffffffffffffffffffffff021916908373ffffffffffffffffffffffffffffffffffffffff160217905550611563565b80600460003373ffffffffffffffffffffffffffffffffffffffff1673ffffffffffffffffffffffffffffffffffffffff168152602001908152602001600020600101546114139190612f5f565b8210156114c0576008600284815481106114305761142f612839565b5b9060005260206000200160009054906101000a900473ffffffffffffffffffffffffffffffffffffffff169080600181540180825580915050600190039060005260206000200160009091909190916101000a81548173ffffffffffffffffffffffffffffffffffffffff021916908373ffffffffffffffffffffffffffffffffffffffff160217905550611562565b6007600284815481106114d6576114d5612839565b5b9060005260206000200160009054906101000a900473ffffffffffffffffffffffffffffffffffffffff169080600181540180825580915050600190039060005260206000200160009091909190916101000a81548173ffffffffffffffffffffffffffffffffffffffff021916908373ffffffffffffffffffffffffffffffffffffffff1602179055505b5b50505b8080600101915050611168565b50600060068054905011156115de576000611592600680549050611ab9565b90506115dc600682815481106115ab576115aa612839565b5b9060005260206000200160009054906101000a900473ffffffffffffffffffffffffffffffffffffffff1633611afb565b505b600060078054905011156116485760006115fc600780549050611ab9565b90506116466007828154811061161557611614612839565b5b9060005260206000200160009054906101000a900473ffffffffffffffffffffffffffffffffffffffff1633611afb565b505b600060088054905011156116b2576000611666600880549050611ab9565b90506116b06008828154811061167f5761167e612839565b5b9060005260206000200160009054906101000a900473ffffffffffffffffffffffffffffffffffffffff1633611afb565b505b600660006116c09190611c90565b600760006116ce9190611c90565b600860006116dc9190611c90565b7f678658d9f1fe0c70d4af48cd4f90bedffba7c52b6c30d6510050749b1d6bc43e3382600560003373ffffffffffffffffffffffffffffffffffffffff1673ffffffffffffffffffffffffffffffffffffffff16815260200190815260200160002060405161174d939291906130a8565b60405180910390a150565b600160009054906101000a900473ffffffffffffffffffffffffffffffffffffffff1681565b611787826105aa565b611790816118ba565b61179a83836119c7565b50505050565b7f6270edb7c868f86fda4adedba75108201087268ea345934db8bad688e1feb91b81565b7f6270edb7c868f86fda4adedba75108201087268ea345934db8bad688e1feb91b6117ef8133610e5b565b6117f857600080fd5b6118227f6270edb7c868f86fda4adedba75108201087268ea345934db8bad688e1feb91b836105c9565b61184c7f6270edb7c868f86fda4adedba75108201087268ea345934db8bad688e1feb91b3361177e565b5050565b60007f01ffc9a7000000000000000000000000000000000000000000000000000000007bffffffffffffffffffffffffffffffffffffffffffffffffffffffff1916827bffffffffffffffffffffffffffffffffffffffffffffffffffffffff1916149050919050565b6118cb816118c66119bf565b611bf2565b50565b60006118da8383610e5b565b6119b457600160008085815260200190815260200160002060000160008473ffffffffffffffffffffffffffffffffffffffff1673ffffffffffffffffffffffffffffffffffffffff16815260200190815260200160002060006101000a81548160ff0219169083151502179055506119516119bf565b73ffffffffffffffffffffffffffffffffffffffff168273ffffffffffffffffffffffffffffffffffffffff16847f2f8788117e7eff1d82e926ec794901d17c78024a50270940304540a733656f0d60405160405180910390a4600190506119b9565b600090505b92915050565b600033905090565b60006119d38383610e5b565b15611aae57600080600085815260200190815260200160002060000160008473ffffffffffffffffffffffffffffffffffffffff1673ffffffffffffffffffffffffffffffffffffffff16815260200190815260200160002060006101000a81548160ff021916908315150217905550611a4b6119bf565b73ffffffffffffffffffffffffffffffffffffffff168273ffffffffffffffffffffffffffffffffffffffff16847ff6391f5c32d9c69d2a47ea670b442974b53935d1edc7fd64eb21e047a839171b60405160405180910390a460019050611ab3565b600090505b92915050565b600081424433604051602001611ad19392919061314f565b6040516020818303038152906040528051906020012060001c611af4919061318c565b9050919050565b611b247e4f13fa3e85221cae6e297e754a8ab58b2ac55382b0b17ca3d53370d4f56335836105c9565b611b4e7ff322defc376bba64d27c59f0dffa3645eb556d2707692077ad37e9255bed73bb826105c9565b600560008273ffffffffffffffffffffffffffffffffffffffff1673ffffffffffffffffffffffffffffffffffffffff168152602001908152602001600020829080600181540180825580915050600190039060005260206000200160009091909190916101000a81548173ffffffffffffffffffffffffffffffffffffffff021916908373ffffffffffffffffffffffffffffffffffffffff1602179055505050565b611bfc8282610e5b565b611c3f5780826040517fe2517d3f000000000000000000000000000000000000000000000000000000008152600401611c369291906131bd565b60405180910390fd5b5050565b828054828255906000526020600020908101928215611c7f579160200282015b82811115611c7e578251825591602001919060010190611c63565b5b509050611c8c9190611cb1565b5090565b5080546000825590600052602060002090810190611cae9190611cb1565b50565b5b80821115611cca576000816000905550600101611cb2565b5090565b6000604051905090565b600080fd5b600080fd5b60007fffffffff0000000000000000000000000000000000000000000000000000000082169050919050565b611d1781611ce2565b8114611d2257600080fd5b50565b600081359050611d3481611d0e565b92915050565b600060208284031215611d5057611d4f611cd8565b5b6000611d5e84828501611d25565b91505092915050565b60008115159050919050565b611d7c81611d67565b82525050565b6000602082019050611d976000830184611d73565b92915050565b600067ffffffffffffffff82169050919050565b611dba81611d9d565b8114611dc557600080fd5b50565b600081359050611dd781611db1565b92915050565b600060208284031215611df357611df2611cd8565b5b6000611e0184828501611dc8565b91505092915050565b6000819050919050565b611e1d81611e0a565b82525050565b6000602082019050611e386000830184611e14565b92915050565b600073ffffffffffffffffffffffffffffffffffffffff82169050919050565b6000611e6982611e3e565b9050919050565b611e7981611e5e565b8114611e8457600080fd5b50565b600081359050611e9681611e70565b92915050565b6000819050919050565b611eaf81611e9c565b8114611eba57600080fd5b50565b600081359050611ecc81611ea6565b92915050565b60008060408385031215611ee957611ee8611cd8565b5b6000611ef785828601611e87565b9250506020611f0885828601611ebd565b9150509250929050565b611f1b81611e5e565b82525050565b6000602082019050611f366000830184611f12565b92915050565b611f4581611e0a565b8114611f5057600080fd5b50565b600081359050611f6281611f3c565b92915050565b600060208284031215611f7e57611f7d611cd8565b5b6000611f8c84828501611f53565b91505092915050565b60008060408385031215611fac57611fab611cd8565b5b6000611fba85828601611f53565b9250506020611fcb85828601611e87565b9150509250929050565b600060208284031215611feb57611fea611cd8565b5b6000611ff984828501611e87565b91505092915050565b600081519050919050565b600082825260208201905092915050565b60005b8381101561203c578082015181840152602081019050612021565b60008484015250505050565b6000601f19601f8301169050919050565b600061206482612002565b61206e818561200d565b935061207e81856020860161201e565b61208781612048565b840191505092915050565b61209b81611e9c565b82525050565b600060808201905081810360008301526120bb8187612059565b90506120ca6020830186612092565b6120d76040830185612092565b6120e46060830184611d73565b95945050505050565b600080fd5b600080fd5b7f4e487b7100000000000000000000000000000000000000000000000000000000600052604160045260246000fd5b61212f82612048565b810181811067ffffffffffffffff8211171561214e5761214d6120f7565b5b80604052505050565b6000612161611cce565b905061216d8282612126565b919050565b600067ffffffffffffffff82111561218d5761218c6120f7565b5b61219682612048565b9050602081019050919050565b82818337600083830152505050565b60006121c56121c084612172565b612157565b9050828152602081018484840111156121e1576121e06120f2565b5b6121ec8482856121a3565b509392505050565b600082601f830112612209576122086120ed565b5b81356122198482602086016121b2565b91505092915050565b60006020828403121561223857612237611cd8565b5b600082013567ffffffffffffffff81111561225657612255611cdd565b5b612262848285016121f4565b91505092915050565b600080fd5b600080fd5b60006080828403121561228b5761228a61226b565b5b6122956080612157565b905060006122a584828501611ebd565b60008301525060206122b984828501611ebd565b60208301525060406122cd84828501611e87565b604083015250606082013567ffffffffffffffff8111156122f1576122f0612270565b5b6122fd848285016121f4565b60608301525092915050565b60006020828403121561231f5761231e611cd8565b5b600082013567ffffffffffffffff81111561233d5761233c611cdd565b5b61234984828501612275565b91505092915050565b60006020820190506123676000830184612092565b92915050565b60008060006060848603121561238657612385611cd8565b5b600061239486828701611e87565b93505060206123a586828701611ebd565b92505060406123b686828701611ebd565b9150509250925092565b6000602082840312156123d6576123d5611cd8565b5b60006123e484828501611ebd565b91505092915050565b6000819050919050565b600061241261240d61240884611e3e565b6123ed565b611e3e565b9050919050565b6000612424826123f7565b9050919050565b600061243682612419565b9050919050565b6124468161242b565b82525050565b6000602082019050612461600083018461243d565b92915050565b7f4e487b7100000000000000000000000000000000000000000000000000000000600052602260045260246000fd5b600060028204905060018216806124ae57607f821691505b6020821081036124c1576124c0612467565b5b50919050565b7f5573657220616c72656164792065786973747300000000000000000000000000600082015250565b60006124fd60138361200d565b9150612508826124c7565b602082019050919050565b6000602082019050818103600083015261252c816124f0565b9050919050565b60008190508160005260206000209050919050565b60006020601f8301049050919050565b600082821b905092915050565b6000600883026125957fffffffffffffffffffffffffffffffffffffffffffffffffffffffffffffffff82612558565b61259f8683612558565b95508019841693508086168417925050509392505050565b60006125d26125cd6125c884611e9c565b6123ed565b611e9c565b9050919050565b6000819050919050565b6125ec836125b7565b6126006125f8826125d9565b848454612565565b825550505050565b600090565b612615612608565b6126208184846125e3565b505050565b5b818110156126445761263960008261260d565b600181019050612626565b5050565b601f8211156126895761265a81612533565b61266384612548565b81016020851015612672578190505b61268661267e85612548565b830182612625565b50505b505050565b600082821c905092915050565b60006126ac6000198460080261268e565b1980831691505092915050565b60006126c5838361269b565b9150826002028217905092915050565b6126de82612002565b67ffffffffffffffff8111156126f7576126f66120f7565b5b6127018254612496565b61270c828285612648565b600060209050601f83116001811461273f576000841561272d578287015190505b61273785826126b9565b86555061279f565b601f19841661274d86612533565b60005b8281101561277557848901518255600182019150602085019450602081019050612750565b86831015612792578489015161278e601f89168261269b565b8355505b6001600288020188555050505b505050505050565b7f546869732075736572206e6f7420617574686f72697a656420746f206576616c60008201527f7561746520746865206576616c75617465652e00000000000000000000000000602082015250565b600061280360338361200d565b915061280e826127a7565b604082019050919050565b60006020820190508181036000830152612832816127f6565b9050919050565b7f4e487b7100000000000000000000000000000000000000000000000000000000600052603260045260246000fd5b61287181611e9c565b82525050565b61288081611e5e565b82525050565b600082825260208201905092915050565b60006128a282612002565b6128ac8185612886565b93506128bc81856020860161201e565b6128c581612048565b840191505092915050565b60006080830160008301516128e86000860182612868565b5060208301516128fb6020860182612868565b50604083015161290e6040860182612877565b50606083015184820360608601526129268282612897565b9150508091505092915050565b6000602082019050818103600083015261294d81846128d0565b905092915050565b7f4e487b7100000000000000000000000000000000000000000000000000000000600052602160045260246000fd5b61298d81611d9d565b82525050565b600481106129a4576129a3612955565b5b50565b60008190506129b582612993565b919050565b60006129c5826129a7565b9050919050565b6129d5816129ba565b82525050565b6129e481611d67565b82525050565b600081519050919050565b600082825260208201905092915050565b6000819050602082019050919050565b600081519050919050565b600082825260208201905092915050565b6000612a3d82612a16565b612a478185612a21565b9350612a5781856020860161201e565b612a6081612048565b840191505092915050565b6000612a778383612a32565b905092915050565b6000602082019050919050565b6000612a97826129ea565b612aa181856129f5565b935083602082028501612ab385612a06565b8060005b85811015612aef5784840389528151612ad08582612a6b565b9450612adb83612a7f565b925060208a01995050600181019050612ab7565b50829750879550505050505092915050565b600061014083016000830151612b1a6000860182612984565b506020830151612b2d6020860182612984565b506040830151612b406040860182612984565b506060830151612b536060860182612984565b506080830151612b666080860182612877565b5060a0830151612b7960a0860182612984565b5060c0830151612b8c60c08601826129cc565b5060e0830151612b9f60e08601826129db565b50610100830151848203610100860152612bb98282612a8c565b915050610120830151848203610120860152612bd58282612a32565b9150508091505092915050565b50565b6000612bf260008361200d565b9150612bfd82612be2565b600082019050919050565b600082825260208201905092915050565b6000612c26600083612c08565b9150612c3182612be2565b600082019050919050565b60006080820190508181036000830152612c568184612b01565b90508181036020830152612c6981612be5565b90508181036040830152612c7c81612c19565b90508181036060830152612c8f81612c19565b905092915050565b600081519050612ca681611db1565b92915050565b600060208284031215612cc257612cc1611cd8565b5b6000612cd084828501612c97565b91505092915050565b6000608082019050612cee6000830187611f12565b612cfb6020830186612092565b612d086040830185612092565b8181036060830152612d1a8184612059565b905095945050505050565b7f5573657220646f6573206e6f7420657869737473000000000000000000000000600082015250565b6000612d5b60148361200d565b9150612d6682612d25565b602082019050919050565b60006020820190508181036000830152612d8a81612d4e565b9050919050565b7f4e487b7100000000000000000000000000000000000000000000000000000000600052601160045260246000fd5b6000612dcb82611e9c565b9150612dd683611e9c565b9250828201905080821115612dee57612ded612d91565b5b92915050565b7f50726f6a65637420686173206e6f74207374617274656420627920746869732060008201527f7573657200000000000000000000000000000000000000000000000000000000602082015250565b6000612e5060248361200d565b9150612e5b82612df4565b604082019050919050565b60006020820190508181036000830152612e7f81612e43565b9050919050565b6000606082019050612e9b6000830186611f12565b612ea86020830185612092565b612eb56040830184612092565b949350505050565b6000612ec882611e9c565b9150612ed383611e9c565b9250828202612ee181611e9c565b91508282048414831517612ef857612ef7612d91565b5b5092915050565b7f4e487b7100000000000000000000000000000000000000000000000000000000600052601260045260246000fd5b6000612f3982611e9c565b9150612f4483611e9c565b925082612f5457612f53612eff565b5b828204905092915050565b6000612f6a82611e9c565b9150612f7583611e9c565b9250828203905081811115612f8d57612f8c612d91565b5b92915050565b600081549050919050565b600082825260208201905092915050565b60008190508160005260206000209050919050565b6000612fd08383612877565b60208301905092915050565b60008160001c9050919050565b600073ffffffffffffffffffffffffffffffffffffffff82169050919050565b600061301c61301783612fdc565b612fe9565b9050919050565b600061302f8254613009565b9050919050565b6000600182019050919050565b600061304e82612f93565b6130588185612f9e565b935061306383612faf565b8060005b8381101561309b5761307882613023565b6130828882612fc4565b975061308d83613036565b925050600181019050613067565b5085935050505092915050565b60006060820190506130bd6000830186611f12565b6130ca6020830185612092565b81810360408301526130dc8184613043565b9050949350505050565b6000819050919050565b6131016130fc82611e9c565b6130e6565b82525050565b60008160601b9050919050565b600061311f82613107565b9050919050565b600061313182613114565b9050919050565b61314961314482611e5e565b613126565b82525050565b600061315b82866130f0565b60208201915061316b82856130f0565b60208201915061317b8284613138565b601482019150819050949350505050565b600061319782611e9c565b91506131a283611e9c565b9250826131b2576131b1612eff565b5b828206905092915050565b60006040820190506131d26000830185611f12565b6131df6020830184611e14565b939250505056fea2646970667358221220587e1fb9d63486363dd9939e631e62b32dda37df38fd3d2a821357d91bd226ad64736f6c634300081b0033",
  "linkReferences": {},
  "deployedLinkReferences": {}
}