{
  "contracts/PeerReview.sol": {
    "PeerReview": {
      "abi": [
        {
          "inputs": [
            {
              "internalType": "uint64",
              "name": "schemaId",
              "type": "uint64"
            }
          ],
          "stateMutability": "nonpayable",
          "type": "constructor"
        },
        {
          "inputs": [],
          "name": "AccessControlBadConfirmation",
          "type": "error"
        },
        {
          "inputs": [
            {
              "internalType": "address",
              "name": "account",
              "type": "address"
            },
            {
              "internalType": "bytes32",
              "name": "neededRole",
              "type": "bytes32"
            }
          ],
          "name": "AccessControlUnauthorizedAccount",
          "type": "error"
        },
        {
          "anonymous": false,
          "inputs": [
            {
              "indexed": true,
              "internalType": "bytes32",
              "name": "role",
              "type": "bytes32"
            },
            {
              "indexed": true,
              "internalType": "bytes32",
              "name": "previousAdminRole",
              "type": "bytes32"
            },
            {
              "indexed": true,
              "internalType": "bytes32",
              "name": "newAdminRole",
              "type": "bytes32"
            }
          ],
          "name": "RoleAdminChanged",
          "type": "event"
        },
        {
          "anonymous": false,
          "inputs": [
            {
              "indexed": true,
              "internalType": "bytes32",
              "name": "role",
              "type": "bytes32"
            },
            {
              "indexed": true,
              "internalType": "address",
              "name": "account",
              "type": "address"
            },
            {
              "indexed": true,
              "internalType": "address",
              "name": "sender",
              "type": "address"
            }
          ],
          "name": "RoleGranted",
          "type": "event"
        },
        {
          "anonymous": false,
          "inputs": [
            {
              "indexed": true,
              "internalType": "bytes32",
              "name": "role",
              "type": "bytes32"
            },
            {
              "indexed": true,
              "internalType": "address",
              "name": "account",
              "type": "address"
            },
            {
              "indexed": true,
              "internalType": "address",
              "name": "sender",
              "type": "address"
            }
          ],
          "name": "RoleRevoked",
          "type": "event"
        },
        {
          "anonymous": false,
          "inputs": [
            {
              "indexed": false,
              "internalType": "address",
              "name": "user",
              "type": "address"
            },
            {
              "indexed": false,
              "internalType": "uint256",
              "name": "projectId",
              "type": "uint256"
            },
            {
              "indexed": false,
              "internalType": "uint256",
              "name": "amount",
              "type": "uint256"
            }
          ],
          "name": "completeProjectEvent",
          "type": "event"
        },
        {
          "anonymous": false,
          "inputs": [
            {
              "indexed": false,
              "internalType": "address",
              "name": "user",
              "type": "address"
            },
            {
              "indexed": false,
              "internalType": "uint256",
              "name": "projectId",
              "type": "uint256"
            },
            {
              "indexed": false,
              "internalType": "address[]",
              "name": "evaluators",
              "type": "address[]"
            }
          ],
          "name": "createEvaluatorOfEvent",
          "type": "event"
        },
        {
          "anonymous": false,
          "inputs": [
            {
              "indexed": false,
              "internalType": "address",
              "name": "owner",
              "type": "address"
            },
            {
              "indexed": false,
              "internalType": "string",
              "name": "username",
              "type": "string"
            },
            {
              "indexed": false,
              "internalType": "uint256",
              "name": "points",
              "type": "uint256"
            },
            {
              "indexed": false,
              "internalType": "uint256",
              "name": "currentProject",
              "type": "uint256"
            },
            {
              "indexed": false,
              "internalType": "uint256[]",
              "name": "completedProjects",
              "type": "uint256[]"
            },
            {
              "indexed": false,
              "internalType": "bool",
              "name": "created",
              "type": "bool"
            }
          ],
          "name": "createUserEvent",
          "type": "event"
        },
        {
          "anonymous": false,
          "inputs": [
            {
              "indexed": false,
              "internalType": "address",
              "name": "userAddress",
              "type": "address"
            },
            {
              "indexed": false,
              "internalType": "uint256",
              "name": "projectId",
              "type": "uint256"
            }
          ],
          "name": "failProjectEvent",
          "type": "event"
        },
        {
          "anonymous": false,
          "inputs": [
            {
              "indexed": false,
              "internalType": "address",
              "name": "evaluator",
              "type": "address"
            },
            {
              "indexed": false,
              "internalType": "address",
              "name": "evaluatee",
              "type": "address"
            },
            {
              "indexed": false,
              "internalType": "uint256",
              "name": "projectId",
              "type": "uint256"
            },
            {
              "indexed": false,
              "internalType": "uint256",
              "name": "score",
              "type": "uint256"
            },
            {
              "indexed": false,
              "internalType": "string",
              "name": "evaluationFeedback",
              "type": "string"
            }
          ],
          "name": "submitAttestationEvent",
          "type": "event"
        },
        {
          "inputs": [],
          "name": "ADMIN_ROLE",
          "outputs": [
            {
              "internalType": "bytes32",
              "name": "",
              "type": "bytes32"
            }
          ],
          "stateMutability": "view",
          "type": "function"
        },
        {
          "inputs": [],
          "name": "DEFAULT_ADMIN_ROLE",
          "outputs": [
            {
              "internalType": "bytes32",
              "name": "",
              "type": "bytes32"
            }
          ],
          "stateMutability": "view",
          "type": "function"
        },
        {
          "inputs": [],
          "name": "EVALUATEE_ROLE",
          "outputs": [
            {
              "internalType": "bytes32",
              "name": "",
              "type": "bytes32"
            }
          ],
          "stateMutability": "view",
          "type": "function"
        },
        {
          "inputs": [],
          "name": "EVALUATOR_ROLE",
          "outputs": [
            {
              "internalType": "bytes32",
              "name": "",
              "type": "bytes32"
            }
          ],
          "stateMutability": "view",
          "type": "function"
        },
        {
          "inputs": [],
          "name": "OWNER_ROLE",
          "outputs": [
            {
              "internalType": "bytes32",
              "name": "",
              "type": "bytes32"
            }
          ],
          "stateMutability": "view",
          "type": "function"
        },
        {
          "inputs": [
            {
              "internalType": "address",
              "name": "userAddress",
              "type": "address"
            },
            {
              "internalType": "uint256",
              "name": "amount",
              "type": "uint256"
            }
          ],
          "name": "addUserPoints",
          "outputs": [],
          "stateMutability": "nonpayable",
          "type": "function"
        },
        {
          "inputs": [
            {
              "internalType": "uint256",
              "name": "projectId",
              "type": "uint256"
            }
          ],
          "name": "checkProjectExists",
          "outputs": [
            {
              "internalType": "bool",
              "name": "",
              "type": "bool"
            }
          ],
          "stateMutability": "view",
          "type": "function"
        },
        {
          "inputs": [
            {
              "internalType": "address",
              "name": "userAddress",
              "type": "address"
            },
            {
              "internalType": "uint256",
              "name": "projectId",
              "type": "uint256"
            },
            {
              "internalType": "uint256",
              "name": "amount",
              "type": "uint256"
            },
            {
              "internalType": "bool",
              "name": "pass",
              "type": "bool"
            }
          ],
          "name": "completeProject",
          "outputs": [],
          "stateMutability": "nonpayable",
          "type": "function"
        },
        {
          "inputs": [
            {
              "internalType": "string",
              "name": "username",
              "type": "string"
            }
          ],
          "name": "createUser",
          "outputs": [],
          "stateMutability": "nonpayable",
          "type": "function"
        },
        {
          "inputs": [
            {
              "internalType": "address",
              "name": "",
              "type": "address"
            },
            {
              "internalType": "uint256",
              "name": "",
              "type": "uint256"
            }
          ],
          "name": "evaluatorOf",
          "outputs": [
            {
              "internalType": "address",
              "name": "",
              "type": "address"
            }
          ],
          "stateMutability": "view",
          "type": "function"
        },
        {
          "inputs": [
            {
              "internalType": "bytes32",
              "name": "role",
              "type": "bytes32"
            }
          ],
          "name": "getRoleAdmin",
          "outputs": [
            {
              "internalType": "bytes32",
              "name": "",
              "type": "bytes32"
            }
          ],
          "stateMutability": "view",
          "type": "function"
        },
        {
          "inputs": [
            {
              "internalType": "bytes32",
              "name": "role",
              "type": "bytes32"
            },
            {
              "internalType": "address",
              "name": "account",
              "type": "address"
            }
          ],
          "name": "grantRole",
          "outputs": [],
          "stateMutability": "nonpayable",
          "type": "function"
        },
        {
          "inputs": [
            {
              "internalType": "bytes32",
              "name": "role",
              "type": "bytes32"
            },
            {
              "internalType": "address",
              "name": "account",
              "type": "address"
            }
          ],
          "name": "hasRole",
          "outputs": [
            {
              "internalType": "bool",
              "name": "",
              "type": "bool"
            }
          ],
          "stateMutability": "view",
          "type": "function"
        },
        {
          "inputs": [
            {
              "internalType": "uint256",
              "name": "projectId",
              "type": "uint256"
            }
          ],
          "name": "matchmaking",
          "outputs": [],
          "stateMutability": "nonpayable",
          "type": "function"
        },
        {
          "inputs": [
            {
              "internalType": "uint256",
              "name": "",
              "type": "uint256"
            }
          ],
          "name": "projects",
          "outputs": [
            {
              "internalType": "string",
              "name": "name",
              "type": "string"
            },
            {
              "internalType": "string",
              "name": "description",
              "type": "string"
            }
          ],
          "stateMutability": "view",
          "type": "function"
        },
        {
          "inputs": [
            {
              "internalType": "bytes32",
              "name": "role",
              "type": "bytes32"
            },
            {
              "internalType": "address",
              "name": "callerConfirmation",
              "type": "address"
            }
          ],
          "name": "renounceRole",
          "outputs": [],
          "stateMutability": "nonpayable",
          "type": "function"
        },
        {
          "inputs": [
            {
              "internalType": "bytes32",
              "name": "role",
              "type": "bytes32"
            },
            {
              "internalType": "address",
              "name": "account",
              "type": "address"
            }
          ],
          "name": "revokeRole",
          "outputs": [],
          "stateMutability": "nonpayable",
          "type": "function"
        },
        {
          "inputs": [
            {
              "internalType": "address",
              "name": "account",
              "type": "address"
            }
          ],
          "name": "setAdmin",
          "outputs": [],
          "stateMutability": "nonpayable",
          "type": "function"
        },
        {
          "inputs": [
            {
              "internalType": "address",
              "name": "account",
              "type": "address"
            }
          ],
          "name": "setEvaluatee",
          "outputs": [],
          "stateMutability": "nonpayable",
          "type": "function"
        },
        {
          "inputs": [
            {
              "internalType": "address",
              "name": "account",
              "type": "address"
            }
          ],
          "name": "setEvaluator",
          "outputs": [],
          "stateMutability": "nonpayable",
          "type": "function"
        },
        {
          "inputs": [
            {
              "internalType": "address",
              "name": "instance",
              "type": "address"
            }
          ],
          "name": "setSPInstance",
          "outputs": [],
          "stateMutability": "nonpayable",
          "type": "function"
        },
        {
          "inputs": [
            {
              "internalType": "uint64",
              "name": "schemaId_",
              "type": "uint64"
            }
          ],
          "name": "setSchemaID",
          "outputs": [],
          "stateMutability": "nonpayable",
          "type": "function"
        },
        {
          "inputs": [],
          "name": "spInstance",
          "outputs": [
            {
              "internalType": "contract ISP",
              "name": "",
              "type": "address"
            }
          ],
          "stateMutability": "view",
          "type": "function"
        },
        {
          "inputs": [
            {
              "components": [
                {
                  "internalType": "uint256",
                  "name": "projectId",
                  "type": "uint256"
                },
                {
                  "internalType": "uint256",
                  "name": "score",
                  "type": "uint256"
                },
                {
                  "internalType": "address",
                  "name": "evaluatee",
                  "type": "address"
                },
                {
                  "internalType": "string",
                  "name": "evaluationFeedback",
                  "type": "string"
                }
              ],
              "internalType": "struct PeerReview.Evaluations",
              "name": "evaluationData",
              "type": "tuple"
            }
          ],
          "name": "submitEvaluation",
          "outputs": [
            {
              "internalType": "uint256",
              "name": "",
              "type": "uint256"
            }
          ],
          "stateMutability": "nonpayable",
          "type": "function"
        },
        {
          "inputs": [
            {
              "internalType": "bytes4",
              "name": "interfaceId",
              "type": "bytes4"
            }
          ],
          "name": "supportsInterface",
          "outputs": [
            {
              "internalType": "bool",
              "name": "",
              "type": "bool"
            }
          ],
          "stateMutability": "view",
          "type": "function"
        },
        {
          "inputs": [
            {
              "internalType": "address",
              "name": "account",
              "type": "address"
            }
          ],
          "name": "transferOwnership",
          "outputs": [],
          "stateMutability": "nonpayable",
          "type": "function"
        },
        {
          "inputs": [
            {
              "internalType": "address",
              "name": "",
              "type": "address"
            }
          ],
          "name": "userProfiles",
          "outputs": [
            {
              "internalType": "address",
              "name": "owner",
              "type": "address"
            },
            {
              "internalType": "string",
              "name": "username",
              "type": "string"
            },
            {
              "internalType": "uint256",
              "name": "points",
              "type": "uint256"
            },
            {
              "internalType": "uint256",
              "name": "currentProject",
              "type": "uint256"
            },
            {
              "internalType": "bool",
              "name": "created",
              "type": "bool"
            }
          ],
          "stateMutability": "view",
          "type": "function"
        }
      ],
      "evm": {
        "bytecode": {
          "linkReferences": {},
          "object": "608060405234801561001057600080fd5b5060405161214f38038061214f83398101604081905261002f91610157565b600580546001600160401b0319166001600160401b03831617905560006002556100797f6270edb7c868f86fda4adedba75108201087268ea345934db8bad688e1feb91b336100ab565b506100a47fdf8b4c520ffe197c5343c6f5aec59570151ef9a492f2c624fd45ddde6135ec42336100ab565b5050610187565b6000828152602081815260408083206001600160a01b038516845290915281205460ff1661014d576000838152602081815260408083206001600160a01b03861684529091529020805460ff191660011790556101053390565b6001600160a01b0316826001600160a01b0316847f2f8788117e7eff1d82e926ec794901d17c78024a50270940304540a733656f0d60405160405180910390a4506001610151565b5060005b92915050565b60006020828403121561016957600080fd5b81516001600160401b038116811461018057600080fd5b9392505050565b611fb9806101966000396000f3fe608060405234801561001057600080fd5b50600436106101a95760003560e01c80635bd7ab11116100f9578063a217fddf11610097578063d547741f11610071578063d547741f146103dc578063e58378bb146103ef578063f2fde38b14610404578063ff7c8d901461041757600080fd5b8063a217fddf146103ae578063a89a57df146103b6578063a8c5dc33146103c957600080fd5b8063704b6c02116100d3578063704b6c021461036057806375b238fc146103735780638e9d660f1461038857806391d148541461039b57600080fd5b80635bd7ab11146103275780635d06edb51461033a578063697ad3c01461034d57600080fd5b8063248a9ca311610166578063332d56d711610140578063332d56d7146102ca57806336568abe146102ee578063507ffba514610301578063575982681461031457600080fd5b8063248a9ca31461027f5780632f2ff15d146102a257806330d0ea31146102b557600080fd5b806301ffc9a7146101ae57806302dbbbac146101d657806305ca8ee3146101eb578063107046bd146101fe5780631163efb91461021f57806323ed747e14610254575b600080fd5b6101c16101bc366004611674565b61042a565b60405190151581526020015b60405180910390f35b6101e96101e43660046116c1565b610461565b005b6101e96101f93660046116f1565b61049f565b61021161020c36600461170e565b6104e5565b6040516101cd92919061176d565b6102467ff322defc376bba64d27c59f0dffa3645eb556d2707692077ad37e9255bed73bb81565b6040519081526020016101cd565b61026761026236600461179b565b610611565b6040516001600160a01b0390911681526020016101cd565b61024661028d36600461170e565b60009081526020819052604090206001015490565b6101e96102b03660046117c5565b610649565b610246600080516020611f2483398151915281565b6102dd6102d83660046116c1565b610674565b6040516101cd9594939291906117f1565b6101e96102fc3660046117c5565b61073a565b6101e961030f3660046118ff565b610772565b61024661032236600461193b565b61096d565b6101e96103353660046116c1565b610bcb565b6101e96103483660046119cf565b610c17565b6101e961035b36600461179b565b610e3c565b6101e961036e3660046116c1565b610efa565b610246600080516020611f4483398151915281565b6101e96103963660046116c1565b610f34565b6101c16103a93660046117c5565b610f79565b610246600081565b6101e96103c436600461170e565b610fa2565b600354610267906001600160a01b031681565b6101e96103ea3660046117c5565b611280565b610246600080516020611f6483398151915281565b6101e96104123660046116c1565b6112a5565b6101c161042536600461170e565b6112f7565b60006001600160e01b03198216637965db0b60e01b148061045b57506301ffc9a760e01b6001600160e01b03198316145b92915050565b600080516020611f4483398151915261047a8133610f79565b61048357600080fd5b61049b600080516020611f2483398151915283610649565b5050565b600080516020611f648339815191526104b88133610f79565b6104c157600080fd5b506005805467ffffffffffffffff19166001600160401b0392909216919091179055565b60016020526000908152604090208054819061050090611a1c565b80601f016020809104026020016040519081016040528092919081815260200182805461052c90611a1c565b80156105795780601f1061054e57610100808354040283529160200191610579565b820191906000526020600020905b81548152906001019060200180831161055c57829003601f168201915b50505050509080600101805461058e90611a1c565b80601f01602080910402602001604051908101604052809291908181526020018280546105ba90611a1c565b80156106075780601f106105dc57610100808354040283529160200191610607565b820191906000526020600020905b8154815290600101906020018083116105ea57829003601f168201915b5050505050905082565b6007602052816000526040600020818154811061062d57600080fd5b6000918252602090912001546001600160a01b03169150829050565b6000828152602081905260409020600101546106648161130c565b61066e8383611319565b50505050565b600660205260009081526040902080546001820180546001600160a01b0390921692916106a090611a1c565b80601f01602080910402602001604051908101604052809291908181526020018280546106cc90611a1c565b80156107195780601f106106ee57610100808354040283529160200191610719565b820191906000526020600020905b8154815290600101906020018083116106fc57829003601f168201915b50505050600283015460038401546005909401549293909290915060ff1685565b6001600160a01b03811633146107635760405163334bd91960e11b815260040160405180910390fd5b61076d82826113ab565b505050565b3360009081526006602052604090206005015460ff16156107d05760405162461bcd60e51b81526020600482015260136024820152725573657220616c72656164792065786973747360681b60448201526064015b60405180910390fd5b6040518060c00160405280336001600160a01b03168152602001828152602001600081526020016000815260200160006001600160401b0381111561081757610817611834565b604051908082528060200260200182016040528015610840578160200160208202803683370190505b508152600160209182018190523360009081526006835260409020835181546001600160a01b0319166001600160a01b0390911617815591830151908201906108899082611a9e565b506040820151600282015560608201516003820155608082015180516108b99160048401916020909101906115fa565b5060a091909101516005909101805460ff19169115159190911790556004805460018101825560009182527f8a35acfbc15ff81a39ae7d344fd709f28e8600b4aa8c65c6b64bfe7fe36bd19b018054336001600160a01b0319909116811790915560408051838152602081019091527fac7fed168d3872be085baf5140f23ceffbd58cff62445621228347a4f86e47cb9284918190600160405161096296959493929190611b5c565b60405180910390a150565b6000600080516020611f248339815191526109888133610f79565b61099157600080fd5b61099f836040015133611416565b610a075760405162461bcd60e51b815260206004820152603360248201527f546869732075736572206e6f7420617574686f72697a656420746f206576616c6044820152723ab0ba32903a34329032bb30b63ab0ba32b29760691b60648201526084016107c7565b8251604080516001808252818301909252600091816020015b6060815260200190600190039081610a205790505060408087015181516001600160a01b0390911660208201529192500160405160208183030381529060405281600081518110610a7357610a73611be2565b6020026020010181905250600085604051602001610a919190611bf8565b60408051808303601f19018152610140830182526005546001600160401b031683526000602084018190528383018190526060840181905233608085015260a0840181905260c0840181905260e0840181905261010084018690526101208401829052600354925163b82916cb60e01b8152919450916001600160a01b03169063b82916cb90610b25908590600401611cb7565b6020604051808303816000875af1158015610b44573d6000803e3d6000fd5b505050506040513d601f19601f82011682018060405250810190610b689190611dd2565b6001600160401b031690507f6592f34fe53bf9bbd3b596f546db5a2a222a9ef7e90ce7f9e2c8489613741beb338960400151878b602001518c60600151604051610bb6959493929190611def565b60405180910390a19550505050505b50919050565b600080516020611f44833981519152610be48133610f79565b610bed57600080fd5b61049b7ff322defc376bba64d27c59f0dffa3645eb556d2707692077ad37e9255bed73bb83610649565b600080516020611f44833981519152610c308133610f79565b610c3957600080fd5b6001600160a01b03851660009081526006602052604090206005015460ff161515600114610ca05760405162461bcd60e51b81526020600482015260146024820152735573657220646f6573206e6f742065786973747360601b60448201526064016107c7565b6001600160a01b0385166000908152600660205260409020600301548414610d165760405162461bcd60e51b8152602060048201526024808201527f50726f6a65637420686173206e6f7420737461727465642062792074686973206044820152633ab9b2b960e11b60648201526084016107c7565b600082610d24576000610d26565b835b6001600160a01b038716600090815260066020526040812060020180549293508392909190610d56908490611e3f565b90915550506001600160a01b0386166000908152600660205260408120600301558015610df1576001600160a01b03861660008181526006602090815260408083206004018054600181018255908452928290209092018890558151928352820187905281018590527fab0cba6e6f4f659868746ec49ac3a984770e64f2da708d53203e4630e17daf8a9060600160405180910390a1610e34565b604080516001600160a01b0388168152602081018790527fa4d3f59fce00e6b46e27bdc2a6fe2341a5ed7a9fb4d755467194525263112b98910160405180910390a15b505050505050565b600080516020611f44833981519152610e558133610f79565b610e5e57600080fd5b6001600160a01b03831660009081526006602052604090206005015460ff161515600114610ec55760405162461bcd60e51b81526020600482015260146024820152735573657220646f6573206e6f742065786973747360601b60448201526064016107c7565b6001600160a01b03831660009081526006602052604081206002018054849290610ef0908490611e3f565b9091555050505050565b600080516020611f64833981519152610f138133610f79565b610f1c57600080fd5b61049b600080516020611f4483398151915283610649565b600080516020611f64833981519152610f4d8133610f79565b610f5657600080fd5b50600380546001600160a01b0319166001600160a01b0392909216919091179055565b6000918252602082815260408084206001600160a01b0393909316845291905290205460ff1690565b60005b60045481101561116a57336001600160a01b031660048281548110610fcc57610fcc611be2565b6000918252602090912001546001600160a01b0316146111625760006006600060048481548110610fff57610fff611be2565b60009182526020808320909101546001600160a01b0316835282810193909352604091820181206002908101543383526006909452918120909101549192509060649061104d90600a611e52565b6110579190611e7f565b33600090815260066020526040902060020154909150611078908290611e3f565b8211156110d45760086004848154811061109457611094611be2565b60009182526020808320909101548354600181018555938352912090910180546001600160a01b0319166001600160a01b0390921691909117905561115f565b336000908152600660205260409020600201546110f2908290611e93565b82101561110e57600a6004848154811061109457611094611be2565b60096004848154811061112357611123611be2565b60009182526020808320909101548354600181018555938352912090910180546001600160a01b0319166001600160a01b039092169190911790555b50505b600101610fa5565b50600854156111b757600854600090611182906114e0565b90506111b56008828154811061119a5761119a611be2565b6000918252602090912001546001600160a01b03163361153e565b505b600954156111e8576009546000906111ce906114e0565b90506111e66009828154811061119a5761119a611be2565b505b600a541561121957600a546000906111ff906114e0565b9050611217600a828154811061119a5761119a611be2565b505b61122560086000611645565b61123160096000611645565b61123d600a6000611645565b336000818152600760205260409081902090517f678658d9f1fe0c70d4af48cd4f90bedffba7c52b6c30d6510050749b1d6bc43e92610962929091859190611ea6565b60008281526020819052604090206001015461129b8161130c565b61066e83836113ab565b600080516020611f648339815191526112be8133610f79565b6112c757600080fd5b6112df600080516020611f6483398151915283610649565b61049b600080516020611f6483398151915233611280565b6000600254821115801561045b575050151590565b61131681336115c1565b50565b60006113258383610f79565b6113a3576000838152602081815260408083206001600160a01b03861684529091529020805460ff1916600117905561135b3390565b6001600160a01b0316826001600160a01b0316847f2f8788117e7eff1d82e926ec794901d17c78024a50270940304540a733656f0d60405160405180910390a450600161045b565b50600061045b565b60006113b78383610f79565b156113a3576000838152602081815260408083206001600160a01b0386168085529252808320805460ff1916905551339286917ff6391f5c32d9c69d2a47ea670b442974b53935d1edc7fd64eb21e047a839171b9190a450600161045b565b6001600160a01b03821660009081526007602090815260408083208054825181850281018501909352808352849383018282801561147d57602002820191906000526020600020905b81546001600160a01b0316815260019091019060200180831161145f575b5050505050905060005b81518110156114d557836001600160a01b03168282815181106114ac576114ac611be2565b60200260200101516001600160a01b0316036114cd5760019250505061045b565b600101611487565b506000949350505050565b60008142443360405160200161151b93929190928352602083019190915260601b6bffffffffffffffffffffffff1916604082015260540190565b6040516020818303038152906040528051906020012060001c61045b9190611f0f565b611556600080516020611f2483398151915283610649565b6115807ff322defc376bba64d27c59f0dffa3645eb556d2707692077ad37e9255bed73bb82610649565b6001600160a01b0390811660009081526007602090815260408220805460018101825590835291200180546001600160a01b03191692909116919091179055565b6115cb8282610f79565b61049b5760405163e2517d3f60e01b81526001600160a01b0382166004820152602481018390526044016107c7565b828054828255906000526020600020908101928215611635579160200282015b8281111561163557825182559160200191906001019061161a565b5061164192915061165f565b5090565b508054600082559060005260206000209081019061131691905b5b808211156116415760008155600101611660565b60006020828403121561168657600080fd5b81356001600160e01b03198116811461169e57600080fd5b9392505050565b80356001600160a01b03811681146116bc57600080fd5b919050565b6000602082840312156116d357600080fd5b61169e826116a5565b6001600160401b038116811461131657600080fd5b60006020828403121561170357600080fd5b813561169e816116dc565b60006020828403121561172057600080fd5b5035919050565b6000815180845260005b8181101561174d57602081850181015186830182015201611731565b506000602082860101526020601f19601f83011685010191505092915050565b6040815260006117806040830185611727565b82810360208401526117928185611727565b95945050505050565b600080604083850312156117ae57600080fd5b6117b7836116a5565b946020939093013593505050565b600080604083850312156117d857600080fd5b823591506117e8602084016116a5565b90509250929050565b6001600160a01b038616815260a06020820181905260009061181590830187611727565b6040830195909552506060810192909252151560809091015292915050565b634e487b7160e01b600052604160045260246000fd5b604051608081016001600160401b038111828210171561186c5761186c611834565b60405290565b600082601f83011261188357600080fd5b81356001600160401b0381111561189c5761189c611834565b604051601f8201601f19908116603f011681016001600160401b03811182821017156118ca576118ca611834565b6040528181528382016020018510156118e257600080fd5b816020850160208301376000918101602001919091529392505050565b60006020828403121561191157600080fd5b81356001600160401b0381111561192757600080fd5b61193384828501611872565b949350505050565b60006020828403121561194d57600080fd5b81356001600160401b0381111561196357600080fd5b82016080818503121561197557600080fd5b61197d61184a565b8135815260208083013590820152611997604083016116a5565b604082015260608201356001600160401b038111156119b557600080fd5b6119c186828501611872565b606083015250949350505050565b600080600080608085870312156119e557600080fd5b6119ee856116a5565b9350602085013592506040850135915060608501358015158114611a1157600080fd5b939692955090935050565b600181811c90821680611a3057607f821691505b602082108103610bc557634e487b7160e01b600052602260045260246000fd5b601f82111561076d57806000526020600020601f840160051c81016020851015611a775750805b601f840160051c820191505b81811015611a975760008155600101611a83565b5050505050565b81516001600160401b03811115611ab757611ab7611834565b611acb81611ac58454611a1c565b84611a50565b6020601f821160018114611aff5760008315611ae75750848201515b600019600385901b1c1916600184901b178455611a97565b600084815260208120601f198516915b82811015611b2f5787850151825560209485019460019092019101611b0f565b5084821015611b4d5786840151600019600387901b60f8161c191681555b50505050600190811b01905550565b6001600160a01b038716815260c060208201819052600090611b8090830188611727565b604083018790526060830186905282810360808401528451808252602080870192019060005b81811015611bc4578351835260209384019390920191600101611ba6565b505084151560a08501529150611bd79050565b979650505050505050565b634e487b7160e01b600052603260045260246000fd5b60208152815160208201526020820151604082015260018060a01b0360408301511660608201526000606083015160808084015261193360a0840182611727565b60048110611c5757634e487b7160e01b600052602160045260246000fd5b9052565b600082825180855260208501945060208160051b8301016020850160005b83811015611cab57601f19858403018852611c95838351611727565b6020988901989093509190910190600101611c79565b50909695505050505050565b60808152611cd16080820183516001600160401b03169052565b60006020830151611ced60a08401826001600160401b03169052565b5060408301516001600160401b0390811660c0848101919091526060850151821660e085015260808501516001600160a01b031661010085015260a0850151909116610120840152830151611d46610140840182611c39565b5060e08301511515610160830152610100830151610140610180840152611d716101c0840182611c5b565b9050610120840151607f19848303016101a0850152611d908282611727565b9150508281036020840152611da9816000815260200190565b838103604085015260008152905060208101838103606085015260008152905060208101611933565b600060208284031215611de457600080fd5b815161169e816116dc565b6001600160a01b03868116825285166020820152604081018490526060810183905260a060808201819052600090611bd790830184611727565b634e487b7160e01b600052601160045260246000fd5b8082018082111561045b5761045b611e29565b808202811582820484141761045b5761045b611e29565b634e487b7160e01b600052601260045260246000fd5b600082611e8e57611e8e611e69565b500490565b8181038181111561045b5761045b611e29565b6001600160a01b0384168152602080820184905260606040830181905283549083018190526000848152918220906080840190835b81811015611f025783546001600160a01b0316835260019384019360209093019201611edb565b5090979650505050505050565b600082611f1e57611f1e611e69565b50069056fe004f13fa3e85221cae6e297e754a8ab58b2ac55382b0b17ca3d53370d4f56335df8b4c520ffe197c5343c6f5aec59570151ef9a492f2c624fd45ddde6135ec426270edb7c868f86fda4adedba75108201087268ea345934db8bad688e1feb91ba264697066735822122044a61fb4a95c129b83499886c6d2d080bf283278074b40b10578b74ee8b4192464736f6c634300081b0033",
          "opcodes": "PUSH1 0x80 PUSH1 0x40 MSTORE CALLVALUE DUP1 ISZERO PUSH2 0x10 JUMPI PUSH1 0x0 DUP1 REVERT JUMPDEST POP PUSH1 0x40 MLOAD PUSH2 0x214F CODESIZE SUB DUP1 PUSH2 0x214F DUP4 CODECOPY DUP2 ADD PUSH1 0x40 DUP2 SWAP1 MSTORE PUSH2 0x2F SWAP2 PUSH2 0x157 JUMP JUMPDEST PUSH1 0x5 DUP1 SLOAD PUSH1 0x1 PUSH1 0x1 PUSH1 0x40 SHL SUB NOT AND PUSH1 0x1 PUSH1 0x1 PUSH1 0x40 SHL SUB DUP4 AND OR SWAP1 SSTORE PUSH1 0x0 PUSH1 0x2 SSTORE PUSH2 0x79 PUSH32 0x6270EDB7C868F86FDA4ADEDBA75108201087268EA345934DB8BAD688E1FEB91B CALLER PUSH2 0xAB JUMP JUMPDEST POP PUSH2 0xA4 PUSH32 0xDF8B4C520FFE197C5343C6F5AEC59570151EF9A492F2C624FD45DDDE6135EC42 CALLER PUSH2 0xAB JUMP JUMPDEST POP POP PUSH2 0x187 JUMP JUMPDEST PUSH1 0x0 DUP3 DUP2 MSTORE PUSH1 0x20 DUP2 DUP2 MSTORE PUSH1 0x40 DUP1 DUP4 KECCAK256 PUSH1 0x1 PUSH1 0x1 PUSH1 0xA0 SHL SUB DUP6 AND DUP5 MSTORE SWAP1 SWAP2 MSTORE DUP2 KECCAK256 SLOAD PUSH1 0xFF AND PUSH2 0x14D JUMPI PUSH1 0x0 DUP4 DUP2 MSTORE PUSH1 0x20 DUP2 DUP2 MSTORE PUSH1 0x40 DUP1 DUP4 KECCAK256 PUSH1 0x1 PUSH1 0x1 PUSH1 0xA0 SHL SUB DUP7 AND DUP5 MSTORE SWAP1 SWAP2 MSTORE SWAP1 KECCAK256 DUP1 SLOAD PUSH1 0xFF NOT AND PUSH1 0x1 OR SWAP1 SSTORE PUSH2 0x105 CALLER SWAP1 JUMP JUMPDEST PUSH1 0x1 PUSH1 0x1 PUSH1 0xA0 SHL SUB AND DUP3 PUSH1 0x1 PUSH1 0x1 PUSH1 0xA0 SHL SUB AND DUP5 PUSH32 0x2F8788117E7EFF1D82E926EC794901D17C78024A50270940304540A733656F0D PUSH1 0x40 MLOAD PUSH1 0x40 MLOAD DUP1 SWAP2 SUB SWAP1 LOG4 POP PUSH1 0x1 PUSH2 0x151 JUMP JUMPDEST POP PUSH1 0x0 JUMPDEST SWAP3 SWAP2 POP POP JUMP JUMPDEST PUSH1 0x0 PUSH1 0x20 DUP3 DUP5 SUB SLT ISZERO PUSH2 0x169 JUMPI PUSH1 0x0 DUP1 REVERT JUMPDEST DUP2 MLOAD PUSH1 0x1 PUSH1 0x1 PUSH1 0x40 SHL SUB DUP2 AND DUP2 EQ PUSH2 0x180 JUMPI PUSH1 0x0 DUP1 REVERT JUMPDEST SWAP4 SWAP3 POP POP POP JUMP JUMPDEST PUSH2 0x1FB9 DUP1 PUSH2 0x196 PUSH1 0x0 CODECOPY PUSH1 0x0 RETURN INVALID PUSH1 0x80 PUSH1 0x40 MSTORE CALLVALUE DUP1 ISZERO PUSH2 0x10 JUMPI PUSH1 0x0 DUP1 REVERT JUMPDEST POP PUSH1 0x4 CALLDATASIZE LT PUSH2 0x1A9 JUMPI PUSH1 0x0 CALLDATALOAD PUSH1 0xE0 SHR DUP1 PUSH4 0x5BD7AB11 GT PUSH2 0xF9 JUMPI DUP1 PUSH4 0xA217FDDF GT PUSH2 0x97 JUMPI DUP1 PUSH4 0xD547741F GT PUSH2 0x71 JUMPI DUP1 PUSH4 0xD547741F EQ PUSH2 0x3DC JUMPI DUP1 PUSH4 0xE58378BB EQ PUSH2 0x3EF JUMPI DUP1 PUSH4 0xF2FDE38B EQ PUSH2 0x404 JUMPI DUP1 PUSH4 0xFF7C8D90 EQ PUSH2 0x417 JUMPI PUSH1 0x0 DUP1 REVERT JUMPDEST DUP1 PUSH4 0xA217FDDF EQ PUSH2 0x3AE JUMPI DUP1 PUSH4 0xA89A57DF EQ PUSH2 0x3B6 JUMPI DUP1 PUSH4 0xA8C5DC33 EQ PUSH2 0x3C9 JUMPI PUSH1 0x0 DUP1 REVERT JUMPDEST DUP1 PUSH4 0x704B6C02 GT PUSH2 0xD3 JUMPI DUP1 PUSH4 0x704B6C02 EQ PUSH2 0x360 JUMPI DUP1 PUSH4 0x75B238FC EQ PUSH2 0x373 JUMPI DUP1 PUSH4 0x8E9D660F EQ PUSH2 0x388 JUMPI DUP1 PUSH4 0x91D14854 EQ PUSH2 0x39B JUMPI PUSH1 0x0 DUP1 REVERT JUMPDEST DUP1 PUSH4 0x5BD7AB11 EQ PUSH2 0x327 JUMPI DUP1 PUSH4 0x5D06EDB5 EQ PUSH2 0x33A JUMPI DUP1 PUSH4 0x697AD3C0 EQ PUSH2 0x34D JUMPI PUSH1 0x0 DUP1 REVERT JUMPDEST DUP1 PUSH4 0x248A9CA3 GT PUSH2 0x166 JUMPI DUP1 PUSH4 0x332D56D7 GT PUSH2 0x140 JUMPI DUP1 PUSH4 0x332D56D7 EQ PUSH2 0x2CA JUMPI DUP1 PUSH4 0x36568ABE EQ PUSH2 0x2EE JUMPI DUP1 PUSH4 0x507FFBA5 EQ PUSH2 0x301 JUMPI DUP1 PUSH4 0x57598268 EQ PUSH2 0x314 JUMPI PUSH1 0x0 DUP1 REVERT JUMPDEST DUP1 PUSH4 0x248A9CA3 EQ PUSH2 0x27F JUMPI DUP1 PUSH4 0x2F2FF15D EQ PUSH2 0x2A2 JUMPI DUP1 PUSH4 0x30D0EA31 EQ PUSH2 0x2B5 JUMPI PUSH1 0x0 DUP1 REVERT JUMPDEST DUP1 PUSH4 0x1FFC9A7 EQ PUSH2 0x1AE JUMPI DUP1 PUSH4 0x2DBBBAC EQ PUSH2 0x1D6 JUMPI DUP1 PUSH4 0x5CA8EE3 EQ PUSH2 0x1EB JUMPI DUP1 PUSH4 0x107046BD EQ PUSH2 0x1FE JUMPI DUP1 PUSH4 0x1163EFB9 EQ PUSH2 0x21F JUMPI DUP1 PUSH4 0x23ED747E EQ PUSH2 0x254 JUMPI JUMPDEST PUSH1 0x0 DUP1 REVERT JUMPDEST PUSH2 0x1C1 PUSH2 0x1BC CALLDATASIZE PUSH1 0x4 PUSH2 0x1674 JUMP JUMPDEST PUSH2 0x42A JUMP JUMPDEST PUSH1 0x40 MLOAD SWAP1 ISZERO ISZERO DUP2 MSTORE PUSH1 0x20 ADD JUMPDEST PUSH1 0x40 MLOAD DUP1 SWAP2 SUB SWAP1 RETURN JUMPDEST PUSH2 0x1E9 PUSH2 0x1E4 CALLDATASIZE PUSH1 0x4 PUSH2 0x16C1 JUMP JUMPDEST PUSH2 0x461 JUMP JUMPDEST STOP JUMPDEST PUSH2 0x1E9 PUSH2 0x1F9 CALLDATASIZE PUSH1 0x4 PUSH2 0x16F1 JUMP JUMPDEST PUSH2 0x49F JUMP JUMPDEST PUSH2 0x211 PUSH2 0x20C CALLDATASIZE PUSH1 0x4 PUSH2 0x170E JUMP JUMPDEST PUSH2 0x4E5 JUMP JUMPDEST PUSH1 0x40 MLOAD PUSH2 0x1CD SWAP3 SWAP2 SWAP1 PUSH2 0x176D JUMP JUMPDEST PUSH2 0x246 PUSH32 0xF322DEFC376BBA64D27C59F0DFFA3645EB556D2707692077AD37E9255BED73BB DUP2 JUMP JUMPDEST PUSH1 0x40 MLOAD SWAP1 DUP2 MSTORE PUSH1 0x20 ADD PUSH2 0x1CD JUMP JUMPDEST PUSH2 0x267 PUSH2 0x262 CALLDATASIZE PUSH1 0x4 PUSH2 0x179B JUMP JUMPDEST PUSH2 0x611 JUMP JUMPDEST PUSH1 0x40 MLOAD PUSH1 0x1 PUSH1 0x1 PUSH1 0xA0 SHL SUB SWAP1 SWAP2 AND DUP2 MSTORE PUSH1 0x20 ADD PUSH2 0x1CD JUMP JUMPDEST PUSH2 0x246 PUSH2 0x28D CALLDATASIZE PUSH1 0x4 PUSH2 0x170E JUMP JUMPDEST PUSH1 0x0 SWAP1 DUP2 MSTORE PUSH1 0x20 DUP2 SWAP1 MSTORE PUSH1 0x40 SWAP1 KECCAK256 PUSH1 0x1 ADD SLOAD SWAP1 JUMP JUMPDEST PUSH2 0x1E9 PUSH2 0x2B0 CALLDATASIZE PUSH1 0x4 PUSH2 0x17C5 JUMP JUMPDEST PUSH2 0x649 JUMP JUMPDEST PUSH2 0x246 PUSH1 0x0 DUP1 MLOAD PUSH1 0x20 PUSH2 0x1F24 DUP4 CODECOPY DUP2 MLOAD SWAP2 MSTORE DUP2 JUMP JUMPDEST PUSH2 0x2DD PUSH2 0x2D8 CALLDATASIZE PUSH1 0x4 PUSH2 0x16C1 JUMP JUMPDEST PUSH2 0x674 JUMP JUMPDEST PUSH1 0x40 MLOAD PUSH2 0x1CD SWAP6 SWAP5 SWAP4 SWAP3 SWAP2 SWAP1 PUSH2 0x17F1 JUMP JUMPDEST PUSH2 0x1E9 PUSH2 0x2FC CALLDATASIZE PUSH1 0x4 PUSH2 0x17C5 JUMP JUMPDEST PUSH2 0x73A JUMP JUMPDEST PUSH2 0x1E9 PUSH2 0x30F CALLDATASIZE PUSH1 0x4 PUSH2 0x18FF JUMP JUMPDEST PUSH2 0x772 JUMP JUMPDEST PUSH2 0x246 PUSH2 0x322 CALLDATASIZE PUSH1 0x4 PUSH2 0x193B JUMP JUMPDEST PUSH2 0x96D JUMP JUMPDEST PUSH2 0x1E9 PUSH2 0x335 CALLDATASIZE PUSH1 0x4 PUSH2 0x16C1 JUMP JUMPDEST PUSH2 0xBCB JUMP JUMPDEST PUSH2 0x1E9 PUSH2 0x348 CALLDATASIZE PUSH1 0x4 PUSH2 0x19CF JUMP JUMPDEST PUSH2 0xC17 JUMP JUMPDEST PUSH2 0x1E9 PUSH2 0x35B CALLDATASIZE PUSH1 0x4 PUSH2 0x179B JUMP JUMPDEST PUSH2 0xE3C JUMP JUMPDEST PUSH2 0x1E9 PUSH2 0x36E CALLDATASIZE PUSH1 0x4 PUSH2 0x16C1 JUMP JUMPDEST PUSH2 0xEFA JUMP JUMPDEST PUSH2 0x246 PUSH1 0x0 DUP1 MLOAD PUSH1 0x20 PUSH2 0x1F44 DUP4 CODECOPY DUP2 MLOAD SWAP2 MSTORE DUP2 JUMP JUMPDEST PUSH2 0x1E9 PUSH2 0x396 CALLDATASIZE PUSH1 0x4 PUSH2 0x16C1 JUMP JUMPDEST PUSH2 0xF34 JUMP JUMPDEST PUSH2 0x1C1 PUSH2 0x3A9 CALLDATASIZE PUSH1 0x4 PUSH2 0x17C5 JUMP JUMPDEST PUSH2 0xF79 JUMP JUMPDEST PUSH2 0x246 PUSH1 0x0 DUP2 JUMP JUMPDEST PUSH2 0x1E9 PUSH2 0x3C4 CALLDATASIZE PUSH1 0x4 PUSH2 0x170E JUMP JUMPDEST PUSH2 0xFA2 JUMP JUMPDEST PUSH1 0x3 SLOAD PUSH2 0x267 SWAP1 PUSH1 0x1 PUSH1 0x1 PUSH1 0xA0 SHL SUB AND DUP2 JUMP JUMPDEST PUSH2 0x1E9 PUSH2 0x3EA CALLDATASIZE PUSH1 0x4 PUSH2 0x17C5 JUMP JUMPDEST PUSH2 0x1280 JUMP JUMPDEST PUSH2 0x246 PUSH1 0x0 DUP1 MLOAD PUSH1 0x20 PUSH2 0x1F64 DUP4 CODECOPY DUP2 MLOAD SWAP2 MSTORE DUP2 JUMP JUMPDEST PUSH2 0x1E9 PUSH2 0x412 CALLDATASIZE PUSH1 0x4 PUSH2 0x16C1 JUMP JUMPDEST PUSH2 0x12A5 JUMP JUMPDEST PUSH2 0x1C1 PUSH2 0x425 CALLDATASIZE PUSH1 0x4 PUSH2 0x170E JUMP JUMPDEST PUSH2 0x12F7 JUMP JUMPDEST PUSH1 0x0 PUSH1 0x1 PUSH1 0x1 PUSH1 0xE0 SHL SUB NOT DUP3 AND PUSH4 0x7965DB0B PUSH1 0xE0 SHL EQ DUP1 PUSH2 0x45B JUMPI POP PUSH4 0x1FFC9A7 PUSH1 0xE0 SHL PUSH1 0x1 PUSH1 0x1 PUSH1 0xE0 SHL SUB NOT DUP4 AND EQ JUMPDEST SWAP3 SWAP2 POP POP JUMP JUMPDEST PUSH1 0x0 DUP1 MLOAD PUSH1 0x20 PUSH2 0x1F44 DUP4 CODECOPY DUP2 MLOAD SWAP2 MSTORE PUSH2 0x47A DUP2 CALLER PUSH2 0xF79 JUMP JUMPDEST PUSH2 0x483 JUMPI PUSH1 0x0 DUP1 REVERT JUMPDEST PUSH2 0x49B PUSH1 0x0 DUP1 MLOAD PUSH1 0x20 PUSH2 0x1F24 DUP4 CODECOPY DUP2 MLOAD SWAP2 MSTORE DUP4 PUSH2 0x649 JUMP JUMPDEST POP POP JUMP JUMPDEST PUSH1 0x0 DUP1 MLOAD PUSH1 0x20 PUSH2 0x1F64 DUP4 CODECOPY DUP2 MLOAD SWAP2 MSTORE PUSH2 0x4B8 DUP2 CALLER PUSH2 0xF79 JUMP JUMPDEST PUSH2 0x4C1 JUMPI PUSH1 0x0 DUP1 REVERT JUMPDEST POP PUSH1 0x5 DUP1 SLOAD PUSH8 0xFFFFFFFFFFFFFFFF NOT AND PUSH1 0x1 PUSH1 0x1 PUSH1 0x40 SHL SUB SWAP3 SWAP1 SWAP3 AND SWAP2 SWAP1 SWAP2 OR SWAP1 SSTORE JUMP JUMPDEST PUSH1 0x1 PUSH1 0x20 MSTORE PUSH1 0x0 SWAP1 DUP2 MSTORE PUSH1 0x40 SWAP1 KECCAK256 DUP1 SLOAD DUP2 SWAP1 PUSH2 0x500 SWAP1 PUSH2 0x1A1C JUMP JUMPDEST DUP1 PUSH1 0x1F ADD PUSH1 0x20 DUP1 SWAP2 DIV MUL PUSH1 0x20 ADD PUSH1 0x40 MLOAD SWAP1 DUP2 ADD PUSH1 0x40 MSTORE DUP1 SWAP3 SWAP2 SWAP1 DUP2 DUP2 MSTORE PUSH1 0x20 ADD DUP3 DUP1 SLOAD PUSH2 0x52C SWAP1 PUSH2 0x1A1C JUMP JUMPDEST DUP1 ISZERO PUSH2 0x579 JUMPI DUP1 PUSH1 0x1F LT PUSH2 0x54E JUMPI PUSH2 0x100 DUP1 DUP4 SLOAD DIV MUL DUP4 MSTORE SWAP2 PUSH1 0x20 ADD SWAP2 PUSH2 0x579 JUMP JUMPDEST DUP3 ADD SWAP2 SWAP1 PUSH1 0x0 MSTORE PUSH1 0x20 PUSH1 0x0 KECCAK256 SWAP1 JUMPDEST DUP2 SLOAD DUP2 MSTORE SWAP1 PUSH1 0x1 ADD SWAP1 PUSH1 0x20 ADD DUP1 DUP4 GT PUSH2 0x55C JUMPI DUP3 SWAP1 SUB PUSH1 0x1F AND DUP3 ADD SWAP2 JUMPDEST POP POP POP POP POP SWAP1 DUP1 PUSH1 0x1 ADD DUP1 SLOAD PUSH2 0x58E SWAP1 PUSH2 0x1A1C JUMP JUMPDEST DUP1 PUSH1 0x1F ADD PUSH1 0x20 DUP1 SWAP2 DIV MUL PUSH1 0x20 ADD PUSH1 0x40 MLOAD SWAP1 DUP2 ADD PUSH1 0x40 MSTORE DUP1 SWAP3 SWAP2 SWAP1 DUP2 DUP2 MSTORE PUSH1 0x20 ADD DUP3 DUP1 SLOAD PUSH2 0x5BA SWAP1 PUSH2 0x1A1C JUMP JUMPDEST DUP1 ISZERO PUSH2 0x607 JUMPI DUP1 PUSH1 0x1F LT PUSH2 0x5DC JUMPI PUSH2 0x100 DUP1 DUP4 SLOAD DIV MUL DUP4 MSTORE SWAP2 PUSH1 0x20 ADD SWAP2 PUSH2 0x607 JUMP JUMPDEST DUP3 ADD SWAP2 SWAP1 PUSH1 0x0 MSTORE PUSH1 0x20 PUSH1 0x0 KECCAK256 SWAP1 JUMPDEST DUP2 SLOAD DUP2 MSTORE SWAP1 PUSH1 0x1 ADD SWAP1 PUSH1 0x20 ADD DUP1 DUP4 GT PUSH2 0x5EA JUMPI DUP3 SWAP1 SUB PUSH1 0x1F AND DUP3 ADD SWAP2 JUMPDEST POP POP POP POP POP SWAP1 POP DUP3 JUMP JUMPDEST PUSH1 0x7 PUSH1 0x20 MSTORE DUP2 PUSH1 0x0 MSTORE PUSH1 0x40 PUSH1 0x0 KECCAK256 DUP2 DUP2 SLOAD DUP2 LT PUSH2 0x62D JUMPI PUSH1 0x0 DUP1 REVERT JUMPDEST PUSH1 0x0 SWAP2 DUP3 MSTORE PUSH1 0x20 SWAP1 SWAP2 KECCAK256 ADD SLOAD PUSH1 0x1 PUSH1 0x1 PUSH1 0xA0 SHL SUB AND SWAP2 POP DUP3 SWAP1 POP JUMP JUMPDEST PUSH1 0x0 DUP3 DUP2 MSTORE PUSH1 0x20 DUP2 SWAP1 MSTORE PUSH1 0x40 SWAP1 KECCAK256 PUSH1 0x1 ADD SLOAD PUSH2 0x664 DUP2 PUSH2 0x130C JUMP JUMPDEST PUSH2 0x66E DUP4 DUP4 PUSH2 0x1319 JUMP JUMPDEST POP POP POP POP JUMP JUMPDEST PUSH1 0x6 PUSH1 0x20 MSTORE PUSH1 0x0 SWAP1 DUP2 MSTORE PUSH1 0x40 SWAP1 KECCAK256 DUP1 SLOAD PUSH1 0x1 DUP3 ADD DUP1 SLOAD PUSH1 0x1 PUSH1 0x1 PUSH1 0xA0 SHL SUB SWAP1 SWAP3 AND SWAP3 SWAP2 PUSH2 0x6A0 SWAP1 PUSH2 0x1A1C JUMP JUMPDEST DUP1 PUSH1 0x1F ADD PUSH1 0x20 DUP1 SWAP2 DIV MUL PUSH1 0x20 ADD PUSH1 0x40 MLOAD SWAP1 DUP2 ADD PUSH1 0x40 MSTORE DUP1 SWAP3 SWAP2 SWAP1 DUP2 DUP2 MSTORE PUSH1 0x20 ADD DUP3 DUP1 SLOAD PUSH2 0x6CC SWAP1 PUSH2 0x1A1C JUMP JUMPDEST DUP1 ISZERO PUSH2 0x719 JUMPI DUP1 PUSH1 0x1F LT PUSH2 0x6EE JUMPI PUSH2 0x100 DUP1 DUP4 SLOAD DIV MUL DUP4 MSTORE SWAP2 PUSH1 0x20 ADD SWAP2 PUSH2 0x719 JUMP JUMPDEST DUP3 ADD SWAP2 SWAP1 PUSH1 0x0 MSTORE PUSH1 0x20 PUSH1 0x0 KECCAK256 SWAP1 JUMPDEST DUP2 SLOAD DUP2 MSTORE SWAP1 PUSH1 0x1 ADD SWAP1 PUSH1 0x20 ADD DUP1 DUP4 GT PUSH2 0x6FC JUMPI DUP3 SWAP1 SUB PUSH1 0x1F AND DUP3 ADD SWAP2 JUMPDEST POP POP POP POP PUSH1 0x2 DUP4 ADD SLOAD PUSH1 0x3 DUP5 ADD SLOAD PUSH1 0x5 SWAP1 SWAP5 ADD SLOAD SWAP3 SWAP4 SWAP1 SWAP3 SWAP1 SWAP2 POP PUSH1 0xFF AND DUP6 JUMP JUMPDEST PUSH1 0x1 PUSH1 0x1 PUSH1 0xA0 SHL SUB DUP2 AND CALLER EQ PUSH2 0x763 JUMPI PUSH1 0x40 MLOAD PUSH4 0x334BD919 PUSH1 0xE1 SHL DUP2 MSTORE PUSH1 0x4 ADD PUSH1 0x40 MLOAD DUP1 SWAP2 SUB SWAP1 REVERT JUMPDEST PUSH2 0x76D DUP3 DUP3 PUSH2 0x13AB JUMP JUMPDEST POP POP POP JUMP JUMPDEST CALLER PUSH1 0x0 SWAP1 DUP2 MSTORE PUSH1 0x6 PUSH1 0x20 MSTORE PUSH1 0x40 SWAP1 KECCAK256 PUSH1 0x5 ADD SLOAD PUSH1 0xFF AND ISZERO PUSH2 0x7D0 JUMPI PUSH1 0x40 MLOAD PUSH3 0x461BCD PUSH1 0xE5 SHL DUP2 MSTORE PUSH1 0x20 PUSH1 0x4 DUP3 ADD MSTORE PUSH1 0x13 PUSH1 0x24 DUP3 ADD MSTORE PUSH19 0x5573657220616C726561647920657869737473 PUSH1 0x68 SHL PUSH1 0x44 DUP3 ADD MSTORE PUSH1 0x64 ADD JUMPDEST PUSH1 0x40 MLOAD DUP1 SWAP2 SUB SWAP1 REVERT JUMPDEST PUSH1 0x40 MLOAD DUP1 PUSH1 0xC0 ADD PUSH1 0x40 MSTORE DUP1 CALLER PUSH1 0x1 PUSH1 0x1 PUSH1 0xA0 SHL SUB AND DUP2 MSTORE PUSH1 0x20 ADD DUP3 DUP2 MSTORE PUSH1 0x20 ADD PUSH1 0x0 DUP2 MSTORE PUSH1 0x20 ADD PUSH1 0x0 DUP2 MSTORE PUSH1 0x20 ADD PUSH1 0x0 PUSH1 0x1 PUSH1 0x1 PUSH1 0x40 SHL SUB DUP2 GT ISZERO PUSH2 0x817 JUMPI PUSH2 0x817 PUSH2 0x1834 JUMP JUMPDEST PUSH1 0x40 MLOAD SWAP1 DUP1 DUP3 MSTORE DUP1 PUSH1 0x20 MUL PUSH1 0x20 ADD DUP3 ADD PUSH1 0x40 MSTORE DUP1 ISZERO PUSH2 0x840 JUMPI DUP2 PUSH1 0x20 ADD PUSH1 0x20 DUP3 MUL DUP1 CALLDATASIZE DUP4 CALLDATACOPY ADD SWAP1 POP JUMPDEST POP DUP2 MSTORE PUSH1 0x1 PUSH1 0x20 SWAP2 DUP3 ADD DUP2 SWAP1 MSTORE CALLER PUSH1 0x0 SWAP1 DUP2 MSTORE PUSH1 0x6 DUP4 MSTORE PUSH1 0x40 SWAP1 KECCAK256 DUP4 MLOAD DUP2 SLOAD PUSH1 0x1 PUSH1 0x1 PUSH1 0xA0 SHL SUB NOT AND PUSH1 0x1 PUSH1 0x1 PUSH1 0xA0 SHL SUB SWAP1 SWAP2 AND OR DUP2 SSTORE SWAP2 DUP4 ADD MLOAD SWAP1 DUP3 ADD SWAP1 PUSH2 0x889 SWAP1 DUP3 PUSH2 0x1A9E JUMP JUMPDEST POP PUSH1 0x40 DUP3 ADD MLOAD PUSH1 0x2 DUP3 ADD SSTORE PUSH1 0x60 DUP3 ADD MLOAD PUSH1 0x3 DUP3 ADD SSTORE PUSH1 0x80 DUP3 ADD MLOAD DUP1 MLOAD PUSH2 0x8B9 SWAP2 PUSH1 0x4 DUP5 ADD SWAP2 PUSH1 0x20 SWAP1 SWAP2 ADD SWAP1 PUSH2 0x15FA JUMP JUMPDEST POP PUSH1 0xA0 SWAP2 SWAP1 SWAP2 ADD MLOAD PUSH1 0x5 SWAP1 SWAP2 ADD DUP1 SLOAD PUSH1 0xFF NOT AND SWAP2 ISZERO ISZERO SWAP2 SWAP1 SWAP2 OR SWAP1 SSTORE PUSH1 0x4 DUP1 SLOAD PUSH1 0x1 DUP2 ADD DUP3 SSTORE PUSH1 0x0 SWAP2 DUP3 MSTORE PUSH32 0x8A35ACFBC15FF81A39AE7D344FD709F28E8600B4AA8C65C6B64BFE7FE36BD19B ADD DUP1 SLOAD CALLER PUSH1 0x1 PUSH1 0x1 PUSH1 0xA0 SHL SUB NOT SWAP1 SWAP2 AND DUP2 OR SWAP1 SWAP2 SSTORE PUSH1 0x40 DUP1 MLOAD DUP4 DUP2 MSTORE PUSH1 0x20 DUP2 ADD SWAP1 SWAP2 MSTORE PUSH32 0xAC7FED168D3872BE085BAF5140F23CEFFBD58CFF62445621228347A4F86E47CB SWAP3 DUP5 SWAP2 DUP2 SWAP1 PUSH1 0x1 PUSH1 0x40 MLOAD PUSH2 0x962 SWAP7 SWAP6 SWAP5 SWAP4 SWAP3 SWAP2 SWAP1 PUSH2 0x1B5C JUMP JUMPDEST PUSH1 0x40 MLOAD DUP1 SWAP2 SUB SWAP1 LOG1 POP JUMP JUMPDEST PUSH1 0x0 PUSH1 0x0 DUP1 MLOAD PUSH1 0x20 PUSH2 0x1F24 DUP4 CODECOPY DUP2 MLOAD SWAP2 MSTORE PUSH2 0x988 DUP2 CALLER PUSH2 0xF79 JUMP JUMPDEST PUSH2 0x991 JUMPI PUSH1 0x0 DUP1 REVERT JUMPDEST PUSH2 0x99F DUP4 PUSH1 0x40 ADD MLOAD CALLER PUSH2 0x1416 JUMP JUMPDEST PUSH2 0xA07 JUMPI PUSH1 0x40 MLOAD PUSH3 0x461BCD PUSH1 0xE5 SHL DUP2 MSTORE PUSH1 0x20 PUSH1 0x4 DUP3 ADD MSTORE PUSH1 0x33 PUSH1 0x24 DUP3 ADD MSTORE PUSH32 0x546869732075736572206E6F7420617574686F72697A656420746F206576616C PUSH1 0x44 DUP3 ADD MSTORE PUSH19 0x3AB0BA32903A34329032BB30B63AB0BA32B297 PUSH1 0x69 SHL PUSH1 0x64 DUP3 ADD MSTORE PUSH1 0x84 ADD PUSH2 0x7C7 JUMP JUMPDEST DUP3 MLOAD PUSH1 0x40 DUP1 MLOAD PUSH1 0x1 DUP1 DUP3 MSTORE DUP2 DUP4 ADD SWAP1 SWAP3 MSTORE PUSH1 0x0 SWAP2 DUP2 PUSH1 0x20 ADD JUMPDEST PUSH1 0x60 DUP2 MSTORE PUSH1 0x20 ADD SWAP1 PUSH1 0x1 SWAP1 SUB SWAP1 DUP2 PUSH2 0xA20 JUMPI SWAP1 POP POP PUSH1 0x40 DUP1 DUP8 ADD MLOAD DUP2 MLOAD PUSH1 0x1 PUSH1 0x1 PUSH1 0xA0 SHL SUB SWAP1 SWAP2 AND PUSH1 0x20 DUP3 ADD MSTORE SWAP2 SWAP3 POP ADD PUSH1 0x40 MLOAD PUSH1 0x20 DUP2 DUP4 SUB SUB DUP2 MSTORE SWAP1 PUSH1 0x40 MSTORE DUP2 PUSH1 0x0 DUP2 MLOAD DUP2 LT PUSH2 0xA73 JUMPI PUSH2 0xA73 PUSH2 0x1BE2 JUMP JUMPDEST PUSH1 0x20 MUL PUSH1 0x20 ADD ADD DUP2 SWAP1 MSTORE POP PUSH1 0x0 DUP6 PUSH1 0x40 MLOAD PUSH1 0x20 ADD PUSH2 0xA91 SWAP2 SWAP1 PUSH2 0x1BF8 JUMP JUMPDEST PUSH1 0x40 DUP1 MLOAD DUP1 DUP4 SUB PUSH1 0x1F NOT ADD DUP2 MSTORE PUSH2 0x140 DUP4 ADD DUP3 MSTORE PUSH1 0x5 SLOAD PUSH1 0x1 PUSH1 0x1 PUSH1 0x40 SHL SUB AND DUP4 MSTORE PUSH1 0x0 PUSH1 0x20 DUP5 ADD DUP2 SWAP1 MSTORE DUP4 DUP4 ADD DUP2 SWAP1 MSTORE PUSH1 0x60 DUP5 ADD DUP2 SWAP1 MSTORE CALLER PUSH1 0x80 DUP6 ADD MSTORE PUSH1 0xA0 DUP5 ADD DUP2 SWAP1 MSTORE PUSH1 0xC0 DUP5 ADD DUP2 SWAP1 MSTORE PUSH1 0xE0 DUP5 ADD DUP2 SWAP1 MSTORE PUSH2 0x100 DUP5 ADD DUP7 SWAP1 MSTORE PUSH2 0x120 DUP5 ADD DUP3 SWAP1 MSTORE PUSH1 0x3 SLOAD SWAP3 MLOAD PUSH4 0xB82916CB PUSH1 0xE0 SHL DUP2 MSTORE SWAP2 SWAP5 POP SWAP2 PUSH1 0x1 PUSH1 0x1 PUSH1 0xA0 SHL SUB AND SWAP1 PUSH4 0xB82916CB SWAP1 PUSH2 0xB25 SWAP1 DUP6 SWAP1 PUSH1 0x4 ADD PUSH2 0x1CB7 JUMP JUMPDEST PUSH1 0x20 PUSH1 0x40 MLOAD DUP1 DUP4 SUB DUP2 PUSH1 0x0 DUP8 GAS CALL ISZERO DUP1 ISZERO PUSH2 0xB44 JUMPI RETURNDATASIZE PUSH1 0x0 DUP1 RETURNDATACOPY RETURNDATASIZE PUSH1 0x0 REVERT JUMPDEST POP POP POP POP PUSH1 0x40 MLOAD RETURNDATASIZE PUSH1 0x1F NOT PUSH1 0x1F DUP3 ADD AND DUP3 ADD DUP1 PUSH1 0x40 MSTORE POP DUP2 ADD SWAP1 PUSH2 0xB68 SWAP2 SWAP1 PUSH2 0x1DD2 JUMP JUMPDEST PUSH1 0x1 PUSH1 0x1 PUSH1 0x40 SHL SUB AND SWAP1 POP PUSH32 0x6592F34FE53BF9BBD3B596F546DB5A2A222A9EF7E90CE7F9E2C8489613741BEB CALLER DUP10 PUSH1 0x40 ADD MLOAD DUP8 DUP12 PUSH1 0x20 ADD MLOAD DUP13 PUSH1 0x60 ADD MLOAD PUSH1 0x40 MLOAD PUSH2 0xBB6 SWAP6 SWAP5 SWAP4 SWAP3 SWAP2 SWAP1 PUSH2 0x1DEF JUMP JUMPDEST PUSH1 0x40 MLOAD DUP1 SWAP2 SUB SWAP1 LOG1 SWAP6 POP POP POP POP POP JUMPDEST POP SWAP2 SWAP1 POP JUMP JUMPDEST PUSH1 0x0 DUP1 MLOAD PUSH1 0x20 PUSH2 0x1F44 DUP4 CODECOPY DUP2 MLOAD SWAP2 MSTORE PUSH2 0xBE4 DUP2 CALLER PUSH2 0xF79 JUMP JUMPDEST PUSH2 0xBED JUMPI PUSH1 0x0 DUP1 REVERT JUMPDEST PUSH2 0x49B PUSH32 0xF322DEFC376BBA64D27C59F0DFFA3645EB556D2707692077AD37E9255BED73BB DUP4 PUSH2 0x649 JUMP JUMPDEST PUSH1 0x0 DUP1 MLOAD PUSH1 0x20 PUSH2 0x1F44 DUP4 CODECOPY DUP2 MLOAD SWAP2 MSTORE PUSH2 0xC30 DUP2 CALLER PUSH2 0xF79 JUMP JUMPDEST PUSH2 0xC39 JUMPI PUSH1 0x0 DUP1 REVERT JUMPDEST PUSH1 0x1 PUSH1 0x1 PUSH1 0xA0 SHL SUB DUP6 AND PUSH1 0x0 SWAP1 DUP2 MSTORE PUSH1 0x6 PUSH1 0x20 MSTORE PUSH1 0x40 SWAP1 KECCAK256 PUSH1 0x5 ADD SLOAD PUSH1 0xFF AND ISZERO ISZERO PUSH1 0x1 EQ PUSH2 0xCA0 JUMPI PUSH1 0x40 MLOAD PUSH3 0x461BCD PUSH1 0xE5 SHL DUP2 MSTORE PUSH1 0x20 PUSH1 0x4 DUP3 ADD MSTORE PUSH1 0x14 PUSH1 0x24 DUP3 ADD MSTORE PUSH20 0x5573657220646F6573206E6F7420657869737473 PUSH1 0x60 SHL PUSH1 0x44 DUP3 ADD MSTORE PUSH1 0x64 ADD PUSH2 0x7C7 JUMP JUMPDEST PUSH1 0x1 PUSH1 0x1 PUSH1 0xA0 SHL SUB DUP6 AND PUSH1 0x0 SWAP1 DUP2 MSTORE PUSH1 0x6 PUSH1 0x20 MSTORE PUSH1 0x40 SWAP1 KECCAK256 PUSH1 0x3 ADD SLOAD DUP5 EQ PUSH2 0xD16 JUMPI PUSH1 0x40 MLOAD PUSH3 0x461BCD PUSH1 0xE5 SHL DUP2 MSTORE PUSH1 0x20 PUSH1 0x4 DUP3 ADD MSTORE PUSH1 0x24 DUP1 DUP3 ADD MSTORE PUSH32 0x50726F6A65637420686173206E6F742073746172746564206279207468697320 PUSH1 0x44 DUP3 ADD MSTORE PUSH4 0x3AB9B2B9 PUSH1 0xE1 SHL PUSH1 0x64 DUP3 ADD MSTORE PUSH1 0x84 ADD PUSH2 0x7C7 JUMP JUMPDEST PUSH1 0x0 DUP3 PUSH2 0xD24 JUMPI PUSH1 0x0 PUSH2 0xD26 JUMP JUMPDEST DUP4 JUMPDEST PUSH1 0x1 PUSH1 0x1 PUSH1 0xA0 SHL SUB DUP8 AND PUSH1 0x0 SWAP1 DUP2 MSTORE PUSH1 0x6 PUSH1 0x20 MSTORE PUSH1 0x40 DUP2 KECCAK256 PUSH1 0x2 ADD DUP1 SLOAD SWAP3 SWAP4 POP DUP4 SWAP3 SWAP1 SWAP2 SWAP1 PUSH2 0xD56 SWAP1 DUP5 SWAP1 PUSH2 0x1E3F JUMP JUMPDEST SWAP1 SWAP2 SSTORE POP POP PUSH1 0x1 PUSH1 0x1 PUSH1 0xA0 SHL SUB DUP7 AND PUSH1 0x0 SWAP1 DUP2 MSTORE PUSH1 0x6 PUSH1 0x20 MSTORE PUSH1 0x40 DUP2 KECCAK256 PUSH1 0x3 ADD SSTORE DUP1 ISZERO PUSH2 0xDF1 JUMPI PUSH1 0x1 PUSH1 0x1 PUSH1 0xA0 SHL SUB DUP7 AND PUSH1 0x0 DUP2 DUP2 MSTORE PUSH1 0x6 PUSH1 0x20 SWAP1 DUP2 MSTORE PUSH1 0x40 DUP1 DUP4 KECCAK256 PUSH1 0x4 ADD DUP1 SLOAD PUSH1 0x1 DUP2 ADD DUP3 SSTORE SWAP1 DUP5 MSTORE SWAP3 DUP3 SWAP1 KECCAK256 SWAP1 SWAP3 ADD DUP9 SWAP1 SSTORE DUP2 MLOAD SWAP3 DUP4 MSTORE DUP3 ADD DUP8 SWAP1 MSTORE DUP2 ADD DUP6 SWAP1 MSTORE PUSH32 0xAB0CBA6E6F4F659868746EC49AC3A984770E64F2DA708D53203E4630E17DAF8A SWAP1 PUSH1 0x60 ADD PUSH1 0x40 MLOAD DUP1 SWAP2 SUB SWAP1 LOG1 PUSH2 0xE34 JUMP JUMPDEST PUSH1 0x40 DUP1 MLOAD PUSH1 0x1 PUSH1 0x1 PUSH1 0xA0 SHL SUB DUP9 AND DUP2 MSTORE PUSH1 0x20 DUP2 ADD DUP8 SWAP1 MSTORE PUSH32 0xA4D3F59FCE00E6B46E27BDC2A6FE2341A5ED7A9FB4D755467194525263112B98 SWAP2 ADD PUSH1 0x40 MLOAD DUP1 SWAP2 SUB SWAP1 LOG1 JUMPDEST POP POP POP POP POP POP JUMP JUMPDEST PUSH1 0x0 DUP1 MLOAD PUSH1 0x20 PUSH2 0x1F44 DUP4 CODECOPY DUP2 MLOAD SWAP2 MSTORE PUSH2 0xE55 DUP2 CALLER PUSH2 0xF79 JUMP JUMPDEST PUSH2 0xE5E JUMPI PUSH1 0x0 DUP1 REVERT JUMPDEST PUSH1 0x1 PUSH1 0x1 PUSH1 0xA0 SHL SUB DUP4 AND PUSH1 0x0 SWAP1 DUP2 MSTORE PUSH1 0x6 PUSH1 0x20 MSTORE PUSH1 0x40 SWAP1 KECCAK256 PUSH1 0x5 ADD SLOAD PUSH1 0xFF AND ISZERO ISZERO PUSH1 0x1 EQ PUSH2 0xEC5 JUMPI PUSH1 0x40 MLOAD PUSH3 0x461BCD PUSH1 0xE5 SHL DUP2 MSTORE PUSH1 0x20 PUSH1 0x4 DUP3 ADD MSTORE PUSH1 0x14 PUSH1 0x24 DUP3 ADD MSTORE PUSH20 0x5573657220646F6573206E6F7420657869737473 PUSH1 0x60 SHL PUSH1 0x44 DUP3 ADD MSTORE PUSH1 0x64 ADD PUSH2 0x7C7 JUMP JUMPDEST PUSH1 0x1 PUSH1 0x1 PUSH1 0xA0 SHL SUB DUP4 AND PUSH1 0x0 SWAP1 DUP2 MSTORE PUSH1 0x6 PUSH1 0x20 MSTORE PUSH1 0x40 DUP2 KECCAK256 PUSH1 0x2 ADD DUP1 SLOAD DUP5 SWAP3 SWAP1 PUSH2 0xEF0 SWAP1 DUP5 SWAP1 PUSH2 0x1E3F JUMP JUMPDEST SWAP1 SWAP2 SSTORE POP POP POP POP POP JUMP JUMPDEST PUSH1 0x0 DUP1 MLOAD PUSH1 0x20 PUSH2 0x1F64 DUP4 CODECOPY DUP2 MLOAD SWAP2 MSTORE PUSH2 0xF13 DUP2 CALLER PUSH2 0xF79 JUMP JUMPDEST PUSH2 0xF1C JUMPI PUSH1 0x0 DUP1 REVERT JUMPDEST PUSH2 0x49B PUSH1 0x0 DUP1 MLOAD PUSH1 0x20 PUSH2 0x1F44 DUP4 CODECOPY DUP2 MLOAD SWAP2 MSTORE DUP4 PUSH2 0x649 JUMP JUMPDEST PUSH1 0x0 DUP1 MLOAD PUSH1 0x20 PUSH2 0x1F64 DUP4 CODECOPY DUP2 MLOAD SWAP2 MSTORE PUSH2 0xF4D DUP2 CALLER PUSH2 0xF79 JUMP JUMPDEST PUSH2 0xF56 JUMPI PUSH1 0x0 DUP1 REVERT JUMPDEST POP PUSH1 0x3 DUP1 SLOAD PUSH1 0x1 PUSH1 0x1 PUSH1 0xA0 SHL SUB NOT AND PUSH1 0x1 PUSH1 0x1 PUSH1 0xA0 SHL SUB SWAP3 SWAP1 SWAP3 AND SWAP2 SWAP1 SWAP2 OR SWAP1 SSTORE JUMP JUMPDEST PUSH1 0x0 SWAP2 DUP3 MSTORE PUSH1 0x20 DUP3 DUP2 MSTORE PUSH1 0x40 DUP1 DUP5 KECCAK256 PUSH1 0x1 PUSH1 0x1 PUSH1 0xA0 SHL SUB SWAP4 SWAP1 SWAP4 AND DUP5 MSTORE SWAP2 SWAP1 MSTORE SWAP1 KECCAK256 SLOAD PUSH1 0xFF AND SWAP1 JUMP JUMPDEST PUSH1 0x0 JUMPDEST PUSH1 0x4 SLOAD DUP2 LT ISZERO PUSH2 0x116A JUMPI CALLER PUSH1 0x1 PUSH1 0x1 PUSH1 0xA0 SHL SUB AND PUSH1 0x4 DUP3 DUP2 SLOAD DUP2 LT PUSH2 0xFCC JUMPI PUSH2 0xFCC PUSH2 0x1BE2 JUMP JUMPDEST PUSH1 0x0 SWAP2 DUP3 MSTORE PUSH1 0x20 SWAP1 SWAP2 KECCAK256 ADD SLOAD PUSH1 0x1 PUSH1 0x1 PUSH1 0xA0 SHL SUB AND EQ PUSH2 0x1162 JUMPI PUSH1 0x0 PUSH1 0x6 PUSH1 0x0 PUSH1 0x4 DUP5 DUP2 SLOAD DUP2 LT PUSH2 0xFFF JUMPI PUSH2 0xFFF PUSH2 0x1BE2 JUMP JUMPDEST PUSH1 0x0 SWAP2 DUP3 MSTORE PUSH1 0x20 DUP1 DUP4 KECCAK256 SWAP1 SWAP2 ADD SLOAD PUSH1 0x1 PUSH1 0x1 PUSH1 0xA0 SHL SUB AND DUP4 MSTORE DUP3 DUP2 ADD SWAP4 SWAP1 SWAP4 MSTORE PUSH1 0x40 SWAP2 DUP3 ADD DUP2 KECCAK256 PUSH1 0x2 SWAP1 DUP2 ADD SLOAD CALLER DUP4 MSTORE PUSH1 0x6 SWAP1 SWAP5 MSTORE SWAP2 DUP2 KECCAK256 SWAP1 SWAP2 ADD SLOAD SWAP2 SWAP3 POP SWAP1 PUSH1 0x64 SWAP1 PUSH2 0x104D SWAP1 PUSH1 0xA PUSH2 0x1E52 JUMP JUMPDEST PUSH2 0x1057 SWAP2 SWAP1 PUSH2 0x1E7F JUMP JUMPDEST CALLER PUSH1 0x0 SWAP1 DUP2 MSTORE PUSH1 0x6 PUSH1 0x20 MSTORE PUSH1 0x40 SWAP1 KECCAK256 PUSH1 0x2 ADD SLOAD SWAP1 SWAP2 POP PUSH2 0x1078 SWAP1 DUP3 SWAP1 PUSH2 0x1E3F JUMP JUMPDEST DUP3 GT ISZERO PUSH2 0x10D4 JUMPI PUSH1 0x8 PUSH1 0x4 DUP5 DUP2 SLOAD DUP2 LT PUSH2 0x1094 JUMPI PUSH2 0x1094 PUSH2 0x1BE2 JUMP JUMPDEST PUSH1 0x0 SWAP2 DUP3 MSTORE PUSH1 0x20 DUP1 DUP4 KECCAK256 SWAP1 SWAP2 ADD SLOAD DUP4 SLOAD PUSH1 0x1 DUP2 ADD DUP6 SSTORE SWAP4 DUP4 MSTORE SWAP2 KECCAK256 SWAP1 SWAP2 ADD DUP1 SLOAD PUSH1 0x1 PUSH1 0x1 PUSH1 0xA0 SHL SUB NOT AND PUSH1 0x1 PUSH1 0x1 PUSH1 0xA0 SHL SUB SWAP1 SWAP3 AND SWAP2 SWAP1 SWAP2 OR SWAP1 SSTORE PUSH2 0x115F JUMP JUMPDEST CALLER PUSH1 0x0 SWAP1 DUP2 MSTORE PUSH1 0x6 PUSH1 0x20 MSTORE PUSH1 0x40 SWAP1 KECCAK256 PUSH1 0x2 ADD SLOAD PUSH2 0x10F2 SWAP1 DUP3 SWAP1 PUSH2 0x1E93 JUMP JUMPDEST DUP3 LT ISZERO PUSH2 0x110E JUMPI PUSH1 0xA PUSH1 0x4 DUP5 DUP2 SLOAD DUP2 LT PUSH2 0x1094 JUMPI PUSH2 0x1094 PUSH2 0x1BE2 JUMP JUMPDEST PUSH1 0x9 PUSH1 0x4 DUP5 DUP2 SLOAD DUP2 LT PUSH2 0x1123 JUMPI PUSH2 0x1123 PUSH2 0x1BE2 JUMP JUMPDEST PUSH1 0x0 SWAP2 DUP3 MSTORE PUSH1 0x20 DUP1 DUP4 KECCAK256 SWAP1 SWAP2 ADD SLOAD DUP4 SLOAD PUSH1 0x1 DUP2 ADD DUP6 SSTORE SWAP4 DUP4 MSTORE SWAP2 KECCAK256 SWAP1 SWAP2 ADD DUP1 SLOAD PUSH1 0x1 PUSH1 0x1 PUSH1 0xA0 SHL SUB NOT AND PUSH1 0x1 PUSH1 0x1 PUSH1 0xA0 SHL SUB SWAP1 SWAP3 AND SWAP2 SWAP1 SWAP2 OR SWAP1 SSTORE JUMPDEST POP POP JUMPDEST PUSH1 0x1 ADD PUSH2 0xFA5 JUMP JUMPDEST POP PUSH1 0x8 SLOAD ISZERO PUSH2 0x11B7 JUMPI PUSH1 0x8 SLOAD PUSH1 0x0 SWAP1 PUSH2 0x1182 SWAP1 PUSH2 0x14E0 JUMP JUMPDEST SWAP1 POP PUSH2 0x11B5 PUSH1 0x8 DUP3 DUP2 SLOAD DUP2 LT PUSH2 0x119A JUMPI PUSH2 0x119A PUSH2 0x1BE2 JUMP JUMPDEST PUSH1 0x0 SWAP2 DUP3 MSTORE PUSH1 0x20 SWAP1 SWAP2 KECCAK256 ADD SLOAD PUSH1 0x1 PUSH1 0x1 PUSH1 0xA0 SHL SUB AND CALLER PUSH2 0x153E JUMP JUMPDEST POP JUMPDEST PUSH1 0x9 SLOAD ISZERO PUSH2 0x11E8 JUMPI PUSH1 0x9 SLOAD PUSH1 0x0 SWAP1 PUSH2 0x11CE SWAP1 PUSH2 0x14E0 JUMP JUMPDEST SWAP1 POP PUSH2 0x11E6 PUSH1 0x9 DUP3 DUP2 SLOAD DUP2 LT PUSH2 0x119A JUMPI PUSH2 0x119A PUSH2 0x1BE2 JUMP JUMPDEST POP JUMPDEST PUSH1 0xA SLOAD ISZERO PUSH2 0x1219 JUMPI PUSH1 0xA SLOAD PUSH1 0x0 SWAP1 PUSH2 0x11FF SWAP1 PUSH2 0x14E0 JUMP JUMPDEST SWAP1 POP PUSH2 0x1217 PUSH1 0xA DUP3 DUP2 SLOAD DUP2 LT PUSH2 0x119A JUMPI PUSH2 0x119A PUSH2 0x1BE2 JUMP JUMPDEST POP JUMPDEST PUSH2 0x1225 PUSH1 0x8 PUSH1 0x0 PUSH2 0x1645 JUMP JUMPDEST PUSH2 0x1231 PUSH1 0x9 PUSH1 0x0 PUSH2 0x1645 JUMP JUMPDEST PUSH2 0x123D PUSH1 0xA PUSH1 0x0 PUSH2 0x1645 JUMP JUMPDEST CALLER PUSH1 0x0 DUP2 DUP2 MSTORE PUSH1 0x7 PUSH1 0x20 MSTORE PUSH1 0x40 SWAP1 DUP2 SWAP1 KECCAK256 SWAP1 MLOAD PUSH32 0x678658D9F1FE0C70D4AF48CD4F90BEDFFBA7C52B6C30D6510050749B1D6BC43E SWAP3 PUSH2 0x962 SWAP3 SWAP1 SWAP2 DUP6 SWAP2 SWAP1 PUSH2 0x1EA6 JUMP JUMPDEST PUSH1 0x0 DUP3 DUP2 MSTORE PUSH1 0x20 DUP2 SWAP1 MSTORE PUSH1 0x40 SWAP1 KECCAK256 PUSH1 0x1 ADD SLOAD PUSH2 0x129B DUP2 PUSH2 0x130C JUMP JUMPDEST PUSH2 0x66E DUP4 DUP4 PUSH2 0x13AB JUMP JUMPDEST PUSH1 0x0 DUP1 MLOAD PUSH1 0x20 PUSH2 0x1F64 DUP4 CODECOPY DUP2 MLOAD SWAP2 MSTORE PUSH2 0x12BE DUP2 CALLER PUSH2 0xF79 JUMP JUMPDEST PUSH2 0x12C7 JUMPI PUSH1 0x0 DUP1 REVERT JUMPDEST PUSH2 0x12DF PUSH1 0x0 DUP1 MLOAD PUSH1 0x20 PUSH2 0x1F64 DUP4 CODECOPY DUP2 MLOAD SWAP2 MSTORE DUP4 PUSH2 0x649 JUMP JUMPDEST PUSH2 0x49B PUSH1 0x0 DUP1 MLOAD PUSH1 0x20 PUSH2 0x1F64 DUP4 CODECOPY DUP2 MLOAD SWAP2 MSTORE CALLER PUSH2 0x1280 JUMP JUMPDEST PUSH1 0x0 PUSH1 0x2 SLOAD DUP3 GT ISZERO DUP1 ISZERO PUSH2 0x45B JUMPI POP POP ISZERO ISZERO SWAP1 JUMP JUMPDEST PUSH2 0x1316 DUP2 CALLER PUSH2 0x15C1 JUMP JUMPDEST POP JUMP JUMPDEST PUSH1 0x0 PUSH2 0x1325 DUP4 DUP4 PUSH2 0xF79 JUMP JUMPDEST PUSH2 0x13A3 JUMPI PUSH1 0x0 DUP4 DUP2 MSTORE PUSH1 0x20 DUP2 DUP2 MSTORE PUSH1 0x40 DUP1 DUP4 KECCAK256 PUSH1 0x1 PUSH1 0x1 PUSH1 0xA0 SHL SUB DUP7 AND DUP5 MSTORE SWAP1 SWAP2 MSTORE SWAP1 KECCAK256 DUP1 SLOAD PUSH1 0xFF NOT AND PUSH1 0x1 OR SWAP1 SSTORE PUSH2 0x135B CALLER SWAP1 JUMP JUMPDEST PUSH1 0x1 PUSH1 0x1 PUSH1 0xA0 SHL SUB AND DUP3 PUSH1 0x1 PUSH1 0x1 PUSH1 0xA0 SHL SUB AND DUP5 PUSH32 0x2F8788117E7EFF1D82E926EC794901D17C78024A50270940304540A733656F0D PUSH1 0x40 MLOAD PUSH1 0x40 MLOAD DUP1 SWAP2 SUB SWAP1 LOG4 POP PUSH1 0x1 PUSH2 0x45B JUMP JUMPDEST POP PUSH1 0x0 PUSH2 0x45B JUMP JUMPDEST PUSH1 0x0 PUSH2 0x13B7 DUP4 DUP4 PUSH2 0xF79 JUMP JUMPDEST ISZERO PUSH2 0x13A3 JUMPI PUSH1 0x0 DUP4 DUP2 MSTORE PUSH1 0x20 DUP2 DUP2 MSTORE PUSH1 0x40 DUP1 DUP4 KECCAK256 PUSH1 0x1 PUSH1 0x1 PUSH1 0xA0 SHL SUB DUP7 AND DUP1 DUP6 MSTORE SWAP3 MSTORE DUP1 DUP4 KECCAK256 DUP1 SLOAD PUSH1 0xFF NOT AND SWAP1 SSTORE MLOAD CALLER SWAP3 DUP7 SWAP2 PUSH32 0xF6391F5C32D9C69D2A47EA670B442974B53935D1EDC7FD64EB21E047A839171B SWAP2 SWAP1 LOG4 POP PUSH1 0x1 PUSH2 0x45B JUMP JUMPDEST PUSH1 0x1 PUSH1 0x1 PUSH1 0xA0 SHL SUB DUP3 AND PUSH1 0x0 SWAP1 DUP2 MSTORE PUSH1 0x7 PUSH1 0x20 SWAP1 DUP2 MSTORE PUSH1 0x40 DUP1 DUP4 KECCAK256 DUP1 SLOAD DUP3 MLOAD DUP2 DUP6 MUL DUP2 ADD DUP6 ADD SWAP1 SWAP4 MSTORE DUP1 DUP4 MSTORE DUP5 SWAP4 DUP4 ADD DUP3 DUP3 DUP1 ISZERO PUSH2 0x147D JUMPI PUSH1 0x20 MUL DUP3 ADD SWAP2 SWAP1 PUSH1 0x0 MSTORE PUSH1 0x20 PUSH1 0x0 KECCAK256 SWAP1 JUMPDEST DUP2 SLOAD PUSH1 0x1 PUSH1 0x1 PUSH1 0xA0 SHL SUB AND DUP2 MSTORE PUSH1 0x1 SWAP1 SWAP2 ADD SWAP1 PUSH1 0x20 ADD DUP1 DUP4 GT PUSH2 0x145F JUMPI JUMPDEST POP POP POP POP POP SWAP1 POP PUSH1 0x0 JUMPDEST DUP2 MLOAD DUP2 LT ISZERO PUSH2 0x14D5 JUMPI DUP4 PUSH1 0x1 PUSH1 0x1 PUSH1 0xA0 SHL SUB AND DUP3 DUP3 DUP2 MLOAD DUP2 LT PUSH2 0x14AC JUMPI PUSH2 0x14AC PUSH2 0x1BE2 JUMP JUMPDEST PUSH1 0x20 MUL PUSH1 0x20 ADD ADD MLOAD PUSH1 0x1 PUSH1 0x1 PUSH1 0xA0 SHL SUB AND SUB PUSH2 0x14CD JUMPI PUSH1 0x1 SWAP3 POP POP POP PUSH2 0x45B JUMP JUMPDEST PUSH1 0x1 ADD PUSH2 0x1487 JUMP JUMPDEST POP PUSH1 0x0 SWAP5 SWAP4 POP POP POP POP JUMP JUMPDEST PUSH1 0x0 DUP2 TIMESTAMP PREVRANDAO CALLER PUSH1 0x40 MLOAD PUSH1 0x20 ADD PUSH2 0x151B SWAP4 SWAP3 SWAP2 SWAP1 SWAP3 DUP4 MSTORE PUSH1 0x20 DUP4 ADD SWAP2 SWAP1 SWAP2 MSTORE PUSH1 0x60 SHL PUSH12 0xFFFFFFFFFFFFFFFFFFFFFFFF NOT AND PUSH1 0x40 DUP3 ADD MSTORE PUSH1 0x54 ADD SWAP1 JUMP JUMPDEST PUSH1 0x40 MLOAD PUSH1 0x20 DUP2 DUP4 SUB SUB DUP2 MSTORE SWAP1 PUSH1 0x40 MSTORE DUP1 MLOAD SWAP1 PUSH1 0x20 ADD KECCAK256 PUSH1 0x0 SHR PUSH2 0x45B SWAP2 SWAP1 PUSH2 0x1F0F JUMP JUMPDEST PUSH2 0x1556 PUSH1 0x0 DUP1 MLOAD PUSH1 0x20 PUSH2 0x1F24 DUP4 CODECOPY DUP2 MLOAD SWAP2 MSTORE DUP4 PUSH2 0x649 JUMP JUMPDEST PUSH2 0x1580 PUSH32 0xF322DEFC376BBA64D27C59F0DFFA3645EB556D2707692077AD37E9255BED73BB DUP3 PUSH2 0x649 JUMP JUMPDEST PUSH1 0x1 PUSH1 0x1 PUSH1 0xA0 SHL SUB SWAP1 DUP2 AND PUSH1 0x0 SWAP1 DUP2 MSTORE PUSH1 0x7 PUSH1 0x20 SWAP1 DUP2 MSTORE PUSH1 0x40 DUP3 KECCAK256 DUP1 SLOAD PUSH1 0x1 DUP2 ADD DUP3 SSTORE SWAP1 DUP4 MSTORE SWAP2 KECCAK256 ADD DUP1 SLOAD PUSH1 0x1 PUSH1 0x1 PUSH1 0xA0 SHL SUB NOT AND SWAP3 SWAP1 SWAP2 AND SWAP2 SWAP1 SWAP2 OR SWAP1 SSTORE JUMP JUMPDEST PUSH2 0x15CB DUP3 DUP3 PUSH2 0xF79 JUMP JUMPDEST PUSH2 0x49B JUMPI PUSH1 0x40 MLOAD PUSH4 0xE2517D3F PUSH1 0xE0 SHL DUP2 MSTORE PUSH1 0x1 PUSH1 0x1 PUSH1 0xA0 SHL SUB DUP3 AND PUSH1 0x4 DUP3 ADD MSTORE PUSH1 0x24 DUP2 ADD DUP4 SWAP1 MSTORE PUSH1 0x44 ADD PUSH2 0x7C7 JUMP JUMPDEST DUP3 DUP1 SLOAD DUP3 DUP3 SSTORE SWAP1 PUSH1 0x0 MSTORE PUSH1 0x20 PUSH1 0x0 KECCAK256 SWAP1 DUP2 ADD SWAP3 DUP3 ISZERO PUSH2 0x1635 JUMPI SWAP2 PUSH1 0x20 MUL DUP3 ADD JUMPDEST DUP3 DUP2 GT ISZERO PUSH2 0x1635 JUMPI DUP3 MLOAD DUP3 SSTORE SWAP2 PUSH1 0x20 ADD SWAP2 SWAP1 PUSH1 0x1 ADD SWAP1 PUSH2 0x161A JUMP JUMPDEST POP PUSH2 0x1641 SWAP3 SWAP2 POP PUSH2 0x165F JUMP JUMPDEST POP SWAP1 JUMP JUMPDEST POP DUP1 SLOAD PUSH1 0x0 DUP3 SSTORE SWAP1 PUSH1 0x0 MSTORE PUSH1 0x20 PUSH1 0x0 KECCAK256 SWAP1 DUP2 ADD SWAP1 PUSH2 0x1316 SWAP2 SWAP1 JUMPDEST JUMPDEST DUP1 DUP3 GT ISZERO PUSH2 0x1641 JUMPI PUSH1 0x0 DUP2 SSTORE PUSH1 0x1 ADD PUSH2 0x1660 JUMP JUMPDEST PUSH1 0x0 PUSH1 0x20 DUP3 DUP5 SUB SLT ISZERO PUSH2 0x1686 JUMPI PUSH1 0x0 DUP1 REVERT JUMPDEST DUP2 CALLDATALOAD PUSH1 0x1 PUSH1 0x1 PUSH1 0xE0 SHL SUB NOT DUP2 AND DUP2 EQ PUSH2 0x169E JUMPI PUSH1 0x0 DUP1 REVERT JUMPDEST SWAP4 SWAP3 POP POP POP JUMP JUMPDEST DUP1 CALLDATALOAD PUSH1 0x1 PUSH1 0x1 PUSH1 0xA0 SHL SUB DUP2 AND DUP2 EQ PUSH2 0x16BC JUMPI PUSH1 0x0 DUP1 REVERT JUMPDEST SWAP2 SWAP1 POP JUMP JUMPDEST PUSH1 0x0 PUSH1 0x20 DUP3 DUP5 SUB SLT ISZERO PUSH2 0x16D3 JUMPI PUSH1 0x0 DUP1 REVERT JUMPDEST PUSH2 0x169E DUP3 PUSH2 0x16A5 JUMP JUMPDEST PUSH1 0x1 PUSH1 0x1 PUSH1 0x40 SHL SUB DUP2 AND DUP2 EQ PUSH2 0x1316 JUMPI PUSH1 0x0 DUP1 REVERT JUMPDEST PUSH1 0x0 PUSH1 0x20 DUP3 DUP5 SUB SLT ISZERO PUSH2 0x1703 JUMPI PUSH1 0x0 DUP1 REVERT JUMPDEST DUP2 CALLDATALOAD PUSH2 0x169E DUP2 PUSH2 0x16DC JUMP JUMPDEST PUSH1 0x0 PUSH1 0x20 DUP3 DUP5 SUB SLT ISZERO PUSH2 0x1720 JUMPI PUSH1 0x0 DUP1 REVERT JUMPDEST POP CALLDATALOAD SWAP2 SWAP1 POP JUMP JUMPDEST PUSH1 0x0 DUP2 MLOAD DUP1 DUP5 MSTORE PUSH1 0x0 JUMPDEST DUP2 DUP2 LT ISZERO PUSH2 0x174D JUMPI PUSH1 0x20 DUP2 DUP6 ADD DUP2 ADD MLOAD DUP7 DUP4 ADD DUP3 ADD MSTORE ADD PUSH2 0x1731 JUMP JUMPDEST POP PUSH1 0x0 PUSH1 0x20 DUP3 DUP7 ADD ADD MSTORE PUSH1 0x20 PUSH1 0x1F NOT PUSH1 0x1F DUP4 ADD AND DUP6 ADD ADD SWAP2 POP POP SWAP3 SWAP2 POP POP JUMP JUMPDEST PUSH1 0x40 DUP2 MSTORE PUSH1 0x0 PUSH2 0x1780 PUSH1 0x40 DUP4 ADD DUP6 PUSH2 0x1727 JUMP JUMPDEST DUP3 DUP2 SUB PUSH1 0x20 DUP5 ADD MSTORE PUSH2 0x1792 DUP2 DUP6 PUSH2 0x1727 JUMP JUMPDEST SWAP6 SWAP5 POP POP POP POP POP JUMP JUMPDEST PUSH1 0x0 DUP1 PUSH1 0x40 DUP4 DUP6 SUB SLT ISZERO PUSH2 0x17AE JUMPI PUSH1 0x0 DUP1 REVERT JUMPDEST PUSH2 0x17B7 DUP4 PUSH2 0x16A5 JUMP JUMPDEST SWAP5 PUSH1 0x20 SWAP4 SWAP1 SWAP4 ADD CALLDATALOAD SWAP4 POP POP POP JUMP JUMPDEST PUSH1 0x0 DUP1 PUSH1 0x40 DUP4 DUP6 SUB SLT ISZERO PUSH2 0x17D8 JUMPI PUSH1 0x0 DUP1 REVERT JUMPDEST DUP3 CALLDATALOAD SWAP2 POP PUSH2 0x17E8 PUSH1 0x20 DUP5 ADD PUSH2 0x16A5 JUMP JUMPDEST SWAP1 POP SWAP3 POP SWAP3 SWAP1 POP JUMP JUMPDEST PUSH1 0x1 PUSH1 0x1 PUSH1 0xA0 SHL SUB DUP7 AND DUP2 MSTORE PUSH1 0xA0 PUSH1 0x20 DUP3 ADD DUP2 SWAP1 MSTORE PUSH1 0x0 SWAP1 PUSH2 0x1815 SWAP1 DUP4 ADD DUP8 PUSH2 0x1727 JUMP JUMPDEST PUSH1 0x40 DUP4 ADD SWAP6 SWAP1 SWAP6 MSTORE POP PUSH1 0x60 DUP2 ADD SWAP3 SWAP1 SWAP3 MSTORE ISZERO ISZERO PUSH1 0x80 SWAP1 SWAP2 ADD MSTORE SWAP3 SWAP2 POP POP JUMP JUMPDEST PUSH4 0x4E487B71 PUSH1 0xE0 SHL PUSH1 0x0 MSTORE PUSH1 0x41 PUSH1 0x4 MSTORE PUSH1 0x24 PUSH1 0x0 REVERT JUMPDEST PUSH1 0x40 MLOAD PUSH1 0x80 DUP2 ADD PUSH1 0x1 PUSH1 0x1 PUSH1 0x40 SHL SUB DUP2 GT DUP3 DUP3 LT OR ISZERO PUSH2 0x186C JUMPI PUSH2 0x186C PUSH2 0x1834 JUMP JUMPDEST PUSH1 0x40 MSTORE SWAP1 JUMP JUMPDEST PUSH1 0x0 DUP3 PUSH1 0x1F DUP4 ADD SLT PUSH2 0x1883 JUMPI PUSH1 0x0 DUP1 REVERT JUMPDEST DUP2 CALLDATALOAD PUSH1 0x1 PUSH1 0x1 PUSH1 0x40 SHL SUB DUP2 GT ISZERO PUSH2 0x189C JUMPI PUSH2 0x189C PUSH2 0x1834 JUMP JUMPDEST PUSH1 0x40 MLOAD PUSH1 0x1F DUP3 ADD PUSH1 0x1F NOT SWAP1 DUP2 AND PUSH1 0x3F ADD AND DUP2 ADD PUSH1 0x1 PUSH1 0x1 PUSH1 0x40 SHL SUB DUP2 GT DUP3 DUP3 LT OR ISZERO PUSH2 0x18CA JUMPI PUSH2 0x18CA PUSH2 0x1834 JUMP JUMPDEST PUSH1 0x40 MSTORE DUP2 DUP2 MSTORE DUP4 DUP3 ADD PUSH1 0x20 ADD DUP6 LT ISZERO PUSH2 0x18E2 JUMPI PUSH1 0x0 DUP1 REVERT JUMPDEST DUP2 PUSH1 0x20 DUP6 ADD PUSH1 0x20 DUP4 ADD CALLDATACOPY PUSH1 0x0 SWAP2 DUP2 ADD PUSH1 0x20 ADD SWAP2 SWAP1 SWAP2 MSTORE SWAP4 SWAP3 POP POP POP JUMP JUMPDEST PUSH1 0x0 PUSH1 0x20 DUP3 DUP5 SUB SLT ISZERO PUSH2 0x1911 JUMPI PUSH1 0x0 DUP1 REVERT JUMPDEST DUP2 CALLDATALOAD PUSH1 0x1 PUSH1 0x1 PUSH1 0x40 SHL SUB DUP2 GT ISZERO PUSH2 0x1927 JUMPI PUSH1 0x0 DUP1 REVERT JUMPDEST PUSH2 0x1933 DUP5 DUP3 DUP6 ADD PUSH2 0x1872 JUMP JUMPDEST SWAP5 SWAP4 POP POP POP POP JUMP JUMPDEST PUSH1 0x0 PUSH1 0x20 DUP3 DUP5 SUB SLT ISZERO PUSH2 0x194D JUMPI PUSH1 0x0 DUP1 REVERT JUMPDEST DUP2 CALLDATALOAD PUSH1 0x1 PUSH1 0x1 PUSH1 0x40 SHL SUB DUP2 GT ISZERO PUSH2 0x1963 JUMPI PUSH1 0x0 DUP1 REVERT JUMPDEST DUP3 ADD PUSH1 0x80 DUP2 DUP6 SUB SLT ISZERO PUSH2 0x1975 JUMPI PUSH1 0x0 DUP1 REVERT JUMPDEST PUSH2 0x197D PUSH2 0x184A JUMP JUMPDEST DUP2 CALLDATALOAD DUP2 MSTORE PUSH1 0x20 DUP1 DUP4 ADD CALLDATALOAD SWAP1 DUP3 ADD MSTORE PUSH2 0x1997 PUSH1 0x40 DUP4 ADD PUSH2 0x16A5 JUMP JUMPDEST PUSH1 0x40 DUP3 ADD MSTORE PUSH1 0x60 DUP3 ADD CALLDATALOAD PUSH1 0x1 PUSH1 0x1 PUSH1 0x40 SHL SUB DUP2 GT ISZERO PUSH2 0x19B5 JUMPI PUSH1 0x0 DUP1 REVERT JUMPDEST PUSH2 0x19C1 DUP7 DUP3 DUP6 ADD PUSH2 0x1872 JUMP JUMPDEST PUSH1 0x60 DUP4 ADD MSTORE POP SWAP5 SWAP4 POP POP POP POP JUMP JUMPDEST PUSH1 0x0 DUP1 PUSH1 0x0 DUP1 PUSH1 0x80 DUP6 DUP8 SUB SLT ISZERO PUSH2 0x19E5 JUMPI PUSH1 0x0 DUP1 REVERT JUMPDEST PUSH2 0x19EE DUP6 PUSH2 0x16A5 JUMP JUMPDEST SWAP4 POP PUSH1 0x20 DUP6 ADD CALLDATALOAD SWAP3 POP PUSH1 0x40 DUP6 ADD CALLDATALOAD SWAP2 POP PUSH1 0x60 DUP6 ADD CALLDATALOAD DUP1 ISZERO ISZERO DUP2 EQ PUSH2 0x1A11 JUMPI PUSH1 0x0 DUP1 REVERT JUMPDEST SWAP4 SWAP7 SWAP3 SWAP6 POP SWAP1 SWAP4 POP POP JUMP JUMPDEST PUSH1 0x1 DUP2 DUP2 SHR SWAP1 DUP3 AND DUP1 PUSH2 0x1A30 JUMPI PUSH1 0x7F DUP3 AND SWAP2 POP JUMPDEST PUSH1 0x20 DUP3 LT DUP2 SUB PUSH2 0xBC5 JUMPI PUSH4 0x4E487B71 PUSH1 0xE0 SHL PUSH1 0x0 MSTORE PUSH1 0x22 PUSH1 0x4 MSTORE PUSH1 0x24 PUSH1 0x0 REVERT JUMPDEST PUSH1 0x1F DUP3 GT ISZERO PUSH2 0x76D JUMPI DUP1 PUSH1 0x0 MSTORE PUSH1 0x20 PUSH1 0x0 KECCAK256 PUSH1 0x1F DUP5 ADD PUSH1 0x5 SHR DUP2 ADD PUSH1 0x20 DUP6 LT ISZERO PUSH2 0x1A77 JUMPI POP DUP1 JUMPDEST PUSH1 0x1F DUP5 ADD PUSH1 0x5 SHR DUP3 ADD SWAP2 POP JUMPDEST DUP2 DUP2 LT ISZERO PUSH2 0x1A97 JUMPI PUSH1 0x0 DUP2 SSTORE PUSH1 0x1 ADD PUSH2 0x1A83 JUMP JUMPDEST POP POP POP POP POP JUMP JUMPDEST DUP2 MLOAD PUSH1 0x1 PUSH1 0x1 PUSH1 0x40 SHL SUB DUP2 GT ISZERO PUSH2 0x1AB7 JUMPI PUSH2 0x1AB7 PUSH2 0x1834 JUMP JUMPDEST PUSH2 0x1ACB DUP2 PUSH2 0x1AC5 DUP5 SLOAD PUSH2 0x1A1C JUMP JUMPDEST DUP5 PUSH2 0x1A50 JUMP JUMPDEST PUSH1 0x20 PUSH1 0x1F DUP3 GT PUSH1 0x1 DUP2 EQ PUSH2 0x1AFF JUMPI PUSH1 0x0 DUP4 ISZERO PUSH2 0x1AE7 JUMPI POP DUP5 DUP3 ADD MLOAD JUMPDEST PUSH1 0x0 NOT PUSH1 0x3 DUP6 SWAP1 SHL SHR NOT AND PUSH1 0x1 DUP5 SWAP1 SHL OR DUP5 SSTORE PUSH2 0x1A97 JUMP JUMPDEST PUSH1 0x0 DUP5 DUP2 MSTORE PUSH1 0x20 DUP2 KECCAK256 PUSH1 0x1F NOT DUP6 AND SWAP2 JUMPDEST DUP3 DUP2 LT ISZERO PUSH2 0x1B2F JUMPI DUP8 DUP6 ADD MLOAD DUP3 SSTORE PUSH1 0x20 SWAP5 DUP6 ADD SWAP5 PUSH1 0x1 SWAP1 SWAP3 ADD SWAP2 ADD PUSH2 0x1B0F JUMP JUMPDEST POP DUP5 DUP3 LT ISZERO PUSH2 0x1B4D JUMPI DUP7 DUP5 ADD MLOAD PUSH1 0x0 NOT PUSH1 0x3 DUP8 SWAP1 SHL PUSH1 0xF8 AND SHR NOT AND DUP2 SSTORE JUMPDEST POP POP POP POP PUSH1 0x1 SWAP1 DUP2 SHL ADD SWAP1 SSTORE POP JUMP JUMPDEST PUSH1 0x1 PUSH1 0x1 PUSH1 0xA0 SHL SUB DUP8 AND DUP2 MSTORE PUSH1 0xC0 PUSH1 0x20 DUP3 ADD DUP2 SWAP1 MSTORE PUSH1 0x0 SWAP1 PUSH2 0x1B80 SWAP1 DUP4 ADD DUP9 PUSH2 0x1727 JUMP JUMPDEST PUSH1 0x40 DUP4 ADD DUP8 SWAP1 MSTORE PUSH1 0x60 DUP4 ADD DUP7 SWAP1 MSTORE DUP3 DUP2 SUB PUSH1 0x80 DUP5 ADD MSTORE DUP5 MLOAD DUP1 DUP3 MSTORE PUSH1 0x20 DUP1 DUP8 ADD SWAP3 ADD SWAP1 PUSH1 0x0 JUMPDEST DUP2 DUP2 LT ISZERO PUSH2 0x1BC4 JUMPI DUP4 MLOAD DUP4 MSTORE PUSH1 0x20 SWAP4 DUP5 ADD SWAP4 SWAP1 SWAP3 ADD SWAP2 PUSH1 0x1 ADD PUSH2 0x1BA6 JUMP JUMPDEST POP POP DUP5 ISZERO ISZERO PUSH1 0xA0 DUP6 ADD MSTORE SWAP2 POP PUSH2 0x1BD7 SWAP1 POP JUMP JUMPDEST SWAP8 SWAP7 POP POP POP POP POP POP POP JUMP JUMPDEST PUSH4 0x4E487B71 PUSH1 0xE0 SHL PUSH1 0x0 MSTORE PUSH1 0x32 PUSH1 0x4 MSTORE PUSH1 0x24 PUSH1 0x0 REVERT JUMPDEST PUSH1 0x20 DUP2 MSTORE DUP2 MLOAD PUSH1 0x20 DUP3 ADD MSTORE PUSH1 0x20 DUP3 ADD MLOAD PUSH1 0x40 DUP3 ADD MSTORE PUSH1 0x1 DUP1 PUSH1 0xA0 SHL SUB PUSH1 0x40 DUP4 ADD MLOAD AND PUSH1 0x60 DUP3 ADD MSTORE PUSH1 0x0 PUSH1 0x60 DUP4 ADD MLOAD PUSH1 0x80 DUP1 DUP5 ADD MSTORE PUSH2 0x1933 PUSH1 0xA0 DUP5 ADD DUP3 PUSH2 0x1727 JUMP JUMPDEST PUSH1 0x4 DUP2 LT PUSH2 0x1C57 JUMPI PUSH4 0x4E487B71 PUSH1 0xE0 SHL PUSH1 0x0 MSTORE PUSH1 0x21 PUSH1 0x4 MSTORE PUSH1 0x24 PUSH1 0x0 REVERT JUMPDEST SWAP1 MSTORE JUMP JUMPDEST PUSH1 0x0 DUP3 DUP3 MLOAD DUP1 DUP6 MSTORE PUSH1 0x20 DUP6 ADD SWAP5 POP PUSH1 0x20 DUP2 PUSH1 0x5 SHL DUP4 ADD ADD PUSH1 0x20 DUP6 ADD PUSH1 0x0 JUMPDEST DUP4 DUP2 LT ISZERO PUSH2 0x1CAB JUMPI PUSH1 0x1F NOT DUP6 DUP5 SUB ADD DUP9 MSTORE PUSH2 0x1C95 DUP4 DUP4 MLOAD PUSH2 0x1727 JUMP JUMPDEST PUSH1 0x20 SWAP9 DUP10 ADD SWAP9 SWAP1 SWAP4 POP SWAP2 SWAP1 SWAP2 ADD SWAP1 PUSH1 0x1 ADD PUSH2 0x1C79 JUMP JUMPDEST POP SWAP1 SWAP7 SWAP6 POP POP POP POP POP POP JUMP JUMPDEST PUSH1 0x80 DUP2 MSTORE PUSH2 0x1CD1 PUSH1 0x80 DUP3 ADD DUP4 MLOAD PUSH1 0x1 PUSH1 0x1 PUSH1 0x40 SHL SUB AND SWAP1 MSTORE JUMP JUMPDEST PUSH1 0x0 PUSH1 0x20 DUP4 ADD MLOAD PUSH2 0x1CED PUSH1 0xA0 DUP5 ADD DUP3 PUSH1 0x1 PUSH1 0x1 PUSH1 0x40 SHL SUB AND SWAP1 MSTORE JUMP JUMPDEST POP PUSH1 0x40 DUP4 ADD MLOAD PUSH1 0x1 PUSH1 0x1 PUSH1 0x40 SHL SUB SWAP1 DUP2 AND PUSH1 0xC0 DUP5 DUP2 ADD SWAP2 SWAP1 SWAP2 MSTORE PUSH1 0x60 DUP6 ADD MLOAD DUP3 AND PUSH1 0xE0 DUP6 ADD MSTORE PUSH1 0x80 DUP6 ADD MLOAD PUSH1 0x1 PUSH1 0x1 PUSH1 0xA0 SHL SUB AND PUSH2 0x100 DUP6 ADD MSTORE PUSH1 0xA0 DUP6 ADD MLOAD SWAP1 SWAP2 AND PUSH2 0x120 DUP5 ADD MSTORE DUP4 ADD MLOAD PUSH2 0x1D46 PUSH2 0x140 DUP5 ADD DUP3 PUSH2 0x1C39 JUMP JUMPDEST POP PUSH1 0xE0 DUP4 ADD MLOAD ISZERO ISZERO PUSH2 0x160 DUP4 ADD MSTORE PUSH2 0x100 DUP4 ADD MLOAD PUSH2 0x140 PUSH2 0x180 DUP5 ADD MSTORE PUSH2 0x1D71 PUSH2 0x1C0 DUP5 ADD DUP3 PUSH2 0x1C5B JUMP JUMPDEST SWAP1 POP PUSH2 0x120 DUP5 ADD MLOAD PUSH1 0x7F NOT DUP5 DUP4 SUB ADD PUSH2 0x1A0 DUP6 ADD MSTORE PUSH2 0x1D90 DUP3 DUP3 PUSH2 0x1727 JUMP JUMPDEST SWAP2 POP POP DUP3 DUP2 SUB PUSH1 0x20 DUP5 ADD MSTORE PUSH2 0x1DA9 DUP2 PUSH1 0x0 DUP2 MSTORE PUSH1 0x20 ADD SWAP1 JUMP JUMPDEST DUP4 DUP2 SUB PUSH1 0x40 DUP6 ADD MSTORE PUSH1 0x0 DUP2 MSTORE SWAP1 POP PUSH1 0x20 DUP2 ADD DUP4 DUP2 SUB PUSH1 0x60 DUP6 ADD MSTORE PUSH1 0x0 DUP2 MSTORE SWAP1 POP PUSH1 0x20 DUP2 ADD PUSH2 0x1933 JUMP JUMPDEST PUSH1 0x0 PUSH1 0x20 DUP3 DUP5 SUB SLT ISZERO PUSH2 0x1DE4 JUMPI PUSH1 0x0 DUP1 REVERT JUMPDEST DUP2 MLOAD PUSH2 0x169E DUP2 PUSH2 0x16DC JUMP JUMPDEST PUSH1 0x1 PUSH1 0x1 PUSH1 0xA0 SHL SUB DUP7 DUP2 AND DUP3 MSTORE DUP6 AND PUSH1 0x20 DUP3 ADD MSTORE PUSH1 0x40 DUP2 ADD DUP5 SWAP1 MSTORE PUSH1 0x60 DUP2 ADD DUP4 SWAP1 MSTORE PUSH1 0xA0 PUSH1 0x80 DUP3 ADD DUP2 SWAP1 MSTORE PUSH1 0x0 SWAP1 PUSH2 0x1BD7 SWAP1 DUP4 ADD DUP5 PUSH2 0x1727 JUMP JUMPDEST PUSH4 0x4E487B71 PUSH1 0xE0 SHL PUSH1 0x0 MSTORE PUSH1 0x11 PUSH1 0x4 MSTORE PUSH1 0x24 PUSH1 0x0 REVERT JUMPDEST DUP1 DUP3 ADD DUP1 DUP3 GT ISZERO PUSH2 0x45B JUMPI PUSH2 0x45B PUSH2 0x1E29 JUMP JUMPDEST DUP1 DUP3 MUL DUP2 ISZERO DUP3 DUP3 DIV DUP5 EQ OR PUSH2 0x45B JUMPI PUSH2 0x45B PUSH2 0x1E29 JUMP JUMPDEST PUSH4 0x4E487B71 PUSH1 0xE0 SHL PUSH1 0x0 MSTORE PUSH1 0x12 PUSH1 0x4 MSTORE PUSH1 0x24 PUSH1 0x0 REVERT JUMPDEST PUSH1 0x0 DUP3 PUSH2 0x1E8E JUMPI PUSH2 0x1E8E PUSH2 0x1E69 JUMP JUMPDEST POP DIV SWAP1 JUMP JUMPDEST DUP2 DUP2 SUB DUP2 DUP2 GT ISZERO PUSH2 0x45B JUMPI PUSH2 0x45B PUSH2 0x1E29 JUMP JUMPDEST PUSH1 0x1 PUSH1 0x1 PUSH1 0xA0 SHL SUB DUP5 AND DUP2 MSTORE PUSH1 0x20 DUP1 DUP3 ADD DUP5 SWAP1 MSTORE PUSH1 0x60 PUSH1 0x40 DUP4 ADD DUP2 SWAP1 MSTORE DUP4 SLOAD SWAP1 DUP4 ADD DUP2 SWAP1 MSTORE PUSH1 0x0 DUP5 DUP2 MSTORE SWAP2 DUP3 KECCAK256 SWAP1 PUSH1 0x80 DUP5 ADD SWAP1 DUP4 JUMPDEST DUP2 DUP2 LT ISZERO PUSH2 0x1F02 JUMPI DUP4 SLOAD PUSH1 0x1 PUSH1 0x1 PUSH1 0xA0 SHL SUB AND DUP4 MSTORE PUSH1 0x1 SWAP4 DUP5 ADD SWAP4 PUSH1 0x20 SWAP1 SWAP4 ADD SWAP3 ADD PUSH2 0x1EDB JUMP JUMPDEST POP SWAP1 SWAP8 SWAP7 POP POP POP POP POP POP POP JUMP JUMPDEST PUSH1 0x0 DUP3 PUSH2 0x1F1E JUMPI PUSH2 0x1F1E PUSH2 0x1E69 JUMP JUMPDEST POP MOD SWAP1 JUMP INVALID STOP 0x4F SGT STATICCALL RETURNDATACOPY DUP6 0x22 SHR 0xAE PUSH15 0x297E754A8AB58B2AC55382B0B17CA3 0xD5 CALLER PUSH17 0xD4F56335DF8B4C520FFE197C5343C6F5AE 0xC5 SWAP6 PUSH17 0x151EF9A492F2C624FD45DDDE6135EC4262 PUSH17 0xEDB7C868F86FDA4ADEDBA7510820108726 DUP15 LOG3 GASLIMIT SWAP4 0x4D 0xB8 0xBA 0xD6 DUP9 0xE1 INVALID 0xB9 SHL LOG2 PUSH5 0x6970667358 0x22 SLT KECCAK256 PREVRANDAO 0xA6 0x1F 0xB4 0xA9 TLOAD SLT SWAP12 DUP4 BLOBHASH SWAP9 DUP7 0xC6 0xD2 0xD0 DUP1 0xBF 0x28 ORIGIN PUSH25 0x74B40B10578B74EE8B4192464736F6C634300081B00330000 "
        },
        "methodIdentifiers": {
          "ADMIN_ROLE()": "75b238fc",
          "DEFAULT_ADMIN_ROLE()": "a217fddf",
          "EVALUATEE_ROLE()": "1163efb9",
          "EVALUATOR_ROLE()": "30d0ea31",
          "OWNER_ROLE()": "e58378bb",
          "addUserPoints(address,uint256)": "697ad3c0",
          "checkProjectExists(uint256)": "ff7c8d90",
          "completeProject(address,uint256,uint256,bool)": "5d06edb5",
          "createUser(string)": "507ffba5",
          "evaluatorOf(address,uint256)": "23ed747e",
          "getRoleAdmin(bytes32)": "248a9ca3",
          "grantRole(bytes32,address)": "2f2ff15d",
          "hasRole(bytes32,address)": "91d14854",
          "matchmaking(uint256)": "a89a57df",
          "projects(uint256)": "107046bd",
          "renounceRole(bytes32,address)": "36568abe",
          "revokeRole(bytes32,address)": "d547741f",
          "setAdmin(address)": "704b6c02",
          "setEvaluatee(address)": "5bd7ab11",
          "setEvaluator(address)": "02dbbbac",
          "setSPInstance(address)": "8e9d660f",
          "setSchemaID(uint64)": "05ca8ee3",
          "spInstance()": "a8c5dc33",
          "submitEvaluation((uint256,uint256,address,string))": "57598268",
          "supportsInterface(bytes4)": "01ffc9a7",
          "transferOwnership(address)": "f2fde38b",
          "userProfiles(address)": "332d56d7"
        }
      }
    }
  }
}