{
  "contracts/PeerReview.sol": {
    "PeerReview": {
      "abi": [
        {
          "inputs": [
            {
              "internalType": "uint64",
              "name": "schemaId",
              "type": "uint64"
            }
          ],
          "stateMutability": "nonpayable",
          "type": "constructor"
        },
        {
          "inputs": [],
          "name": "AccessControlBadConfirmation",
          "type": "error"
        },
        {
          "inputs": [
            {
              "internalType": "address",
              "name": "account",
              "type": "address"
            },
            {
              "internalType": "bytes32",
              "name": "neededRole",
              "type": "bytes32"
            }
          ],
          "name": "AccessControlUnauthorizedAccount",
          "type": "error"
        },
        {
          "anonymous": false,
          "inputs": [
            {
              "indexed": true,
              "internalType": "bytes32",
              "name": "role",
              "type": "bytes32"
            },
            {
              "indexed": true,
              "internalType": "bytes32",
              "name": "previousAdminRole",
              "type": "bytes32"
            },
            {
              "indexed": true,
              "internalType": "bytes32",
              "name": "newAdminRole",
              "type": "bytes32"
            }
          ],
          "name": "RoleAdminChanged",
          "type": "event"
        },
        {
          "anonymous": false,
          "inputs": [
            {
              "indexed": true,
              "internalType": "bytes32",
              "name": "role",
              "type": "bytes32"
            },
            {
              "indexed": true,
              "internalType": "address",
              "name": "account",
              "type": "address"
            },
            {
              "indexed": true,
              "internalType": "address",
              "name": "sender",
              "type": "address"
            }
          ],
          "name": "RoleGranted",
          "type": "event"
        },
        {
          "anonymous": false,
          "inputs": [
            {
              "indexed": true,
              "internalType": "bytes32",
              "name": "role",
              "type": "bytes32"
            },
            {
              "indexed": true,
              "internalType": "address",
              "name": "account",
              "type": "address"
            },
            {
              "indexed": true,
              "internalType": "address",
              "name": "sender",
              "type": "address"
            }
          ],
          "name": "RoleRevoked",
          "type": "event"
        },
        {
          "anonymous": false,
          "inputs": [
            {
              "indexed": false,
              "internalType": "address",
              "name": "user",
              "type": "address"
            },
            {
              "indexed": false,
              "internalType": "uint256",
              "name": "projectId",
              "type": "uint256"
            },
            {
              "indexed": false,
              "internalType": "uint256",
              "name": "amount",
              "type": "uint256"
            }
          ],
          "name": "completeProjectEvent",
          "type": "event"
        },
        {
          "anonymous": false,
          "inputs": [
            {
              "indexed": false,
              "internalType": "address",
              "name": "user",
              "type": "address"
            },
            {
              "indexed": false,
              "internalType": "uint256",
              "name": "projectId",
              "type": "uint256"
            },
            {
              "indexed": false,
              "internalType": "address[]",
              "name": "evaluators",
              "type": "address[]"
            }
          ],
          "name": "createEvaluatorOfEvent",
          "type": "event"
        },
        {
          "anonymous": false,
          "inputs": [
            {
              "indexed": false,
              "internalType": "address",
              "name": "evaluatee",
              "type": "address"
            },
            {
              "indexed": false,
              "internalType": "uint256",
              "name": "projectId",
              "type": "uint256"
            },
            {
              "indexed": false,
              "internalType": "uint256",
              "name": "score",
              "type": "uint256"
            },
            {
              "indexed": false,
              "internalType": "string",
              "name": "evaluationFeedback",
              "type": "string"
            }
          ],
          "name": "submitAttestationEvent",
          "type": "event"
        },
        {
          "inputs": [],
          "name": "ADMIN_ROLE",
          "outputs": [
            {
              "internalType": "bytes32",
              "name": "",
              "type": "bytes32"
            }
          ],
          "stateMutability": "view",
          "type": "function"
        },
        {
          "inputs": [],
          "name": "DEFAULT_ADMIN_ROLE",
          "outputs": [
            {
              "internalType": "bytes32",
              "name": "",
              "type": "bytes32"
            }
          ],
          "stateMutability": "view",
          "type": "function"
        },
        {
          "inputs": [],
          "name": "EVALUATEE_ROLE",
          "outputs": [
            {
              "internalType": "bytes32",
              "name": "",
              "type": "bytes32"
            }
          ],
          "stateMutability": "view",
          "type": "function"
        },
        {
          "inputs": [],
          "name": "EVALUATOR_ROLE",
          "outputs": [
            {
              "internalType": "bytes32",
              "name": "",
              "type": "bytes32"
            }
          ],
          "stateMutability": "view",
          "type": "function"
        },
        {
          "inputs": [],
          "name": "OWNER_ROLE",
          "outputs": [
            {
              "internalType": "bytes32",
              "name": "",
              "type": "bytes32"
            }
          ],
          "stateMutability": "view",
          "type": "function"
        },
        {
          "inputs": [
            {
              "internalType": "address",
              "name": "userAddress",
              "type": "address"
            },
            {
              "internalType": "uint256",
              "name": "amount",
              "type": "uint256"
            }
          ],
          "name": "addUserPoints",
          "outputs": [],
          "stateMutability": "nonpayable",
          "type": "function"
        },
        {
          "inputs": [
            {
              "internalType": "address",
              "name": "userAddress",
              "type": "address"
            },
            {
              "internalType": "uint256",
              "name": "projectId",
              "type": "uint256"
            },
            {
              "internalType": "uint256",
              "name": "amount",
              "type": "uint256"
            }
          ],
          "name": "completeProject",
          "outputs": [],
          "stateMutability": "nonpayable",
          "type": "function"
        },
        {
          "inputs": [
            {
              "internalType": "string",
              "name": "username",
              "type": "string"
            }
          ],
          "name": "createUser",
          "outputs": [],
          "stateMutability": "nonpayable",
          "type": "function"
        },
        {
          "inputs": [
            {
              "internalType": "address",
              "name": "",
              "type": "address"
            },
            {
              "internalType": "uint256",
              "name": "",
              "type": "uint256"
            }
          ],
          "name": "evaluatorOf",
          "outputs": [
            {
              "internalType": "address",
              "name": "",
              "type": "address"
            }
          ],
          "stateMutability": "view",
          "type": "function"
        },
        {
          "inputs": [
            {
              "internalType": "bytes32",
              "name": "role",
              "type": "bytes32"
            }
          ],
          "name": "getRoleAdmin",
          "outputs": [
            {
              "internalType": "bytes32",
              "name": "",
              "type": "bytes32"
            }
          ],
          "stateMutability": "view",
          "type": "function"
        },
        {
          "inputs": [
            {
              "internalType": "bytes32",
              "name": "role",
              "type": "bytes32"
            },
            {
              "internalType": "address",
              "name": "account",
              "type": "address"
            }
          ],
          "name": "grantRole",
          "outputs": [],
          "stateMutability": "nonpayable",
          "type": "function"
        },
        {
          "inputs": [
            {
              "internalType": "bytes32",
              "name": "role",
              "type": "bytes32"
            },
            {
              "internalType": "address",
              "name": "account",
              "type": "address"
            }
          ],
          "name": "hasRole",
          "outputs": [
            {
              "internalType": "bool",
              "name": "",
              "type": "bool"
            }
          ],
          "stateMutability": "view",
          "type": "function"
        },
        {
          "inputs": [
            {
              "internalType": "uint256",
              "name": "projectId",
              "type": "uint256"
            }
          ],
          "name": "matchmaking",
          "outputs": [],
          "stateMutability": "nonpayable",
          "type": "function"
        },
        {
          "inputs": [
            {
              "internalType": "bytes32",
              "name": "role",
              "type": "bytes32"
            },
            {
              "internalType": "address",
              "name": "callerConfirmation",
              "type": "address"
            }
          ],
          "name": "renounceRole",
          "outputs": [],
          "stateMutability": "nonpayable",
          "type": "function"
        },
        {
          "inputs": [
            {
              "internalType": "bytes32",
              "name": "role",
              "type": "bytes32"
            },
            {
              "internalType": "address",
              "name": "account",
              "type": "address"
            }
          ],
          "name": "revokeRole",
          "outputs": [],
          "stateMutability": "nonpayable",
          "type": "function"
        },
        {
          "inputs": [
            {
              "internalType": "address",
              "name": "account",
              "type": "address"
            }
          ],
          "name": "setAdmin",
          "outputs": [],
          "stateMutability": "nonpayable",
          "type": "function"
        },
        {
          "inputs": [
            {
              "internalType": "address",
              "name": "instance",
              "type": "address"
            }
          ],
          "name": "setSPInstance",
          "outputs": [],
          "stateMutability": "nonpayable",
          "type": "function"
        },
        {
          "inputs": [
            {
              "internalType": "uint64",
              "name": "schemaId_",
              "type": "uint64"
            }
          ],
          "name": "setSchemaID",
          "outputs": [],
          "stateMutability": "nonpayable",
          "type": "function"
        },
        {
          "inputs": [],
          "name": "spInstance",
          "outputs": [
            {
              "internalType": "contract ISP",
              "name": "",
              "type": "address"
            }
          ],
          "stateMutability": "view",
          "type": "function"
        },
        {
          "inputs": [
            {
              "components": [
                {
                  "internalType": "uint256",
                  "name": "projectId",
                  "type": "uint256"
                },
                {
                  "internalType": "uint256",
                  "name": "score",
                  "type": "uint256"
                },
                {
                  "internalType": "address",
                  "name": "evaluatee",
                  "type": "address"
                },
                {
                  "internalType": "string",
                  "name": "evaluationFeedback",
                  "type": "string"
                }
              ],
              "internalType": "struct PeerReview.Evaluations",
              "name": "evaluationData",
              "type": "tuple"
            }
          ],
          "name": "submitEvaluation",
          "outputs": [
            {
              "internalType": "uint256",
              "name": "",
              "type": "uint256"
            }
          ],
          "stateMutability": "nonpayable",
          "type": "function"
        },
        {
          "inputs": [
            {
              "internalType": "bytes4",
              "name": "interfaceId",
              "type": "bytes4"
            }
          ],
          "name": "supportsInterface",
          "outputs": [
            {
              "internalType": "bool",
              "name": "",
              "type": "bool"
            }
          ],
          "stateMutability": "view",
          "type": "function"
        },
        {
          "inputs": [
            {
              "internalType": "address",
              "name": "account",
              "type": "address"
            }
          ],
          "name": "transferOwnership",
          "outputs": [],
          "stateMutability": "nonpayable",
          "type": "function"
        },
        {
          "inputs": [
            {
              "internalType": "address",
              "name": "",
              "type": "address"
            }
          ],
          "name": "userProfiles",
          "outputs": [
            {
              "internalType": "string",
              "name": "username",
              "type": "string"
            },
            {
              "internalType": "uint256",
              "name": "points",
              "type": "uint256"
            },
            {
              "internalType": "uint256",
              "name": "currentProject",
              "type": "uint256"
            },
            {
              "internalType": "bool",
              "name": "created",
              "type": "bool"
            }
          ],
          "stateMutability": "view",
          "type": "function"
        }
      ],
      "evm": {
        "bytecode": {
          "linkReferences": {},
          "object": "608060405234801561001057600080fd5b506040516134cf3803806134cf83398181016040528101906100329190610277565b80600360006101000a81548167ffffffffffffffff021916908367ffffffffffffffff16021790555061008b7f6270edb7c868f86fda4adedba75108201087268ea345934db8bad688e1feb91b336100c360201b60201c565b506100bc7fdf8b4c520ffe197c5343c6f5aec59570151ef9a492f2c624fd45ddde6135ec42336100c360201b60201c565b50506102a4565b60006100d583836101c060201b60201c565b6101b557600160008085815260200190815260200160002060000160008473ffffffffffffffffffffffffffffffffffffffff1673ffffffffffffffffffffffffffffffffffffffff16815260200190815260200160002060006101000a81548160ff02191690831515021790555061015261022a60201b60201c565b73ffffffffffffffffffffffffffffffffffffffff168273ffffffffffffffffffffffffffffffffffffffff16847f2f8788117e7eff1d82e926ec794901d17c78024a50270940304540a733656f0d60405160405180910390a4600190506101ba565b600090505b92915050565b600080600084815260200190815260200160002060000160008373ffffffffffffffffffffffffffffffffffffffff1673ffffffffffffffffffffffffffffffffffffffff16815260200190815260200160002060009054906101000a900460ff16905092915050565b600033905090565b600080fd5b600067ffffffffffffffff82169050919050565b61025481610237565b811461025f57600080fd5b50565b6000815190506102718161024b565b92915050565b60006020828403121561028d5761028c610232565b5b600061029b84828501610262565b91505092915050565b61321c806102b36000396000f3fe608060405234801561001057600080fd5b506004361061014d5760003560e01c8063697ad3c0116100c3578063a590794f1161007c578063a590794f146103b1578063a89a57df146103cd578063a8c5dc33146103e9578063d547741f14610407578063e58378bb14610423578063f2fde38b146104415761014d565b8063697ad3c0146102f1578063704b6c021461030d57806375b238fc146103295780638e9d660f1461034757806391d1485414610363578063a217fddf146103935761014d565b80632f2ff15d116101155780632f2ff15d1461021c57806330d0ea3114610238578063332d56d71461025657806336568abe14610289578063507ffba5146102a557806357598268146102c15761014d565b806301ffc9a71461015257806305ca8ee3146101825780631163efb91461019e57806323ed747e146101bc578063248a9ca3146101ec575b600080fd5b61016c60048036038101906101679190611d3a565b61045d565b6040516101799190611d82565b60405180910390f35b61019c60048036038101906101979190611ddd565b6104d7565b005b6101a6610538565b6040516101b39190611e23565b60405180910390f35b6101d660048036038101906101d19190611ed2565b61055c565b6040516101e39190611f21565b60405180910390f35b61020660048036038101906102019190611f68565b6105aa565b6040516102139190611e23565b60405180910390f35b61023660048036038101906102319190611f95565b6105c9565b005b6102406105eb565b60405161024d9190611e23565b60405180910390f35b610270600480360381019061026b9190611fd5565b61060e565b60405161028094939291906120a1565b60405180910390f35b6102a3600480360381019061029e9190611f95565b6106d3565b005b6102bf60048036038101906102ba9190612222565b61074e565b005b6102db60048036038101906102d69190612309565b610905565b6040516102e89190612352565b60405180910390f35b61030b60048036038101906103069190611ed2565b610c34565b005b61032760048036038101906103229190611fd5565b610d5c565b005b610331610dbe565b60405161033e9190611e23565b60405180910390f35b610361600480360381019061035c9190611fd5565b610de2565b005b61037d60048036038101906103789190611f95565b610e5b565b60405161038a9190611d82565b60405180910390f35b61039b610ec5565b6040516103a89190611e23565b60405180910390f35b6103cb60048036038101906103c6919061236d565b610ecc565b005b6103e760048036038101906103e291906123c0565b611165565b005b6103f1611758565b6040516103fe919061244c565b60405180910390f35b610421600480360381019061041c9190611f95565b61177e565b005b61042b6117a0565b6040516104389190611e23565b60405180910390f35b61045b60048036038101906104569190611fd5565b6117c4565b005b60007f7965db0b000000000000000000000000000000000000000000000000000000007bffffffffffffffffffffffffffffffffffffffffffffffffffffffff1916827bffffffffffffffffffffffffffffffffffffffffffffffffffffffff191614806104d057506104cf82611850565b5b9050919050565b7f6270edb7c868f86fda4adedba75108201087268ea345934db8bad688e1feb91b6105028133610e5b565b61050b57600080fd5b81600360006101000a81548167ffffffffffffffff021916908367ffffffffffffffff1602179055505050565b7ff322defc376bba64d27c59f0dffa3645eb556d2707692077ad37e9255bed73bb81565b6005602052816000526040600020818154811061057857600080fd5b906000526020600020016000915091509054906101000a900473ffffffffffffffffffffffffffffffffffffffff1681565b6000806000838152602001908152602001600020600101549050919050565b6105d2826105aa565b6105db816118ba565b6105e583836118ce565b50505050565b7e4f13fa3e85221cae6e297e754a8ab58b2ac55382b0b17ca3d53370d4f5633581565b600460205280600052604060002060009150905080600001805461063190612496565b80601f016020809104026020016040519081016040528092919081815260200182805461065d90612496565b80156106aa5780601f1061067f576101008083540402835291602001916106aa565b820191906000526020600020905b81548152906001019060200180831161068d57829003601f168201915b5050505050908060010154908060020154908060040160009054906101000a900460ff16905084565b6106db6119bf565b73ffffffffffffffffffffffffffffffffffffffff168173ffffffffffffffffffffffffffffffffffffffff161461073f576040517f6697b23200000000000000000000000000000000000000000000000000000000815260040160405180910390fd5b61074982826119c7565b505050565b60001515600460003373ffffffffffffffffffffffffffffffffffffffff1673ffffffffffffffffffffffffffffffffffffffff16815260200190815260200160002060040160009054906101000a900460ff161515146107e4576040517f08c379a00000000000000000000000000000000000000000000000000000000081526004016107db90612513565b60405180910390fd5b6040518060a001604052808281526020016000815260200160008152602001600067ffffffffffffffff81111561081e5761081d6120f7565b5b60405190808252806020026020018201604052801561084c5781602001602082028036833780820191505090505b50815260200160011515815250600460003373ffffffffffffffffffffffffffffffffffffffff1673ffffffffffffffffffffffffffffffffffffffff16815260200190815260200160002060008201518160000190816108ad91906126d5565b50602082015181600101556040820151816002015560608201518160030190805190602001906108de929190611c43565b5060808201518160040160006101000a81548160ff02191690831515021790555090505050565b60007e4f13fa3e85221cae6e297e754a8ab58b2ac55382b0b17ca3d53370d4f563356109318133610e5b565b61093a57600080fd5b826040015173ffffffffffffffffffffffffffffffffffffffff163373ffffffffffffffffffffffffffffffffffffffff16146109ac576040517f08c379a00000000000000000000000000000000000000000000000000000000081526004016109a390612819565b60405180910390fd5b6000836000015190506000600167ffffffffffffffff8111156109d2576109d16120f7565b5b604051908082528060200260200182016040528015610a0557816020015b60608152602001906001900390816109f05790505b5090508460400151604051602001610a1d9190611f21565b60405160208183030381529060405281600081518110610a4057610a3f612839565b5b6020026020010181905250600085604051602001610a5e9190612933565b60405160208183030381529060405290506000604051806101400160405280600360009054906101000a900467ffffffffffffffff1667ffffffffffffffff168152602001600067ffffffffffffffff168152602001600067ffffffffffffffff168152602001600067ffffffffffffffff1681526020013373ffffffffffffffffffffffffffffffffffffffff168152602001600067ffffffffffffffff16815260200160006003811115610b1757610b16612955565b5b81526020016000151581526020018481526020018381525090506000600160009054906101000a900473ffffffffffffffffffffffffffffffffffffffff1673ffffffffffffffffffffffffffffffffffffffff1663b82916cb836040518263ffffffff1660e01b8152600401610b8e9190612c3c565b6020604051808303816000875af1158015610bad573d6000803e3d6000fd5b505050506040513d601f19601f82011682018060405250810190610bd19190612cac565b67ffffffffffffffff1690507f305a9f260e4d3c1f2c538e3032a604da7425b5901d9c5d759f27dbedcf6783958860400151868a602001518b60600151604051610c1e9493929190612cd9565b60405180910390a1809650505050505050919050565b7fdf8b4c520ffe197c5343c6f5aec59570151ef9a492f2c624fd45ddde6135ec42610c5f8133610e5b565b610c6857600080fd5b60011515600460008573ffffffffffffffffffffffffffffffffffffffff1673ffffffffffffffffffffffffffffffffffffffff16815260200190815260200160002060040160009054906101000a900460ff16151514610cfe576040517f08c379a0000000000000000000000000000000000000000000000000000000008152600401610cf590612d71565b60405180910390fd5b81600460008573ffffffffffffffffffffffffffffffffffffffff1673ffffffffffffffffffffffffffffffffffffffff1681526020019081526020016000206001016000828254610d509190612dc0565b92505081905550505050565b7f6270edb7c868f86fda4adedba75108201087268ea345934db8bad688e1feb91b610d878133610e5b565b610d9057600080fd5b610dba7fdf8b4c520ffe197c5343c6f5aec59570151ef9a492f2c624fd45ddde6135ec42836105c9565b5050565b7fdf8b4c520ffe197c5343c6f5aec59570151ef9a492f2c624fd45ddde6135ec4281565b7f6270edb7c868f86fda4adedba75108201087268ea345934db8bad688e1feb91b610e0d8133610e5b565b610e1657600080fd5b81600160006101000a81548173ffffffffffffffffffffffffffffffffffffffff021916908373ffffffffffffffffffffffffffffffffffffffff1602179055505050565b600080600084815260200190815260200160002060000160008373ffffffffffffffffffffffffffffffffffffffff1673ffffffffffffffffffffffffffffffffffffffff16815260200190815260200160002060009054906101000a900460ff16905092915050565b6000801b81565b7fdf8b4c520ffe197c5343c6f5aec59570151ef9a492f2c624fd45ddde6135ec42610ef78133610e5b565b610f0057600080fd5b60011515600460008673ffffffffffffffffffffffffffffffffffffffff1673ffffffffffffffffffffffffffffffffffffffff16815260200190815260200160002060040160009054906101000a900460ff16151514610f96576040517f08c379a0000000000000000000000000000000000000000000000000000000008152600401610f8d90612d71565b60405180910390fd5b82600460008673ffffffffffffffffffffffffffffffffffffffff1673ffffffffffffffffffffffffffffffffffffffff168152602001908152602001600020600201541461101a576040517f08c379a000000000000000000000000000000000000000000000000000000000815260040161101190612e66565b60405180910390fd5b81600460008673ffffffffffffffffffffffffffffffffffffffff1673ffffffffffffffffffffffffffffffffffffffff168152602001908152602001600020600101600082825461106c9190612dc0565b92505081905550600460008573ffffffffffffffffffffffffffffffffffffffff1673ffffffffffffffffffffffffffffffffffffffff1681526020019081526020016000206003018390806001815401808255809150506001900390600052602060002001600090919091909150556000600460008673ffffffffffffffffffffffffffffffffffffffff1673ffffffffffffffffffffffffffffffffffffffff168152602001908152602001600020600201819055507fab0cba6e6f4f659868746ec49ac3a984770e64f2da708d53203e4630e17daf8a84848460405161115793929190612e86565b60405180910390a150505050565b60005b600280549050811015611573573373ffffffffffffffffffffffffffffffffffffffff16600282815481106111a05761119f612839565b5b9060005260206000200160009054906101000a900473ffffffffffffffffffffffffffffffffffffffff1673ffffffffffffffffffffffffffffffffffffffff16146115665760006004600060028481548110611200576111ff612839565b5b9060005260206000200160009054906101000a900473ffffffffffffffffffffffffffffffffffffffff1673ffffffffffffffffffffffffffffffffffffffff1673ffffffffffffffffffffffffffffffffffffffff16815260200190815260200160002060010154905060006064600a600460003373ffffffffffffffffffffffffffffffffffffffff1673ffffffffffffffffffffffffffffffffffffffff168152602001908152602001600020600101546112be9190612ebd565b6112c89190612f2e565b905080600460003373ffffffffffffffffffffffffffffffffffffffff1673ffffffffffffffffffffffffffffffffffffffff168152602001908152602001600020600101546113189190612dc0565b8211156113c55760066002848154811061133557611334612839565b5b9060005260206000200160009054906101000a900473ffffffffffffffffffffffffffffffffffffffff169080600181540180825580915050600190039060005260206000200160009091909190916101000a81548173ffffffffffffffffffffffffffffffffffffffff021916908373ffffffffffffffffffffffffffffffffffffffff160217905550611563565b80600460003373ffffffffffffffffffffffffffffffffffffffff1673ffffffffffffffffffffffffffffffffffffffff168152602001908152602001600020600101546114139190612f5f565b8210156114c0576008600284815481106114305761142f612839565b5b9060005260206000200160009054906101000a900473ffffffffffffffffffffffffffffffffffffffff169080600181540180825580915050600190039060005260206000200160009091909190916101000a81548173ffffffffffffffffffffffffffffffffffffffff021916908373ffffffffffffffffffffffffffffffffffffffff160217905550611562565b6007600284815481106114d6576114d5612839565b5b9060005260206000200160009054906101000a900473ffffffffffffffffffffffffffffffffffffffff169080600181540180825580915050600190039060005260206000200160009091909190916101000a81548173ffffffffffffffffffffffffffffffffffffffff021916908373ffffffffffffffffffffffffffffffffffffffff1602179055505b5b50505b8080600101915050611168565b50600060068054905011156115de576000611592600680549050611ab9565b90506115dc600682815481106115ab576115aa612839565b5b9060005260206000200160009054906101000a900473ffffffffffffffffffffffffffffffffffffffff1633611afb565b505b600060078054905011156116485760006115fc600780549050611ab9565b90506116466007828154811061161557611614612839565b5b9060005260206000200160009054906101000a900473ffffffffffffffffffffffffffffffffffffffff1633611afb565b505b600060088054905011156116b2576000611666600880549050611ab9565b90506116b06008828154811061167f5761167e612839565b5b9060005260206000200160009054906101000a900473ffffffffffffffffffffffffffffffffffffffff1633611afb565b505b600660006116c09190611c90565b600760006116ce9190611c90565b600860006116dc9190611c90565b7f678658d9f1fe0c70d4af48cd4f90bedffba7c52b6c30d6510050749b1d6bc43e3382600560003373ffffffffffffffffffffffffffffffffffffffff1673ffffffffffffffffffffffffffffffffffffffff16815260200190815260200160002060405161174d939291906130a8565b60405180910390a150565b600160009054906101000a900473ffffffffffffffffffffffffffffffffffffffff1681565b611787826105aa565b611790816118ba565b61179a83836119c7565b50505050565b7f6270edb7c868f86fda4adedba75108201087268ea345934db8bad688e1feb91b81565b7f6270edb7c868f86fda4adedba75108201087268ea345934db8bad688e1feb91b6117ef8133610e5b565b6117f857600080fd5b6118227f6270edb7c868f86fda4adedba75108201087268ea345934db8bad688e1feb91b836105c9565b61184c7f6270edb7c868f86fda4adedba75108201087268ea345934db8bad688e1feb91b3361177e565b5050565b60007f01ffc9a7000000000000000000000000000000000000000000000000000000007bffffffffffffffffffffffffffffffffffffffffffffffffffffffff1916827bffffffffffffffffffffffffffffffffffffffffffffffffffffffff1916149050919050565b6118cb816118c66119bf565b611bf2565b50565b60006118da8383610e5b565b6119b457600160008085815260200190815260200160002060000160008473ffffffffffffffffffffffffffffffffffffffff1673ffffffffffffffffffffffffffffffffffffffff16815260200190815260200160002060006101000a81548160ff0219169083151502179055506119516119bf565b73ffffffffffffffffffffffffffffffffffffffff168273ffffffffffffffffffffffffffffffffffffffff16847f2f8788117e7eff1d82e926ec794901d17c78024a50270940304540a733656f0d60405160405180910390a4600190506119b9565b600090505b92915050565b600033905090565b60006119d38383610e5b565b15611aae57600080600085815260200190815260200160002060000160008473ffffffffffffffffffffffffffffffffffffffff1673ffffffffffffffffffffffffffffffffffffffff16815260200190815260200160002060006101000a81548160ff021916908315150217905550611a4b6119bf565b73ffffffffffffffffffffffffffffffffffffffff168273ffffffffffffffffffffffffffffffffffffffff16847ff6391f5c32d9c69d2a47ea670b442974b53935d1edc7fd64eb21e047a839171b60405160405180910390a460019050611ab3565b600090505b92915050565b600081424433604051602001611ad19392919061314f565b6040516020818303038152906040528051906020012060001c611af4919061318c565b9050919050565b611b247e4f13fa3e85221cae6e297e754a8ab58b2ac55382b0b17ca3d53370d4f56335836105c9565b611b4e7ff322defc376bba64d27c59f0dffa3645eb556d2707692077ad37e9255bed73bb826105c9565b600560008273ffffffffffffffffffffffffffffffffffffffff1673ffffffffffffffffffffffffffffffffffffffff168152602001908152602001600020829080600181540180825580915050600190039060005260206000200160009091909190916101000a81548173ffffffffffffffffffffffffffffffffffffffff021916908373ffffffffffffffffffffffffffffffffffffffff1602179055505050565b611bfc8282610e5b565b611c3f5780826040517fe2517d3f000000000000000000000000000000000000000000000000000000008152600401611c369291906131bd565b60405180910390fd5b5050565b828054828255906000526020600020908101928215611c7f579160200282015b82811115611c7e578251825591602001919060010190611c63565b5b509050611c8c9190611cb1565b5090565b5080546000825590600052602060002090810190611cae9190611cb1565b50565b5b80821115611cca576000816000905550600101611cb2565b5090565b6000604051905090565b600080fd5b600080fd5b60007fffffffff0000000000000000000000000000000000000000000000000000000082169050919050565b611d1781611ce2565b8114611d2257600080fd5b50565b600081359050611d3481611d0e565b92915050565b600060208284031215611d5057611d4f611cd8565b5b6000611d5e84828501611d25565b91505092915050565b60008115159050919050565b611d7c81611d67565b82525050565b6000602082019050611d976000830184611d73565b92915050565b600067ffffffffffffffff82169050919050565b611dba81611d9d565b8114611dc557600080fd5b50565b600081359050611dd781611db1565b92915050565b600060208284031215611df357611df2611cd8565b5b6000611e0184828501611dc8565b91505092915050565b6000819050919050565b611e1d81611e0a565b82525050565b6000602082019050611e386000830184611e14565b92915050565b600073ffffffffffffffffffffffffffffffffffffffff82169050919050565b6000611e6982611e3e565b9050919050565b611e7981611e5e565b8114611e8457600080fd5b50565b600081359050611e9681611e70565b92915050565b6000819050919050565b611eaf81611e9c565b8114611eba57600080fd5b50565b600081359050611ecc81611ea6565b92915050565b60008060408385031215611ee957611ee8611cd8565b5b6000611ef785828601611e87565b9250506020611f0885828601611ebd565b9150509250929050565b611f1b81611e5e565b82525050565b6000602082019050611f366000830184611f12565b92915050565b611f4581611e0a565b8114611f5057600080fd5b50565b600081359050611f6281611f3c565b92915050565b600060208284031215611f7e57611f7d611cd8565b5b6000611f8c84828501611f53565b91505092915050565b60008060408385031215611fac57611fab611cd8565b5b6000611fba85828601611f53565b9250506020611fcb85828601611e87565b9150509250929050565b600060208284031215611feb57611fea611cd8565b5b6000611ff984828501611e87565b91505092915050565b600081519050919050565b600082825260208201905092915050565b60005b8381101561203c578082015181840152602081019050612021565b60008484015250505050565b6000601f19601f8301169050919050565b600061206482612002565b61206e818561200d565b935061207e81856020860161201e565b61208781612048565b840191505092915050565b61209b81611e9c565b82525050565b600060808201905081810360008301526120bb8187612059565b90506120ca6020830186612092565b6120d76040830185612092565b6120e46060830184611d73565b95945050505050565b600080fd5b600080fd5b7f4e487b7100000000000000000000000000000000000000000000000000000000600052604160045260246000fd5b61212f82612048565b810181811067ffffffffffffffff8211171561214e5761214d6120f7565b5b80604052505050565b6000612161611cce565b905061216d8282612126565b919050565b600067ffffffffffffffff82111561218d5761218c6120f7565b5b61219682612048565b9050602081019050919050565b82818337600083830152505050565b60006121c56121c084612172565b612157565b9050828152602081018484840111156121e1576121e06120f2565b5b6121ec8482856121a3565b509392505050565b600082601f830112612209576122086120ed565b5b81356122198482602086016121b2565b91505092915050565b60006020828403121561223857612237611cd8565b5b600082013567ffffffffffffffff81111561225657612255611cdd565b5b612262848285016121f4565b91505092915050565b600080fd5b600080fd5b60006080828403121561228b5761228a61226b565b5b6122956080612157565b905060006122a584828501611ebd565b60008301525060206122b984828501611ebd565b60208301525060406122cd84828501611e87565b604083015250606082013567ffffffffffffffff8111156122f1576122f0612270565b5b6122fd848285016121f4565b60608301525092915050565b60006020828403121561231f5761231e611cd8565b5b600082013567ffffffffffffffff81111561233d5761233c611cdd565b5b61234984828501612275565b91505092915050565b60006020820190506123676000830184612092565b92915050565b60008060006060848603121561238657612385611cd8565b5b600061239486828701611e87565b93505060206123a586828701611ebd565b92505060406123b686828701611ebd565b9150509250925092565b6000602082840312156123d6576123d5611cd8565b5b60006123e484828501611ebd565b91505092915050565b6000819050919050565b600061241261240d61240884611e3e565b6123ed565b611e3e565b9050919050565b6000612424826123f7565b9050919050565b600061243682612419565b9050919050565b6124468161242b565b82525050565b6000602082019050612461600083018461243d565b92915050565b7f4e487b7100000000000000000000000000000000000000000000000000000000600052602260045260246000fd5b600060028204905060018216806124ae57607f821691505b6020821081036124c1576124c0612467565b5b50919050565b7f5573657220616c72656164792065786973747300000000000000000000000000600082015250565b60006124fd60138361200d565b9150612508826124c7565b602082019050919050565b6000602082019050818103600083015261252c816124f0565b9050919050565b60008190508160005260206000209050919050565b60006020601f8301049050919050565b600082821b905092915050565b6000600883026125957fffffffffffffffffffffffffffffffffffffffffffffffffffffffffffffffff82612558565b61259f8683612558565b95508019841693508086168417925050509392505050565b60006125d26125cd6125c884611e9c565b6123ed565b611e9c565b9050919050565b6000819050919050565b6125ec836125b7565b6126006125f8826125d9565b848454612565565b825550505050565b600090565b612615612608565b6126208184846125e3565b505050565b5b818110156126445761263960008261260d565b600181019050612626565b5050565b601f8211156126895761265a81612533565b61266384612548565b81016020851015612672578190505b61268661267e85612548565b830182612625565b50505b505050565b600082821c905092915050565b60006126ac6000198460080261268e565b1980831691505092915050565b60006126c5838361269b565b9150826002028217905092915050565b6126de82612002565b67ffffffffffffffff8111156126f7576126f66120f7565b5b6127018254612496565b61270c828285612648565b600060209050601f83116001811461273f576000841561272d578287015190505b61273785826126b9565b86555061279f565b601f19841661274d86612533565b60005b8281101561277557848901518255600182019150602085019450602081019050612750565b86831015612792578489015161278e601f89168261269b565b8355505b6001600288020188555050505b505050505050565b7f546869732075736572206e6f7420617574686f72697a656420746f206576616c60008201527f7561746520746865206576616c75617465652e00000000000000000000000000602082015250565b600061280360338361200d565b915061280e826127a7565b604082019050919050565b60006020820190508181036000830152612832816127f6565b9050919050565b7f4e487b7100000000000000000000000000000000000000000000000000000000600052603260045260246000fd5b61287181611e9c565b82525050565b61288081611e5e565b82525050565b600082825260208201905092915050565b60006128a282612002565b6128ac8185612886565b93506128bc81856020860161201e565b6128c581612048565b840191505092915050565b60006080830160008301516128e86000860182612868565b5060208301516128fb6020860182612868565b50604083015161290e6040860182612877565b50606083015184820360608601526129268282612897565b9150508091505092915050565b6000602082019050818103600083015261294d81846128d0565b905092915050565b7f4e487b7100000000000000000000000000000000000000000000000000000000600052602160045260246000fd5b61298d81611d9d565b82525050565b600481106129a4576129a3612955565b5b50565b60008190506129b582612993565b919050565b60006129c5826129a7565b9050919050565b6129d5816129ba565b82525050565b6129e481611d67565b82525050565b600081519050919050565b600082825260208201905092915050565b6000819050602082019050919050565b600081519050919050565b600082825260208201905092915050565b6000612a3d82612a16565b612a478185612a21565b9350612a5781856020860161201e565b612a6081612048565b840191505092915050565b6000612a778383612a32565b905092915050565b6000602082019050919050565b6000612a97826129ea565b612aa181856129f5565b935083602082028501612ab385612a06565b8060005b85811015612aef5784840389528151612ad08582612a6b565b9450612adb83612a7f565b925060208a01995050600181019050612ab7565b50829750879550505050505092915050565b600061014083016000830151612b1a6000860182612984565b506020830151612b2d6020860182612984565b506040830151612b406040860182612984565b506060830151612b536060860182612984565b506080830151612b666080860182612877565b5060a0830151612b7960a0860182612984565b5060c0830151612b8c60c08601826129cc565b5060e0830151612b9f60e08601826129db565b50610100830151848203610100860152612bb98282612a8c565b915050610120830151848203610120860152612bd58282612a32565b9150508091505092915050565b50565b6000612bf260008361200d565b9150612bfd82612be2565b600082019050919050565b600082825260208201905092915050565b6000612c26600083612c08565b9150612c3182612be2565b600082019050919050565b60006080820190508181036000830152612c568184612b01565b90508181036020830152612c6981612be5565b90508181036040830152612c7c81612c19565b90508181036060830152612c8f81612c19565b905092915050565b600081519050612ca681611db1565b92915050565b600060208284031215612cc257612cc1611cd8565b5b6000612cd084828501612c97565b91505092915050565b6000608082019050612cee6000830187611f12565b612cfb6020830186612092565b612d086040830185612092565b8181036060830152612d1a8184612059565b905095945050505050565b7f5573657220646f6573206e6f7420657869737473000000000000000000000000600082015250565b6000612d5b60148361200d565b9150612d6682612d25565b602082019050919050565b60006020820190508181036000830152612d8a81612d4e565b9050919050565b7f4e487b7100000000000000000000000000000000000000000000000000000000600052601160045260246000fd5b6000612dcb82611e9c565b9150612dd683611e9c565b9250828201905080821115612dee57612ded612d91565b5b92915050565b7f50726f6a65637420686173206e6f74207374617274656420627920746869732060008201527f7573657200000000000000000000000000000000000000000000000000000000602082015250565b6000612e5060248361200d565b9150612e5b82612df4565b604082019050919050565b60006020820190508181036000830152612e7f81612e43565b9050919050565b6000606082019050612e9b6000830186611f12565b612ea86020830185612092565b612eb56040830184612092565b949350505050565b6000612ec882611e9c565b9150612ed383611e9c565b9250828202612ee181611e9c565b91508282048414831517612ef857612ef7612d91565b5b5092915050565b7f4e487b7100000000000000000000000000000000000000000000000000000000600052601260045260246000fd5b6000612f3982611e9c565b9150612f4483611e9c565b925082612f5457612f53612eff565b5b828204905092915050565b6000612f6a82611e9c565b9150612f7583611e9c565b9250828203905081811115612f8d57612f8c612d91565b5b92915050565b600081549050919050565b600082825260208201905092915050565b60008190508160005260206000209050919050565b6000612fd08383612877565b60208301905092915050565b60008160001c9050919050565b600073ffffffffffffffffffffffffffffffffffffffff82169050919050565b600061301c61301783612fdc565b612fe9565b9050919050565b600061302f8254613009565b9050919050565b6000600182019050919050565b600061304e82612f93565b6130588185612f9e565b935061306383612faf565b8060005b8381101561309b5761307882613023565b6130828882612fc4565b975061308d83613036565b925050600181019050613067565b5085935050505092915050565b60006060820190506130bd6000830186611f12565b6130ca6020830185612092565b81810360408301526130dc8184613043565b9050949350505050565b6000819050919050565b6131016130fc82611e9c565b6130e6565b82525050565b60008160601b9050919050565b600061311f82613107565b9050919050565b600061313182613114565b9050919050565b61314961314482611e5e565b613126565b82525050565b600061315b82866130f0565b60208201915061316b82856130f0565b60208201915061317b8284613138565b601482019150819050949350505050565b600061319782611e9c565b91506131a283611e9c565b9250826131b2576131b1612eff565b5b828206905092915050565b60006040820190506131d26000830185611f12565b6131df6020830184611e14565b939250505056fea2646970667358221220587e1fb9d63486363dd9939e631e62b32dda37df38fd3d2a821357d91bd226ad64736f6c634300081b0033",
          "opcodes": "PUSH1 0x80 PUSH1 0x40 MSTORE CALLVALUE DUP1 ISZERO PUSH2 0x10 JUMPI PUSH1 0x0 DUP1 REVERT JUMPDEST POP PUSH1 0x40 MLOAD PUSH2 0x34CF CODESIZE SUB DUP1 PUSH2 0x34CF DUP4 CODECOPY DUP2 DUP2 ADD PUSH1 0x40 MSTORE DUP2 ADD SWAP1 PUSH2 0x32 SWAP2 SWAP1 PUSH2 0x277 JUMP JUMPDEST DUP1 PUSH1 0x3 PUSH1 0x0 PUSH2 0x100 EXP DUP2 SLOAD DUP2 PUSH8 0xFFFFFFFFFFFFFFFF MUL NOT AND SWAP1 DUP4 PUSH8 0xFFFFFFFFFFFFFFFF AND MUL OR SWAP1 SSTORE POP PUSH2 0x8B PUSH32 0x6270EDB7C868F86FDA4ADEDBA75108201087268EA345934DB8BAD688E1FEB91B CALLER PUSH2 0xC3 PUSH1 0x20 SHL PUSH1 0x20 SHR JUMP JUMPDEST POP PUSH2 0xBC PUSH32 0xDF8B4C520FFE197C5343C6F5AEC59570151EF9A492F2C624FD45DDDE6135EC42 CALLER PUSH2 0xC3 PUSH1 0x20 SHL PUSH1 0x20 SHR JUMP JUMPDEST POP POP PUSH2 0x2A4 JUMP JUMPDEST PUSH1 0x0 PUSH2 0xD5 DUP4 DUP4 PUSH2 0x1C0 PUSH1 0x20 SHL PUSH1 0x20 SHR JUMP JUMPDEST PUSH2 0x1B5 JUMPI PUSH1 0x1 PUSH1 0x0 DUP1 DUP6 DUP2 MSTORE PUSH1 0x20 ADD SWAP1 DUP2 MSTORE PUSH1 0x20 ADD PUSH1 0x0 KECCAK256 PUSH1 0x0 ADD PUSH1 0x0 DUP5 PUSH20 0xFFFFFFFFFFFFFFFFFFFFFFFFFFFFFFFFFFFFFFFF AND PUSH20 0xFFFFFFFFFFFFFFFFFFFFFFFFFFFFFFFFFFFFFFFF AND DUP2 MSTORE PUSH1 0x20 ADD SWAP1 DUP2 MSTORE PUSH1 0x20 ADD PUSH1 0x0 KECCAK256 PUSH1 0x0 PUSH2 0x100 EXP DUP2 SLOAD DUP2 PUSH1 0xFF MUL NOT AND SWAP1 DUP4 ISZERO ISZERO MUL OR SWAP1 SSTORE POP PUSH2 0x152 PUSH2 0x22A PUSH1 0x20 SHL PUSH1 0x20 SHR JUMP JUMPDEST PUSH20 0xFFFFFFFFFFFFFFFFFFFFFFFFFFFFFFFFFFFFFFFF AND DUP3 PUSH20 0xFFFFFFFFFFFFFFFFFFFFFFFFFFFFFFFFFFFFFFFF AND DUP5 PUSH32 0x2F8788117E7EFF1D82E926EC794901D17C78024A50270940304540A733656F0D PUSH1 0x40 MLOAD PUSH1 0x40 MLOAD DUP1 SWAP2 SUB SWAP1 LOG4 PUSH1 0x1 SWAP1 POP PUSH2 0x1BA JUMP JUMPDEST PUSH1 0x0 SWAP1 POP JUMPDEST SWAP3 SWAP2 POP POP JUMP JUMPDEST PUSH1 0x0 DUP1 PUSH1 0x0 DUP5 DUP2 MSTORE PUSH1 0x20 ADD SWAP1 DUP2 MSTORE PUSH1 0x20 ADD PUSH1 0x0 KECCAK256 PUSH1 0x0 ADD PUSH1 0x0 DUP4 PUSH20 0xFFFFFFFFFFFFFFFFFFFFFFFFFFFFFFFFFFFFFFFF AND PUSH20 0xFFFFFFFFFFFFFFFFFFFFFFFFFFFFFFFFFFFFFFFF AND DUP2 MSTORE PUSH1 0x20 ADD SWAP1 DUP2 MSTORE PUSH1 0x20 ADD PUSH1 0x0 KECCAK256 PUSH1 0x0 SWAP1 SLOAD SWAP1 PUSH2 0x100 EXP SWAP1 DIV PUSH1 0xFF AND SWAP1 POP SWAP3 SWAP2 POP POP JUMP JUMPDEST PUSH1 0x0 CALLER SWAP1 POP SWAP1 JUMP JUMPDEST PUSH1 0x0 DUP1 REVERT JUMPDEST PUSH1 0x0 PUSH8 0xFFFFFFFFFFFFFFFF DUP3 AND SWAP1 POP SWAP2 SWAP1 POP JUMP JUMPDEST PUSH2 0x254 DUP2 PUSH2 0x237 JUMP JUMPDEST DUP2 EQ PUSH2 0x25F JUMPI PUSH1 0x0 DUP1 REVERT JUMPDEST POP JUMP JUMPDEST PUSH1 0x0 DUP2 MLOAD SWAP1 POP PUSH2 0x271 DUP2 PUSH2 0x24B JUMP JUMPDEST SWAP3 SWAP2 POP POP JUMP JUMPDEST PUSH1 0x0 PUSH1 0x20 DUP3 DUP5 SUB SLT ISZERO PUSH2 0x28D JUMPI PUSH2 0x28C PUSH2 0x232 JUMP JUMPDEST JUMPDEST PUSH1 0x0 PUSH2 0x29B DUP5 DUP3 DUP6 ADD PUSH2 0x262 JUMP JUMPDEST SWAP2 POP POP SWAP3 SWAP2 POP POP JUMP JUMPDEST PUSH2 0x321C DUP1 PUSH2 0x2B3 PUSH1 0x0 CODECOPY PUSH1 0x0 RETURN INVALID PUSH1 0x80 PUSH1 0x40 MSTORE CALLVALUE DUP1 ISZERO PUSH2 0x10 JUMPI PUSH1 0x0 DUP1 REVERT JUMPDEST POP PUSH1 0x4 CALLDATASIZE LT PUSH2 0x14D JUMPI PUSH1 0x0 CALLDATALOAD PUSH1 0xE0 SHR DUP1 PUSH4 0x697AD3C0 GT PUSH2 0xC3 JUMPI DUP1 PUSH4 0xA590794F GT PUSH2 0x7C JUMPI DUP1 PUSH4 0xA590794F EQ PUSH2 0x3B1 JUMPI DUP1 PUSH4 0xA89A57DF EQ PUSH2 0x3CD JUMPI DUP1 PUSH4 0xA8C5DC33 EQ PUSH2 0x3E9 JUMPI DUP1 PUSH4 0xD547741F EQ PUSH2 0x407 JUMPI DUP1 PUSH4 0xE58378BB EQ PUSH2 0x423 JUMPI DUP1 PUSH4 0xF2FDE38B EQ PUSH2 0x441 JUMPI PUSH2 0x14D JUMP JUMPDEST DUP1 PUSH4 0x697AD3C0 EQ PUSH2 0x2F1 JUMPI DUP1 PUSH4 0x704B6C02 EQ PUSH2 0x30D JUMPI DUP1 PUSH4 0x75B238FC EQ PUSH2 0x329 JUMPI DUP1 PUSH4 0x8E9D660F EQ PUSH2 0x347 JUMPI DUP1 PUSH4 0x91D14854 EQ PUSH2 0x363 JUMPI DUP1 PUSH4 0xA217FDDF EQ PUSH2 0x393 JUMPI PUSH2 0x14D JUMP JUMPDEST DUP1 PUSH4 0x2F2FF15D GT PUSH2 0x115 JUMPI DUP1 PUSH4 0x2F2FF15D EQ PUSH2 0x21C JUMPI DUP1 PUSH4 0x30D0EA31 EQ PUSH2 0x238 JUMPI DUP1 PUSH4 0x332D56D7 EQ PUSH2 0x256 JUMPI DUP1 PUSH4 0x36568ABE EQ PUSH2 0x289 JUMPI DUP1 PUSH4 0x507FFBA5 EQ PUSH2 0x2A5 JUMPI DUP1 PUSH4 0x57598268 EQ PUSH2 0x2C1 JUMPI PUSH2 0x14D JUMP JUMPDEST DUP1 PUSH4 0x1FFC9A7 EQ PUSH2 0x152 JUMPI DUP1 PUSH4 0x5CA8EE3 EQ PUSH2 0x182 JUMPI DUP1 PUSH4 0x1163EFB9 EQ PUSH2 0x19E JUMPI DUP1 PUSH4 0x23ED747E EQ PUSH2 0x1BC JUMPI DUP1 PUSH4 0x248A9CA3 EQ PUSH2 0x1EC JUMPI JUMPDEST PUSH1 0x0 DUP1 REVERT JUMPDEST PUSH2 0x16C PUSH1 0x4 DUP1 CALLDATASIZE SUB DUP2 ADD SWAP1 PUSH2 0x167 SWAP2 SWAP1 PUSH2 0x1D3A JUMP JUMPDEST PUSH2 0x45D JUMP JUMPDEST PUSH1 0x40 MLOAD PUSH2 0x179 SWAP2 SWAP1 PUSH2 0x1D82 JUMP JUMPDEST PUSH1 0x40 MLOAD DUP1 SWAP2 SUB SWAP1 RETURN JUMPDEST PUSH2 0x19C PUSH1 0x4 DUP1 CALLDATASIZE SUB DUP2 ADD SWAP1 PUSH2 0x197 SWAP2 SWAP1 PUSH2 0x1DDD JUMP JUMPDEST PUSH2 0x4D7 JUMP JUMPDEST STOP JUMPDEST PUSH2 0x1A6 PUSH2 0x538 JUMP JUMPDEST PUSH1 0x40 MLOAD PUSH2 0x1B3 SWAP2 SWAP1 PUSH2 0x1E23 JUMP JUMPDEST PUSH1 0x40 MLOAD DUP1 SWAP2 SUB SWAP1 RETURN JUMPDEST PUSH2 0x1D6 PUSH1 0x4 DUP1 CALLDATASIZE SUB DUP2 ADD SWAP1 PUSH2 0x1D1 SWAP2 SWAP1 PUSH2 0x1ED2 JUMP JUMPDEST PUSH2 0x55C JUMP JUMPDEST PUSH1 0x40 MLOAD PUSH2 0x1E3 SWAP2 SWAP1 PUSH2 0x1F21 JUMP JUMPDEST PUSH1 0x40 MLOAD DUP1 SWAP2 SUB SWAP1 RETURN JUMPDEST PUSH2 0x206 PUSH1 0x4 DUP1 CALLDATASIZE SUB DUP2 ADD SWAP1 PUSH2 0x201 SWAP2 SWAP1 PUSH2 0x1F68 JUMP JUMPDEST PUSH2 0x5AA JUMP JUMPDEST PUSH1 0x40 MLOAD PUSH2 0x213 SWAP2 SWAP1 PUSH2 0x1E23 JUMP JUMPDEST PUSH1 0x40 MLOAD DUP1 SWAP2 SUB SWAP1 RETURN JUMPDEST PUSH2 0x236 PUSH1 0x4 DUP1 CALLDATASIZE SUB DUP2 ADD SWAP1 PUSH2 0x231 SWAP2 SWAP1 PUSH2 0x1F95 JUMP JUMPDEST PUSH2 0x5C9 JUMP JUMPDEST STOP JUMPDEST PUSH2 0x240 PUSH2 0x5EB JUMP JUMPDEST PUSH1 0x40 MLOAD PUSH2 0x24D SWAP2 SWAP1 PUSH2 0x1E23 JUMP JUMPDEST PUSH1 0x40 MLOAD DUP1 SWAP2 SUB SWAP1 RETURN JUMPDEST PUSH2 0x270 PUSH1 0x4 DUP1 CALLDATASIZE SUB DUP2 ADD SWAP1 PUSH2 0x26B SWAP2 SWAP1 PUSH2 0x1FD5 JUMP JUMPDEST PUSH2 0x60E JUMP JUMPDEST PUSH1 0x40 MLOAD PUSH2 0x280 SWAP5 SWAP4 SWAP3 SWAP2 SWAP1 PUSH2 0x20A1 JUMP JUMPDEST PUSH1 0x40 MLOAD DUP1 SWAP2 SUB SWAP1 RETURN JUMPDEST PUSH2 0x2A3 PUSH1 0x4 DUP1 CALLDATASIZE SUB DUP2 ADD SWAP1 PUSH2 0x29E SWAP2 SWAP1 PUSH2 0x1F95 JUMP JUMPDEST PUSH2 0x6D3 JUMP JUMPDEST STOP JUMPDEST PUSH2 0x2BF PUSH1 0x4 DUP1 CALLDATASIZE SUB DUP2 ADD SWAP1 PUSH2 0x2BA SWAP2 SWAP1 PUSH2 0x2222 JUMP JUMPDEST PUSH2 0x74E JUMP JUMPDEST STOP JUMPDEST PUSH2 0x2DB PUSH1 0x4 DUP1 CALLDATASIZE SUB DUP2 ADD SWAP1 PUSH2 0x2D6 SWAP2 SWAP1 PUSH2 0x2309 JUMP JUMPDEST PUSH2 0x905 JUMP JUMPDEST PUSH1 0x40 MLOAD PUSH2 0x2E8 SWAP2 SWAP1 PUSH2 0x2352 JUMP JUMPDEST PUSH1 0x40 MLOAD DUP1 SWAP2 SUB SWAP1 RETURN JUMPDEST PUSH2 0x30B PUSH1 0x4 DUP1 CALLDATASIZE SUB DUP2 ADD SWAP1 PUSH2 0x306 SWAP2 SWAP1 PUSH2 0x1ED2 JUMP JUMPDEST PUSH2 0xC34 JUMP JUMPDEST STOP JUMPDEST PUSH2 0x327 PUSH1 0x4 DUP1 CALLDATASIZE SUB DUP2 ADD SWAP1 PUSH2 0x322 SWAP2 SWAP1 PUSH2 0x1FD5 JUMP JUMPDEST PUSH2 0xD5C JUMP JUMPDEST STOP JUMPDEST PUSH2 0x331 PUSH2 0xDBE JUMP JUMPDEST PUSH1 0x40 MLOAD PUSH2 0x33E SWAP2 SWAP1 PUSH2 0x1E23 JUMP JUMPDEST PUSH1 0x40 MLOAD DUP1 SWAP2 SUB SWAP1 RETURN JUMPDEST PUSH2 0x361 PUSH1 0x4 DUP1 CALLDATASIZE SUB DUP2 ADD SWAP1 PUSH2 0x35C SWAP2 SWAP1 PUSH2 0x1FD5 JUMP JUMPDEST PUSH2 0xDE2 JUMP JUMPDEST STOP JUMPDEST PUSH2 0x37D PUSH1 0x4 DUP1 CALLDATASIZE SUB DUP2 ADD SWAP1 PUSH2 0x378 SWAP2 SWAP1 PUSH2 0x1F95 JUMP JUMPDEST PUSH2 0xE5B JUMP JUMPDEST PUSH1 0x40 MLOAD PUSH2 0x38A SWAP2 SWAP1 PUSH2 0x1D82 JUMP JUMPDEST PUSH1 0x40 MLOAD DUP1 SWAP2 SUB SWAP1 RETURN JUMPDEST PUSH2 0x39B PUSH2 0xEC5 JUMP JUMPDEST PUSH1 0x40 MLOAD PUSH2 0x3A8 SWAP2 SWAP1 PUSH2 0x1E23 JUMP JUMPDEST PUSH1 0x40 MLOAD DUP1 SWAP2 SUB SWAP1 RETURN JUMPDEST PUSH2 0x3CB PUSH1 0x4 DUP1 CALLDATASIZE SUB DUP2 ADD SWAP1 PUSH2 0x3C6 SWAP2 SWAP1 PUSH2 0x236D JUMP JUMPDEST PUSH2 0xECC JUMP JUMPDEST STOP JUMPDEST PUSH2 0x3E7 PUSH1 0x4 DUP1 CALLDATASIZE SUB DUP2 ADD SWAP1 PUSH2 0x3E2 SWAP2 SWAP1 PUSH2 0x23C0 JUMP JUMPDEST PUSH2 0x1165 JUMP JUMPDEST STOP JUMPDEST PUSH2 0x3F1 PUSH2 0x1758 JUMP JUMPDEST PUSH1 0x40 MLOAD PUSH2 0x3FE SWAP2 SWAP1 PUSH2 0x244C JUMP JUMPDEST PUSH1 0x40 MLOAD DUP1 SWAP2 SUB SWAP1 RETURN JUMPDEST PUSH2 0x421 PUSH1 0x4 DUP1 CALLDATASIZE SUB DUP2 ADD SWAP1 PUSH2 0x41C SWAP2 SWAP1 PUSH2 0x1F95 JUMP JUMPDEST PUSH2 0x177E JUMP JUMPDEST STOP JUMPDEST PUSH2 0x42B PUSH2 0x17A0 JUMP JUMPDEST PUSH1 0x40 MLOAD PUSH2 0x438 SWAP2 SWAP1 PUSH2 0x1E23 JUMP JUMPDEST PUSH1 0x40 MLOAD DUP1 SWAP2 SUB SWAP1 RETURN JUMPDEST PUSH2 0x45B PUSH1 0x4 DUP1 CALLDATASIZE SUB DUP2 ADD SWAP1 PUSH2 0x456 SWAP2 SWAP1 PUSH2 0x1FD5 JUMP JUMPDEST PUSH2 0x17C4 JUMP JUMPDEST STOP JUMPDEST PUSH1 0x0 PUSH32 0x7965DB0B00000000000000000000000000000000000000000000000000000000 PUSH28 0xFFFFFFFFFFFFFFFFFFFFFFFFFFFFFFFFFFFFFFFFFFFFFFFFFFFFFFFF NOT AND DUP3 PUSH28 0xFFFFFFFFFFFFFFFFFFFFFFFFFFFFFFFFFFFFFFFFFFFFFFFFFFFFFFFF NOT AND EQ DUP1 PUSH2 0x4D0 JUMPI POP PUSH2 0x4CF DUP3 PUSH2 0x1850 JUMP JUMPDEST JUMPDEST SWAP1 POP SWAP2 SWAP1 POP JUMP JUMPDEST PUSH32 0x6270EDB7C868F86FDA4ADEDBA75108201087268EA345934DB8BAD688E1FEB91B PUSH2 0x502 DUP2 CALLER PUSH2 0xE5B JUMP JUMPDEST PUSH2 0x50B JUMPI PUSH1 0x0 DUP1 REVERT JUMPDEST DUP2 PUSH1 0x3 PUSH1 0x0 PUSH2 0x100 EXP DUP2 SLOAD DUP2 PUSH8 0xFFFFFFFFFFFFFFFF MUL NOT AND SWAP1 DUP4 PUSH8 0xFFFFFFFFFFFFFFFF AND MUL OR SWAP1 SSTORE POP POP POP JUMP JUMPDEST PUSH32 0xF322DEFC376BBA64D27C59F0DFFA3645EB556D2707692077AD37E9255BED73BB DUP2 JUMP JUMPDEST PUSH1 0x5 PUSH1 0x20 MSTORE DUP2 PUSH1 0x0 MSTORE PUSH1 0x40 PUSH1 0x0 KECCAK256 DUP2 DUP2 SLOAD DUP2 LT PUSH2 0x578 JUMPI PUSH1 0x0 DUP1 REVERT JUMPDEST SWAP1 PUSH1 0x0 MSTORE PUSH1 0x20 PUSH1 0x0 KECCAK256 ADD PUSH1 0x0 SWAP2 POP SWAP2 POP SWAP1 SLOAD SWAP1 PUSH2 0x100 EXP SWAP1 DIV PUSH20 0xFFFFFFFFFFFFFFFFFFFFFFFFFFFFFFFFFFFFFFFF AND DUP2 JUMP JUMPDEST PUSH1 0x0 DUP1 PUSH1 0x0 DUP4 DUP2 MSTORE PUSH1 0x20 ADD SWAP1 DUP2 MSTORE PUSH1 0x20 ADD PUSH1 0x0 KECCAK256 PUSH1 0x1 ADD SLOAD SWAP1 POP SWAP2 SWAP1 POP JUMP JUMPDEST PUSH2 0x5D2 DUP3 PUSH2 0x5AA JUMP JUMPDEST PUSH2 0x5DB DUP2 PUSH2 0x18BA JUMP JUMPDEST PUSH2 0x5E5 DUP4 DUP4 PUSH2 0x18CE JUMP JUMPDEST POP POP POP POP JUMP JUMPDEST PUSH31 0x4F13FA3E85221CAE6E297E754A8AB58B2AC55382B0B17CA3D53370D4F56335 DUP2 JUMP JUMPDEST PUSH1 0x4 PUSH1 0x20 MSTORE DUP1 PUSH1 0x0 MSTORE PUSH1 0x40 PUSH1 0x0 KECCAK256 PUSH1 0x0 SWAP2 POP SWAP1 POP DUP1 PUSH1 0x0 ADD DUP1 SLOAD PUSH2 0x631 SWAP1 PUSH2 0x2496 JUMP JUMPDEST DUP1 PUSH1 0x1F ADD PUSH1 0x20 DUP1 SWAP2 DIV MUL PUSH1 0x20 ADD PUSH1 0x40 MLOAD SWAP1 DUP2 ADD PUSH1 0x40 MSTORE DUP1 SWAP3 SWAP2 SWAP1 DUP2 DUP2 MSTORE PUSH1 0x20 ADD DUP3 DUP1 SLOAD PUSH2 0x65D SWAP1 PUSH2 0x2496 JUMP JUMPDEST DUP1 ISZERO PUSH2 0x6AA JUMPI DUP1 PUSH1 0x1F LT PUSH2 0x67F JUMPI PUSH2 0x100 DUP1 DUP4 SLOAD DIV MUL DUP4 MSTORE SWAP2 PUSH1 0x20 ADD SWAP2 PUSH2 0x6AA JUMP JUMPDEST DUP3 ADD SWAP2 SWAP1 PUSH1 0x0 MSTORE PUSH1 0x20 PUSH1 0x0 KECCAK256 SWAP1 JUMPDEST DUP2 SLOAD DUP2 MSTORE SWAP1 PUSH1 0x1 ADD SWAP1 PUSH1 0x20 ADD DUP1 DUP4 GT PUSH2 0x68D JUMPI DUP3 SWAP1 SUB PUSH1 0x1F AND DUP3 ADD SWAP2 JUMPDEST POP POP POP POP POP SWAP1 DUP1 PUSH1 0x1 ADD SLOAD SWAP1 DUP1 PUSH1 0x2 ADD SLOAD SWAP1 DUP1 PUSH1 0x4 ADD PUSH1 0x0 SWAP1 SLOAD SWAP1 PUSH2 0x100 EXP SWAP1 DIV PUSH1 0xFF AND SWAP1 POP DUP5 JUMP JUMPDEST PUSH2 0x6DB PUSH2 0x19BF JUMP JUMPDEST PUSH20 0xFFFFFFFFFFFFFFFFFFFFFFFFFFFFFFFFFFFFFFFF AND DUP2 PUSH20 0xFFFFFFFFFFFFFFFFFFFFFFFFFFFFFFFFFFFFFFFF AND EQ PUSH2 0x73F JUMPI PUSH1 0x40 MLOAD PUSH32 0x6697B23200000000000000000000000000000000000000000000000000000000 DUP2 MSTORE PUSH1 0x4 ADD PUSH1 0x40 MLOAD DUP1 SWAP2 SUB SWAP1 REVERT JUMPDEST PUSH2 0x749 DUP3 DUP3 PUSH2 0x19C7 JUMP JUMPDEST POP POP POP JUMP JUMPDEST PUSH1 0x0 ISZERO ISZERO PUSH1 0x4 PUSH1 0x0 CALLER PUSH20 0xFFFFFFFFFFFFFFFFFFFFFFFFFFFFFFFFFFFFFFFF AND PUSH20 0xFFFFFFFFFFFFFFFFFFFFFFFFFFFFFFFFFFFFFFFF AND DUP2 MSTORE PUSH1 0x20 ADD SWAP1 DUP2 MSTORE PUSH1 0x20 ADD PUSH1 0x0 KECCAK256 PUSH1 0x4 ADD PUSH1 0x0 SWAP1 SLOAD SWAP1 PUSH2 0x100 EXP SWAP1 DIV PUSH1 0xFF AND ISZERO ISZERO EQ PUSH2 0x7E4 JUMPI PUSH1 0x40 MLOAD PUSH32 0x8C379A000000000000000000000000000000000000000000000000000000000 DUP2 MSTORE PUSH1 0x4 ADD PUSH2 0x7DB SWAP1 PUSH2 0x2513 JUMP JUMPDEST PUSH1 0x40 MLOAD DUP1 SWAP2 SUB SWAP1 REVERT JUMPDEST PUSH1 0x40 MLOAD DUP1 PUSH1 0xA0 ADD PUSH1 0x40 MSTORE DUP1 DUP3 DUP2 MSTORE PUSH1 0x20 ADD PUSH1 0x0 DUP2 MSTORE PUSH1 0x20 ADD PUSH1 0x0 DUP2 MSTORE PUSH1 0x20 ADD PUSH1 0x0 PUSH8 0xFFFFFFFFFFFFFFFF DUP2 GT ISZERO PUSH2 0x81E JUMPI PUSH2 0x81D PUSH2 0x20F7 JUMP JUMPDEST JUMPDEST PUSH1 0x40 MLOAD SWAP1 DUP1 DUP3 MSTORE DUP1 PUSH1 0x20 MUL PUSH1 0x20 ADD DUP3 ADD PUSH1 0x40 MSTORE DUP1 ISZERO PUSH2 0x84C JUMPI DUP2 PUSH1 0x20 ADD PUSH1 0x20 DUP3 MUL DUP1 CALLDATASIZE DUP4 CALLDATACOPY DUP1 DUP3 ADD SWAP2 POP POP SWAP1 POP JUMPDEST POP DUP2 MSTORE PUSH1 0x20 ADD PUSH1 0x1 ISZERO ISZERO DUP2 MSTORE POP PUSH1 0x4 PUSH1 0x0 CALLER PUSH20 0xFFFFFFFFFFFFFFFFFFFFFFFFFFFFFFFFFFFFFFFF AND PUSH20 0xFFFFFFFFFFFFFFFFFFFFFFFFFFFFFFFFFFFFFFFF AND DUP2 MSTORE PUSH1 0x20 ADD SWAP1 DUP2 MSTORE PUSH1 0x20 ADD PUSH1 0x0 KECCAK256 PUSH1 0x0 DUP3 ADD MLOAD DUP2 PUSH1 0x0 ADD SWAP1 DUP2 PUSH2 0x8AD SWAP2 SWAP1 PUSH2 0x26D5 JUMP JUMPDEST POP PUSH1 0x20 DUP3 ADD MLOAD DUP2 PUSH1 0x1 ADD SSTORE PUSH1 0x40 DUP3 ADD MLOAD DUP2 PUSH1 0x2 ADD SSTORE PUSH1 0x60 DUP3 ADD MLOAD DUP2 PUSH1 0x3 ADD SWAP1 DUP1 MLOAD SWAP1 PUSH1 0x20 ADD SWAP1 PUSH2 0x8DE SWAP3 SWAP2 SWAP1 PUSH2 0x1C43 JUMP JUMPDEST POP PUSH1 0x80 DUP3 ADD MLOAD DUP2 PUSH1 0x4 ADD PUSH1 0x0 PUSH2 0x100 EXP DUP2 SLOAD DUP2 PUSH1 0xFF MUL NOT AND SWAP1 DUP4 ISZERO ISZERO MUL OR SWAP1 SSTORE POP SWAP1 POP POP POP JUMP JUMPDEST PUSH1 0x0 PUSH31 0x4F13FA3E85221CAE6E297E754A8AB58B2AC55382B0B17CA3D53370D4F56335 PUSH2 0x931 DUP2 CALLER PUSH2 0xE5B JUMP JUMPDEST PUSH2 0x93A JUMPI PUSH1 0x0 DUP1 REVERT JUMPDEST DUP3 PUSH1 0x40 ADD MLOAD PUSH20 0xFFFFFFFFFFFFFFFFFFFFFFFFFFFFFFFFFFFFFFFF AND CALLER PUSH20 0xFFFFFFFFFFFFFFFFFFFFFFFFFFFFFFFFFFFFFFFF AND EQ PUSH2 0x9AC JUMPI PUSH1 0x40 MLOAD PUSH32 0x8C379A000000000000000000000000000000000000000000000000000000000 DUP2 MSTORE PUSH1 0x4 ADD PUSH2 0x9A3 SWAP1 PUSH2 0x2819 JUMP JUMPDEST PUSH1 0x40 MLOAD DUP1 SWAP2 SUB SWAP1 REVERT JUMPDEST PUSH1 0x0 DUP4 PUSH1 0x0 ADD MLOAD SWAP1 POP PUSH1 0x0 PUSH1 0x1 PUSH8 0xFFFFFFFFFFFFFFFF DUP2 GT ISZERO PUSH2 0x9D2 JUMPI PUSH2 0x9D1 PUSH2 0x20F7 JUMP JUMPDEST JUMPDEST PUSH1 0x40 MLOAD SWAP1 DUP1 DUP3 MSTORE DUP1 PUSH1 0x20 MUL PUSH1 0x20 ADD DUP3 ADD PUSH1 0x40 MSTORE DUP1 ISZERO PUSH2 0xA05 JUMPI DUP2 PUSH1 0x20 ADD JUMPDEST PUSH1 0x60 DUP2 MSTORE PUSH1 0x20 ADD SWAP1 PUSH1 0x1 SWAP1 SUB SWAP1 DUP2 PUSH2 0x9F0 JUMPI SWAP1 POP JUMPDEST POP SWAP1 POP DUP5 PUSH1 0x40 ADD MLOAD PUSH1 0x40 MLOAD PUSH1 0x20 ADD PUSH2 0xA1D SWAP2 SWAP1 PUSH2 0x1F21 JUMP JUMPDEST PUSH1 0x40 MLOAD PUSH1 0x20 DUP2 DUP4 SUB SUB DUP2 MSTORE SWAP1 PUSH1 0x40 MSTORE DUP2 PUSH1 0x0 DUP2 MLOAD DUP2 LT PUSH2 0xA40 JUMPI PUSH2 0xA3F PUSH2 0x2839 JUMP JUMPDEST JUMPDEST PUSH1 0x20 MUL PUSH1 0x20 ADD ADD DUP2 SWAP1 MSTORE POP PUSH1 0x0 DUP6 PUSH1 0x40 MLOAD PUSH1 0x20 ADD PUSH2 0xA5E SWAP2 SWAP1 PUSH2 0x2933 JUMP JUMPDEST PUSH1 0x40 MLOAD PUSH1 0x20 DUP2 DUP4 SUB SUB DUP2 MSTORE SWAP1 PUSH1 0x40 MSTORE SWAP1 POP PUSH1 0x0 PUSH1 0x40 MLOAD DUP1 PUSH2 0x140 ADD PUSH1 0x40 MSTORE DUP1 PUSH1 0x3 PUSH1 0x0 SWAP1 SLOAD SWAP1 PUSH2 0x100 EXP SWAP1 DIV PUSH8 0xFFFFFFFFFFFFFFFF AND PUSH8 0xFFFFFFFFFFFFFFFF AND DUP2 MSTORE PUSH1 0x20 ADD PUSH1 0x0 PUSH8 0xFFFFFFFFFFFFFFFF AND DUP2 MSTORE PUSH1 0x20 ADD PUSH1 0x0 PUSH8 0xFFFFFFFFFFFFFFFF AND DUP2 MSTORE PUSH1 0x20 ADD PUSH1 0x0 PUSH8 0xFFFFFFFFFFFFFFFF AND DUP2 MSTORE PUSH1 0x20 ADD CALLER PUSH20 0xFFFFFFFFFFFFFFFFFFFFFFFFFFFFFFFFFFFFFFFF AND DUP2 MSTORE PUSH1 0x20 ADD PUSH1 0x0 PUSH8 0xFFFFFFFFFFFFFFFF AND DUP2 MSTORE PUSH1 0x20 ADD PUSH1 0x0 PUSH1 0x3 DUP2 GT ISZERO PUSH2 0xB17 JUMPI PUSH2 0xB16 PUSH2 0x2955 JUMP JUMPDEST JUMPDEST DUP2 MSTORE PUSH1 0x20 ADD PUSH1 0x0 ISZERO ISZERO DUP2 MSTORE PUSH1 0x20 ADD DUP5 DUP2 MSTORE PUSH1 0x20 ADD DUP4 DUP2 MSTORE POP SWAP1 POP PUSH1 0x0 PUSH1 0x1 PUSH1 0x0 SWAP1 SLOAD SWAP1 PUSH2 0x100 EXP SWAP1 DIV PUSH20 0xFFFFFFFFFFFFFFFFFFFFFFFFFFFFFFFFFFFFFFFF AND PUSH20 0xFFFFFFFFFFFFFFFFFFFFFFFFFFFFFFFFFFFFFFFF AND PUSH4 0xB82916CB DUP4 PUSH1 0x40 MLOAD DUP3 PUSH4 0xFFFFFFFF AND PUSH1 0xE0 SHL DUP2 MSTORE PUSH1 0x4 ADD PUSH2 0xB8E SWAP2 SWAP1 PUSH2 0x2C3C JUMP JUMPDEST PUSH1 0x20 PUSH1 0x40 MLOAD DUP1 DUP4 SUB DUP2 PUSH1 0x0 DUP8 GAS CALL ISZERO DUP1 ISZERO PUSH2 0xBAD JUMPI RETURNDATASIZE PUSH1 0x0 DUP1 RETURNDATACOPY RETURNDATASIZE PUSH1 0x0 REVERT JUMPDEST POP POP POP POP PUSH1 0x40 MLOAD RETURNDATASIZE PUSH1 0x1F NOT PUSH1 0x1F DUP3 ADD AND DUP3 ADD DUP1 PUSH1 0x40 MSTORE POP DUP2 ADD SWAP1 PUSH2 0xBD1 SWAP2 SWAP1 PUSH2 0x2CAC JUMP JUMPDEST PUSH8 0xFFFFFFFFFFFFFFFF AND SWAP1 POP PUSH32 0x305A9F260E4D3C1F2C538E3032A604DA7425B5901D9C5D759F27DBEDCF678395 DUP9 PUSH1 0x40 ADD MLOAD DUP7 DUP11 PUSH1 0x20 ADD MLOAD DUP12 PUSH1 0x60 ADD MLOAD PUSH1 0x40 MLOAD PUSH2 0xC1E SWAP5 SWAP4 SWAP3 SWAP2 SWAP1 PUSH2 0x2CD9 JUMP JUMPDEST PUSH1 0x40 MLOAD DUP1 SWAP2 SUB SWAP1 LOG1 DUP1 SWAP7 POP POP POP POP POP POP POP SWAP2 SWAP1 POP JUMP JUMPDEST PUSH32 0xDF8B4C520FFE197C5343C6F5AEC59570151EF9A492F2C624FD45DDDE6135EC42 PUSH2 0xC5F DUP2 CALLER PUSH2 0xE5B JUMP JUMPDEST PUSH2 0xC68 JUMPI PUSH1 0x0 DUP1 REVERT JUMPDEST PUSH1 0x1 ISZERO ISZERO PUSH1 0x4 PUSH1 0x0 DUP6 PUSH20 0xFFFFFFFFFFFFFFFFFFFFFFFFFFFFFFFFFFFFFFFF AND PUSH20 0xFFFFFFFFFFFFFFFFFFFFFFFFFFFFFFFFFFFFFFFF AND DUP2 MSTORE PUSH1 0x20 ADD SWAP1 DUP2 MSTORE PUSH1 0x20 ADD PUSH1 0x0 KECCAK256 PUSH1 0x4 ADD PUSH1 0x0 SWAP1 SLOAD SWAP1 PUSH2 0x100 EXP SWAP1 DIV PUSH1 0xFF AND ISZERO ISZERO EQ PUSH2 0xCFE JUMPI PUSH1 0x40 MLOAD PUSH32 0x8C379A000000000000000000000000000000000000000000000000000000000 DUP2 MSTORE PUSH1 0x4 ADD PUSH2 0xCF5 SWAP1 PUSH2 0x2D71 JUMP JUMPDEST PUSH1 0x40 MLOAD DUP1 SWAP2 SUB SWAP1 REVERT JUMPDEST DUP2 PUSH1 0x4 PUSH1 0x0 DUP6 PUSH20 0xFFFFFFFFFFFFFFFFFFFFFFFFFFFFFFFFFFFFFFFF AND PUSH20 0xFFFFFFFFFFFFFFFFFFFFFFFFFFFFFFFFFFFFFFFF AND DUP2 MSTORE PUSH1 0x20 ADD SWAP1 DUP2 MSTORE PUSH1 0x20 ADD PUSH1 0x0 KECCAK256 PUSH1 0x1 ADD PUSH1 0x0 DUP3 DUP3 SLOAD PUSH2 0xD50 SWAP2 SWAP1 PUSH2 0x2DC0 JUMP JUMPDEST SWAP3 POP POP DUP2 SWAP1 SSTORE POP POP POP POP JUMP JUMPDEST PUSH32 0x6270EDB7C868F86FDA4ADEDBA75108201087268EA345934DB8BAD688E1FEB91B PUSH2 0xD87 DUP2 CALLER PUSH2 0xE5B JUMP JUMPDEST PUSH2 0xD90 JUMPI PUSH1 0x0 DUP1 REVERT JUMPDEST PUSH2 0xDBA PUSH32 0xDF8B4C520FFE197C5343C6F5AEC59570151EF9A492F2C624FD45DDDE6135EC42 DUP4 PUSH2 0x5C9 JUMP JUMPDEST POP POP JUMP JUMPDEST PUSH32 0xDF8B4C520FFE197C5343C6F5AEC59570151EF9A492F2C624FD45DDDE6135EC42 DUP2 JUMP JUMPDEST PUSH32 0x6270EDB7C868F86FDA4ADEDBA75108201087268EA345934DB8BAD688E1FEB91B PUSH2 0xE0D DUP2 CALLER PUSH2 0xE5B JUMP JUMPDEST PUSH2 0xE16 JUMPI PUSH1 0x0 DUP1 REVERT JUMPDEST DUP2 PUSH1 0x1 PUSH1 0x0 PUSH2 0x100 EXP DUP2 SLOAD DUP2 PUSH20 0xFFFFFFFFFFFFFFFFFFFFFFFFFFFFFFFFFFFFFFFF MUL NOT AND SWAP1 DUP4 PUSH20 0xFFFFFFFFFFFFFFFFFFFFFFFFFFFFFFFFFFFFFFFF AND MUL OR SWAP1 SSTORE POP POP POP JUMP JUMPDEST PUSH1 0x0 DUP1 PUSH1 0x0 DUP5 DUP2 MSTORE PUSH1 0x20 ADD SWAP1 DUP2 MSTORE PUSH1 0x20 ADD PUSH1 0x0 KECCAK256 PUSH1 0x0 ADD PUSH1 0x0 DUP4 PUSH20 0xFFFFFFFFFFFFFFFFFFFFFFFFFFFFFFFFFFFFFFFF AND PUSH20 0xFFFFFFFFFFFFFFFFFFFFFFFFFFFFFFFFFFFFFFFF AND DUP2 MSTORE PUSH1 0x20 ADD SWAP1 DUP2 MSTORE PUSH1 0x20 ADD PUSH1 0x0 KECCAK256 PUSH1 0x0 SWAP1 SLOAD SWAP1 PUSH2 0x100 EXP SWAP1 DIV PUSH1 0xFF AND SWAP1 POP SWAP3 SWAP2 POP POP JUMP JUMPDEST PUSH1 0x0 DUP1 SHL DUP2 JUMP JUMPDEST PUSH32 0xDF8B4C520FFE197C5343C6F5AEC59570151EF9A492F2C624FD45DDDE6135EC42 PUSH2 0xEF7 DUP2 CALLER PUSH2 0xE5B JUMP JUMPDEST PUSH2 0xF00 JUMPI PUSH1 0x0 DUP1 REVERT JUMPDEST PUSH1 0x1 ISZERO ISZERO PUSH1 0x4 PUSH1 0x0 DUP7 PUSH20 0xFFFFFFFFFFFFFFFFFFFFFFFFFFFFFFFFFFFFFFFF AND PUSH20 0xFFFFFFFFFFFFFFFFFFFFFFFFFFFFFFFFFFFFFFFF AND DUP2 MSTORE PUSH1 0x20 ADD SWAP1 DUP2 MSTORE PUSH1 0x20 ADD PUSH1 0x0 KECCAK256 PUSH1 0x4 ADD PUSH1 0x0 SWAP1 SLOAD SWAP1 PUSH2 0x100 EXP SWAP1 DIV PUSH1 0xFF AND ISZERO ISZERO EQ PUSH2 0xF96 JUMPI PUSH1 0x40 MLOAD PUSH32 0x8C379A000000000000000000000000000000000000000000000000000000000 DUP2 MSTORE PUSH1 0x4 ADD PUSH2 0xF8D SWAP1 PUSH2 0x2D71 JUMP JUMPDEST PUSH1 0x40 MLOAD DUP1 SWAP2 SUB SWAP1 REVERT JUMPDEST DUP3 PUSH1 0x4 PUSH1 0x0 DUP7 PUSH20 0xFFFFFFFFFFFFFFFFFFFFFFFFFFFFFFFFFFFFFFFF AND PUSH20 0xFFFFFFFFFFFFFFFFFFFFFFFFFFFFFFFFFFFFFFFF AND DUP2 MSTORE PUSH1 0x20 ADD SWAP1 DUP2 MSTORE PUSH1 0x20 ADD PUSH1 0x0 KECCAK256 PUSH1 0x2 ADD SLOAD EQ PUSH2 0x101A JUMPI PUSH1 0x40 MLOAD PUSH32 0x8C379A000000000000000000000000000000000000000000000000000000000 DUP2 MSTORE PUSH1 0x4 ADD PUSH2 0x1011 SWAP1 PUSH2 0x2E66 JUMP JUMPDEST PUSH1 0x40 MLOAD DUP1 SWAP2 SUB SWAP1 REVERT JUMPDEST DUP2 PUSH1 0x4 PUSH1 0x0 DUP7 PUSH20 0xFFFFFFFFFFFFFFFFFFFFFFFFFFFFFFFFFFFFFFFF AND PUSH20 0xFFFFFFFFFFFFFFFFFFFFFFFFFFFFFFFFFFFFFFFF AND DUP2 MSTORE PUSH1 0x20 ADD SWAP1 DUP2 MSTORE PUSH1 0x20 ADD PUSH1 0x0 KECCAK256 PUSH1 0x1 ADD PUSH1 0x0 DUP3 DUP3 SLOAD PUSH2 0x106C SWAP2 SWAP1 PUSH2 0x2DC0 JUMP JUMPDEST SWAP3 POP POP DUP2 SWAP1 SSTORE POP PUSH1 0x4 PUSH1 0x0 DUP6 PUSH20 0xFFFFFFFFFFFFFFFFFFFFFFFFFFFFFFFFFFFFFFFF AND PUSH20 0xFFFFFFFFFFFFFFFFFFFFFFFFFFFFFFFFFFFFFFFF AND DUP2 MSTORE PUSH1 0x20 ADD SWAP1 DUP2 MSTORE PUSH1 0x20 ADD PUSH1 0x0 KECCAK256 PUSH1 0x3 ADD DUP4 SWAP1 DUP1 PUSH1 0x1 DUP2 SLOAD ADD DUP1 DUP3 SSTORE DUP1 SWAP2 POP POP PUSH1 0x1 SWAP1 SUB SWAP1 PUSH1 0x0 MSTORE PUSH1 0x20 PUSH1 0x0 KECCAK256 ADD PUSH1 0x0 SWAP1 SWAP2 SWAP1 SWAP2 SWAP1 SWAP2 POP SSTORE PUSH1 0x0 PUSH1 0x4 PUSH1 0x0 DUP7 PUSH20 0xFFFFFFFFFFFFFFFFFFFFFFFFFFFFFFFFFFFFFFFF AND PUSH20 0xFFFFFFFFFFFFFFFFFFFFFFFFFFFFFFFFFFFFFFFF AND DUP2 MSTORE PUSH1 0x20 ADD SWAP1 DUP2 MSTORE PUSH1 0x20 ADD PUSH1 0x0 KECCAK256 PUSH1 0x2 ADD DUP2 SWAP1 SSTORE POP PUSH32 0xAB0CBA6E6F4F659868746EC49AC3A984770E64F2DA708D53203E4630E17DAF8A DUP5 DUP5 DUP5 PUSH1 0x40 MLOAD PUSH2 0x1157 SWAP4 SWAP3 SWAP2 SWAP1 PUSH2 0x2E86 JUMP JUMPDEST PUSH1 0x40 MLOAD DUP1 SWAP2 SUB SWAP1 LOG1 POP POP POP POP JUMP JUMPDEST PUSH1 0x0 JUMPDEST PUSH1 0x2 DUP1 SLOAD SWAP1 POP DUP2 LT ISZERO PUSH2 0x1573 JUMPI CALLER PUSH20 0xFFFFFFFFFFFFFFFFFFFFFFFFFFFFFFFFFFFFFFFF AND PUSH1 0x2 DUP3 DUP2 SLOAD DUP2 LT PUSH2 0x11A0 JUMPI PUSH2 0x119F PUSH2 0x2839 JUMP JUMPDEST JUMPDEST SWAP1 PUSH1 0x0 MSTORE PUSH1 0x20 PUSH1 0x0 KECCAK256 ADD PUSH1 0x0 SWAP1 SLOAD SWAP1 PUSH2 0x100 EXP SWAP1 DIV PUSH20 0xFFFFFFFFFFFFFFFFFFFFFFFFFFFFFFFFFFFFFFFF AND PUSH20 0xFFFFFFFFFFFFFFFFFFFFFFFFFFFFFFFFFFFFFFFF AND EQ PUSH2 0x1566 JUMPI PUSH1 0x0 PUSH1 0x4 PUSH1 0x0 PUSH1 0x2 DUP5 DUP2 SLOAD DUP2 LT PUSH2 0x1200 JUMPI PUSH2 0x11FF PUSH2 0x2839 JUMP JUMPDEST JUMPDEST SWAP1 PUSH1 0x0 MSTORE PUSH1 0x20 PUSH1 0x0 KECCAK256 ADD PUSH1 0x0 SWAP1 SLOAD SWAP1 PUSH2 0x100 EXP SWAP1 DIV PUSH20 0xFFFFFFFFFFFFFFFFFFFFFFFFFFFFFFFFFFFFFFFF AND PUSH20 0xFFFFFFFFFFFFFFFFFFFFFFFFFFFFFFFFFFFFFFFF AND PUSH20 0xFFFFFFFFFFFFFFFFFFFFFFFFFFFFFFFFFFFFFFFF AND DUP2 MSTORE PUSH1 0x20 ADD SWAP1 DUP2 MSTORE PUSH1 0x20 ADD PUSH1 0x0 KECCAK256 PUSH1 0x1 ADD SLOAD SWAP1 POP PUSH1 0x0 PUSH1 0x64 PUSH1 0xA PUSH1 0x4 PUSH1 0x0 CALLER PUSH20 0xFFFFFFFFFFFFFFFFFFFFFFFFFFFFFFFFFFFFFFFF AND PUSH20 0xFFFFFFFFFFFFFFFFFFFFFFFFFFFFFFFFFFFFFFFF AND DUP2 MSTORE PUSH1 0x20 ADD SWAP1 DUP2 MSTORE PUSH1 0x20 ADD PUSH1 0x0 KECCAK256 PUSH1 0x1 ADD SLOAD PUSH2 0x12BE SWAP2 SWAP1 PUSH2 0x2EBD JUMP JUMPDEST PUSH2 0x12C8 SWAP2 SWAP1 PUSH2 0x2F2E JUMP JUMPDEST SWAP1 POP DUP1 PUSH1 0x4 PUSH1 0x0 CALLER PUSH20 0xFFFFFFFFFFFFFFFFFFFFFFFFFFFFFFFFFFFFFFFF AND PUSH20 0xFFFFFFFFFFFFFFFFFFFFFFFFFFFFFFFFFFFFFFFF AND DUP2 MSTORE PUSH1 0x20 ADD SWAP1 DUP2 MSTORE PUSH1 0x20 ADD PUSH1 0x0 KECCAK256 PUSH1 0x1 ADD SLOAD PUSH2 0x1318 SWAP2 SWAP1 PUSH2 0x2DC0 JUMP JUMPDEST DUP3 GT ISZERO PUSH2 0x13C5 JUMPI PUSH1 0x6 PUSH1 0x2 DUP5 DUP2 SLOAD DUP2 LT PUSH2 0x1335 JUMPI PUSH2 0x1334 PUSH2 0x2839 JUMP JUMPDEST JUMPDEST SWAP1 PUSH1 0x0 MSTORE PUSH1 0x20 PUSH1 0x0 KECCAK256 ADD PUSH1 0x0 SWAP1 SLOAD SWAP1 PUSH2 0x100 EXP SWAP1 DIV PUSH20 0xFFFFFFFFFFFFFFFFFFFFFFFFFFFFFFFFFFFFFFFF AND SWAP1 DUP1 PUSH1 0x1 DUP2 SLOAD ADD DUP1 DUP3 SSTORE DUP1 SWAP2 POP POP PUSH1 0x1 SWAP1 SUB SWAP1 PUSH1 0x0 MSTORE PUSH1 0x20 PUSH1 0x0 KECCAK256 ADD PUSH1 0x0 SWAP1 SWAP2 SWAP1 SWAP2 SWAP1 SWAP2 PUSH2 0x100 EXP DUP2 SLOAD DUP2 PUSH20 0xFFFFFFFFFFFFFFFFFFFFFFFFFFFFFFFFFFFFFFFF MUL NOT AND SWAP1 DUP4 PUSH20 0xFFFFFFFFFFFFFFFFFFFFFFFFFFFFFFFFFFFFFFFF AND MUL OR SWAP1 SSTORE POP PUSH2 0x1563 JUMP JUMPDEST DUP1 PUSH1 0x4 PUSH1 0x0 CALLER PUSH20 0xFFFFFFFFFFFFFFFFFFFFFFFFFFFFFFFFFFFFFFFF AND PUSH20 0xFFFFFFFFFFFFFFFFFFFFFFFFFFFFFFFFFFFFFFFF AND DUP2 MSTORE PUSH1 0x20 ADD SWAP1 DUP2 MSTORE PUSH1 0x20 ADD PUSH1 0x0 KECCAK256 PUSH1 0x1 ADD SLOAD PUSH2 0x1413 SWAP2 SWAP1 PUSH2 0x2F5F JUMP JUMPDEST DUP3 LT ISZERO PUSH2 0x14C0 JUMPI PUSH1 0x8 PUSH1 0x2 DUP5 DUP2 SLOAD DUP2 LT PUSH2 0x1430 JUMPI PUSH2 0x142F PUSH2 0x2839 JUMP JUMPDEST JUMPDEST SWAP1 PUSH1 0x0 MSTORE PUSH1 0x20 PUSH1 0x0 KECCAK256 ADD PUSH1 0x0 SWAP1 SLOAD SWAP1 PUSH2 0x100 EXP SWAP1 DIV PUSH20 0xFFFFFFFFFFFFFFFFFFFFFFFFFFFFFFFFFFFFFFFF AND SWAP1 DUP1 PUSH1 0x1 DUP2 SLOAD ADD DUP1 DUP3 SSTORE DUP1 SWAP2 POP POP PUSH1 0x1 SWAP1 SUB SWAP1 PUSH1 0x0 MSTORE PUSH1 0x20 PUSH1 0x0 KECCAK256 ADD PUSH1 0x0 SWAP1 SWAP2 SWAP1 SWAP2 SWAP1 SWAP2 PUSH2 0x100 EXP DUP2 SLOAD DUP2 PUSH20 0xFFFFFFFFFFFFFFFFFFFFFFFFFFFFFFFFFFFFFFFF MUL NOT AND SWAP1 DUP4 PUSH20 0xFFFFFFFFFFFFFFFFFFFFFFFFFFFFFFFFFFFFFFFF AND MUL OR SWAP1 SSTORE POP PUSH2 0x1562 JUMP JUMPDEST PUSH1 0x7 PUSH1 0x2 DUP5 DUP2 SLOAD DUP2 LT PUSH2 0x14D6 JUMPI PUSH2 0x14D5 PUSH2 0x2839 JUMP JUMPDEST JUMPDEST SWAP1 PUSH1 0x0 MSTORE PUSH1 0x20 PUSH1 0x0 KECCAK256 ADD PUSH1 0x0 SWAP1 SLOAD SWAP1 PUSH2 0x100 EXP SWAP1 DIV PUSH20 0xFFFFFFFFFFFFFFFFFFFFFFFFFFFFFFFFFFFFFFFF AND SWAP1 DUP1 PUSH1 0x1 DUP2 SLOAD ADD DUP1 DUP3 SSTORE DUP1 SWAP2 POP POP PUSH1 0x1 SWAP1 SUB SWAP1 PUSH1 0x0 MSTORE PUSH1 0x20 PUSH1 0x0 KECCAK256 ADD PUSH1 0x0 SWAP1 SWAP2 SWAP1 SWAP2 SWAP1 SWAP2 PUSH2 0x100 EXP DUP2 SLOAD DUP2 PUSH20 0xFFFFFFFFFFFFFFFFFFFFFFFFFFFFFFFFFFFFFFFF MUL NOT AND SWAP1 DUP4 PUSH20 0xFFFFFFFFFFFFFFFFFFFFFFFFFFFFFFFFFFFFFFFF AND MUL OR SWAP1 SSTORE POP JUMPDEST JUMPDEST POP POP JUMPDEST DUP1 DUP1 PUSH1 0x1 ADD SWAP2 POP POP PUSH2 0x1168 JUMP JUMPDEST POP PUSH1 0x0 PUSH1 0x6 DUP1 SLOAD SWAP1 POP GT ISZERO PUSH2 0x15DE JUMPI PUSH1 0x0 PUSH2 0x1592 PUSH1 0x6 DUP1 SLOAD SWAP1 POP PUSH2 0x1AB9 JUMP JUMPDEST SWAP1 POP PUSH2 0x15DC PUSH1 0x6 DUP3 DUP2 SLOAD DUP2 LT PUSH2 0x15AB JUMPI PUSH2 0x15AA PUSH2 0x2839 JUMP JUMPDEST JUMPDEST SWAP1 PUSH1 0x0 MSTORE PUSH1 0x20 PUSH1 0x0 KECCAK256 ADD PUSH1 0x0 SWAP1 SLOAD SWAP1 PUSH2 0x100 EXP SWAP1 DIV PUSH20 0xFFFFFFFFFFFFFFFFFFFFFFFFFFFFFFFFFFFFFFFF AND CALLER PUSH2 0x1AFB JUMP JUMPDEST POP JUMPDEST PUSH1 0x0 PUSH1 0x7 DUP1 SLOAD SWAP1 POP GT ISZERO PUSH2 0x1648 JUMPI PUSH1 0x0 PUSH2 0x15FC PUSH1 0x7 DUP1 SLOAD SWAP1 POP PUSH2 0x1AB9 JUMP JUMPDEST SWAP1 POP PUSH2 0x1646 PUSH1 0x7 DUP3 DUP2 SLOAD DUP2 LT PUSH2 0x1615 JUMPI PUSH2 0x1614 PUSH2 0x2839 JUMP JUMPDEST JUMPDEST SWAP1 PUSH1 0x0 MSTORE PUSH1 0x20 PUSH1 0x0 KECCAK256 ADD PUSH1 0x0 SWAP1 SLOAD SWAP1 PUSH2 0x100 EXP SWAP1 DIV PUSH20 0xFFFFFFFFFFFFFFFFFFFFFFFFFFFFFFFFFFFFFFFF AND CALLER PUSH2 0x1AFB JUMP JUMPDEST POP JUMPDEST PUSH1 0x0 PUSH1 0x8 DUP1 SLOAD SWAP1 POP GT ISZERO PUSH2 0x16B2 JUMPI PUSH1 0x0 PUSH2 0x1666 PUSH1 0x8 DUP1 SLOAD SWAP1 POP PUSH2 0x1AB9 JUMP JUMPDEST SWAP1 POP PUSH2 0x16B0 PUSH1 0x8 DUP3 DUP2 SLOAD DUP2 LT PUSH2 0x167F JUMPI PUSH2 0x167E PUSH2 0x2839 JUMP JUMPDEST JUMPDEST SWAP1 PUSH1 0x0 MSTORE PUSH1 0x20 PUSH1 0x0 KECCAK256 ADD PUSH1 0x0 SWAP1 SLOAD SWAP1 PUSH2 0x100 EXP SWAP1 DIV PUSH20 0xFFFFFFFFFFFFFFFFFFFFFFFFFFFFFFFFFFFFFFFF AND CALLER PUSH2 0x1AFB JUMP JUMPDEST POP JUMPDEST PUSH1 0x6 PUSH1 0x0 PUSH2 0x16C0 SWAP2 SWAP1 PUSH2 0x1C90 JUMP JUMPDEST PUSH1 0x7 PUSH1 0x0 PUSH2 0x16CE SWAP2 SWAP1 PUSH2 0x1C90 JUMP JUMPDEST PUSH1 0x8 PUSH1 0x0 PUSH2 0x16DC SWAP2 SWAP1 PUSH2 0x1C90 JUMP JUMPDEST PUSH32 0x678658D9F1FE0C70D4AF48CD4F90BEDFFBA7C52B6C30D6510050749B1D6BC43E CALLER DUP3 PUSH1 0x5 PUSH1 0x0 CALLER PUSH20 0xFFFFFFFFFFFFFFFFFFFFFFFFFFFFFFFFFFFFFFFF AND PUSH20 0xFFFFFFFFFFFFFFFFFFFFFFFFFFFFFFFFFFFFFFFF AND DUP2 MSTORE PUSH1 0x20 ADD SWAP1 DUP2 MSTORE PUSH1 0x20 ADD PUSH1 0x0 KECCAK256 PUSH1 0x40 MLOAD PUSH2 0x174D SWAP4 SWAP3 SWAP2 SWAP1 PUSH2 0x30A8 JUMP JUMPDEST PUSH1 0x40 MLOAD DUP1 SWAP2 SUB SWAP1 LOG1 POP JUMP JUMPDEST PUSH1 0x1 PUSH1 0x0 SWAP1 SLOAD SWAP1 PUSH2 0x100 EXP SWAP1 DIV PUSH20 0xFFFFFFFFFFFFFFFFFFFFFFFFFFFFFFFFFFFFFFFF AND DUP2 JUMP JUMPDEST PUSH2 0x1787 DUP3 PUSH2 0x5AA JUMP JUMPDEST PUSH2 0x1790 DUP2 PUSH2 0x18BA JUMP JUMPDEST PUSH2 0x179A DUP4 DUP4 PUSH2 0x19C7 JUMP JUMPDEST POP POP POP POP JUMP JUMPDEST PUSH32 0x6270EDB7C868F86FDA4ADEDBA75108201087268EA345934DB8BAD688E1FEB91B DUP2 JUMP JUMPDEST PUSH32 0x6270EDB7C868F86FDA4ADEDBA75108201087268EA345934DB8BAD688E1FEB91B PUSH2 0x17EF DUP2 CALLER PUSH2 0xE5B JUMP JUMPDEST PUSH2 0x17F8 JUMPI PUSH1 0x0 DUP1 REVERT JUMPDEST PUSH2 0x1822 PUSH32 0x6270EDB7C868F86FDA4ADEDBA75108201087268EA345934DB8BAD688E1FEB91B DUP4 PUSH2 0x5C9 JUMP JUMPDEST PUSH2 0x184C PUSH32 0x6270EDB7C868F86FDA4ADEDBA75108201087268EA345934DB8BAD688E1FEB91B CALLER PUSH2 0x177E JUMP JUMPDEST POP POP JUMP JUMPDEST PUSH1 0x0 PUSH32 0x1FFC9A700000000000000000000000000000000000000000000000000000000 PUSH28 0xFFFFFFFFFFFFFFFFFFFFFFFFFFFFFFFFFFFFFFFFFFFFFFFFFFFFFFFF NOT AND DUP3 PUSH28 0xFFFFFFFFFFFFFFFFFFFFFFFFFFFFFFFFFFFFFFFFFFFFFFFFFFFFFFFF NOT AND EQ SWAP1 POP SWAP2 SWAP1 POP JUMP JUMPDEST PUSH2 0x18CB DUP2 PUSH2 0x18C6 PUSH2 0x19BF JUMP JUMPDEST PUSH2 0x1BF2 JUMP JUMPDEST POP JUMP JUMPDEST PUSH1 0x0 PUSH2 0x18DA DUP4 DUP4 PUSH2 0xE5B JUMP JUMPDEST PUSH2 0x19B4 JUMPI PUSH1 0x1 PUSH1 0x0 DUP1 DUP6 DUP2 MSTORE PUSH1 0x20 ADD SWAP1 DUP2 MSTORE PUSH1 0x20 ADD PUSH1 0x0 KECCAK256 PUSH1 0x0 ADD PUSH1 0x0 DUP5 PUSH20 0xFFFFFFFFFFFFFFFFFFFFFFFFFFFFFFFFFFFFFFFF AND PUSH20 0xFFFFFFFFFFFFFFFFFFFFFFFFFFFFFFFFFFFFFFFF AND DUP2 MSTORE PUSH1 0x20 ADD SWAP1 DUP2 MSTORE PUSH1 0x20 ADD PUSH1 0x0 KECCAK256 PUSH1 0x0 PUSH2 0x100 EXP DUP2 SLOAD DUP2 PUSH1 0xFF MUL NOT AND SWAP1 DUP4 ISZERO ISZERO MUL OR SWAP1 SSTORE POP PUSH2 0x1951 PUSH2 0x19BF JUMP JUMPDEST PUSH20 0xFFFFFFFFFFFFFFFFFFFFFFFFFFFFFFFFFFFFFFFF AND DUP3 PUSH20 0xFFFFFFFFFFFFFFFFFFFFFFFFFFFFFFFFFFFFFFFF AND DUP5 PUSH32 0x2F8788117E7EFF1D82E926EC794901D17C78024A50270940304540A733656F0D PUSH1 0x40 MLOAD PUSH1 0x40 MLOAD DUP1 SWAP2 SUB SWAP1 LOG4 PUSH1 0x1 SWAP1 POP PUSH2 0x19B9 JUMP JUMPDEST PUSH1 0x0 SWAP1 POP JUMPDEST SWAP3 SWAP2 POP POP JUMP JUMPDEST PUSH1 0x0 CALLER SWAP1 POP SWAP1 JUMP JUMPDEST PUSH1 0x0 PUSH2 0x19D3 DUP4 DUP4 PUSH2 0xE5B JUMP JUMPDEST ISZERO PUSH2 0x1AAE JUMPI PUSH1 0x0 DUP1 PUSH1 0x0 DUP6 DUP2 MSTORE PUSH1 0x20 ADD SWAP1 DUP2 MSTORE PUSH1 0x20 ADD PUSH1 0x0 KECCAK256 PUSH1 0x0 ADD PUSH1 0x0 DUP5 PUSH20 0xFFFFFFFFFFFFFFFFFFFFFFFFFFFFFFFFFFFFFFFF AND PUSH20 0xFFFFFFFFFFFFFFFFFFFFFFFFFFFFFFFFFFFFFFFF AND DUP2 MSTORE PUSH1 0x20 ADD SWAP1 DUP2 MSTORE PUSH1 0x20 ADD PUSH1 0x0 KECCAK256 PUSH1 0x0 PUSH2 0x100 EXP DUP2 SLOAD DUP2 PUSH1 0xFF MUL NOT AND SWAP1 DUP4 ISZERO ISZERO MUL OR SWAP1 SSTORE POP PUSH2 0x1A4B PUSH2 0x19BF JUMP JUMPDEST PUSH20 0xFFFFFFFFFFFFFFFFFFFFFFFFFFFFFFFFFFFFFFFF AND DUP3 PUSH20 0xFFFFFFFFFFFFFFFFFFFFFFFFFFFFFFFFFFFFFFFF AND DUP5 PUSH32 0xF6391F5C32D9C69D2A47EA670B442974B53935D1EDC7FD64EB21E047A839171B PUSH1 0x40 MLOAD PUSH1 0x40 MLOAD DUP1 SWAP2 SUB SWAP1 LOG4 PUSH1 0x1 SWAP1 POP PUSH2 0x1AB3 JUMP JUMPDEST PUSH1 0x0 SWAP1 POP JUMPDEST SWAP3 SWAP2 POP POP JUMP JUMPDEST PUSH1 0x0 DUP2 TIMESTAMP PREVRANDAO CALLER PUSH1 0x40 MLOAD PUSH1 0x20 ADD PUSH2 0x1AD1 SWAP4 SWAP3 SWAP2 SWAP1 PUSH2 0x314F JUMP JUMPDEST PUSH1 0x40 MLOAD PUSH1 0x20 DUP2 DUP4 SUB SUB DUP2 MSTORE SWAP1 PUSH1 0x40 MSTORE DUP1 MLOAD SWAP1 PUSH1 0x20 ADD KECCAK256 PUSH1 0x0 SHR PUSH2 0x1AF4 SWAP2 SWAP1 PUSH2 0x318C JUMP JUMPDEST SWAP1 POP SWAP2 SWAP1 POP JUMP JUMPDEST PUSH2 0x1B24 PUSH31 0x4F13FA3E85221CAE6E297E754A8AB58B2AC55382B0B17CA3D53370D4F56335 DUP4 PUSH2 0x5C9 JUMP JUMPDEST PUSH2 0x1B4E PUSH32 0xF322DEFC376BBA64D27C59F0DFFA3645EB556D2707692077AD37E9255BED73BB DUP3 PUSH2 0x5C9 JUMP JUMPDEST PUSH1 0x5 PUSH1 0x0 DUP3 PUSH20 0xFFFFFFFFFFFFFFFFFFFFFFFFFFFFFFFFFFFFFFFF AND PUSH20 0xFFFFFFFFFFFFFFFFFFFFFFFFFFFFFFFFFFFFFFFF AND DUP2 MSTORE PUSH1 0x20 ADD SWAP1 DUP2 MSTORE PUSH1 0x20 ADD PUSH1 0x0 KECCAK256 DUP3 SWAP1 DUP1 PUSH1 0x1 DUP2 SLOAD ADD DUP1 DUP3 SSTORE DUP1 SWAP2 POP POP PUSH1 0x1 SWAP1 SUB SWAP1 PUSH1 0x0 MSTORE PUSH1 0x20 PUSH1 0x0 KECCAK256 ADD PUSH1 0x0 SWAP1 SWAP2 SWAP1 SWAP2 SWAP1 SWAP2 PUSH2 0x100 EXP DUP2 SLOAD DUP2 PUSH20 0xFFFFFFFFFFFFFFFFFFFFFFFFFFFFFFFFFFFFFFFF MUL NOT AND SWAP1 DUP4 PUSH20 0xFFFFFFFFFFFFFFFFFFFFFFFFFFFFFFFFFFFFFFFF AND MUL OR SWAP1 SSTORE POP POP POP JUMP JUMPDEST PUSH2 0x1BFC DUP3 DUP3 PUSH2 0xE5B JUMP JUMPDEST PUSH2 0x1C3F JUMPI DUP1 DUP3 PUSH1 0x40 MLOAD PUSH32 0xE2517D3F00000000000000000000000000000000000000000000000000000000 DUP2 MSTORE PUSH1 0x4 ADD PUSH2 0x1C36 SWAP3 SWAP2 SWAP1 PUSH2 0x31BD JUMP JUMPDEST PUSH1 0x40 MLOAD DUP1 SWAP2 SUB SWAP1 REVERT JUMPDEST POP POP JUMP JUMPDEST DUP3 DUP1 SLOAD DUP3 DUP3 SSTORE SWAP1 PUSH1 0x0 MSTORE PUSH1 0x20 PUSH1 0x0 KECCAK256 SWAP1 DUP2 ADD SWAP3 DUP3 ISZERO PUSH2 0x1C7F JUMPI SWAP2 PUSH1 0x20 MUL DUP3 ADD JUMPDEST DUP3 DUP2 GT ISZERO PUSH2 0x1C7E JUMPI DUP3 MLOAD DUP3 SSTORE SWAP2 PUSH1 0x20 ADD SWAP2 SWAP1 PUSH1 0x1 ADD SWAP1 PUSH2 0x1C63 JUMP JUMPDEST JUMPDEST POP SWAP1 POP PUSH2 0x1C8C SWAP2 SWAP1 PUSH2 0x1CB1 JUMP JUMPDEST POP SWAP1 JUMP JUMPDEST POP DUP1 SLOAD PUSH1 0x0 DUP3 SSTORE SWAP1 PUSH1 0x0 MSTORE PUSH1 0x20 PUSH1 0x0 KECCAK256 SWAP1 DUP2 ADD SWAP1 PUSH2 0x1CAE SWAP2 SWAP1 PUSH2 0x1CB1 JUMP JUMPDEST POP JUMP JUMPDEST JUMPDEST DUP1 DUP3 GT ISZERO PUSH2 0x1CCA JUMPI PUSH1 0x0 DUP2 PUSH1 0x0 SWAP1 SSTORE POP PUSH1 0x1 ADD PUSH2 0x1CB2 JUMP JUMPDEST POP SWAP1 JUMP JUMPDEST PUSH1 0x0 PUSH1 0x40 MLOAD SWAP1 POP SWAP1 JUMP JUMPDEST PUSH1 0x0 DUP1 REVERT JUMPDEST PUSH1 0x0 DUP1 REVERT JUMPDEST PUSH1 0x0 PUSH32 0xFFFFFFFF00000000000000000000000000000000000000000000000000000000 DUP3 AND SWAP1 POP SWAP2 SWAP1 POP JUMP JUMPDEST PUSH2 0x1D17 DUP2 PUSH2 0x1CE2 JUMP JUMPDEST DUP2 EQ PUSH2 0x1D22 JUMPI PUSH1 0x0 DUP1 REVERT JUMPDEST POP JUMP JUMPDEST PUSH1 0x0 DUP2 CALLDATALOAD SWAP1 POP PUSH2 0x1D34 DUP2 PUSH2 0x1D0E JUMP JUMPDEST SWAP3 SWAP2 POP POP JUMP JUMPDEST PUSH1 0x0 PUSH1 0x20 DUP3 DUP5 SUB SLT ISZERO PUSH2 0x1D50 JUMPI PUSH2 0x1D4F PUSH2 0x1CD8 JUMP JUMPDEST JUMPDEST PUSH1 0x0 PUSH2 0x1D5E DUP5 DUP3 DUP6 ADD PUSH2 0x1D25 JUMP JUMPDEST SWAP2 POP POP SWAP3 SWAP2 POP POP JUMP JUMPDEST PUSH1 0x0 DUP2 ISZERO ISZERO SWAP1 POP SWAP2 SWAP1 POP JUMP JUMPDEST PUSH2 0x1D7C DUP2 PUSH2 0x1D67 JUMP JUMPDEST DUP3 MSTORE POP POP JUMP JUMPDEST PUSH1 0x0 PUSH1 0x20 DUP3 ADD SWAP1 POP PUSH2 0x1D97 PUSH1 0x0 DUP4 ADD DUP5 PUSH2 0x1D73 JUMP JUMPDEST SWAP3 SWAP2 POP POP JUMP JUMPDEST PUSH1 0x0 PUSH8 0xFFFFFFFFFFFFFFFF DUP3 AND SWAP1 POP SWAP2 SWAP1 POP JUMP JUMPDEST PUSH2 0x1DBA DUP2 PUSH2 0x1D9D JUMP JUMPDEST DUP2 EQ PUSH2 0x1DC5 JUMPI PUSH1 0x0 DUP1 REVERT JUMPDEST POP JUMP JUMPDEST PUSH1 0x0 DUP2 CALLDATALOAD SWAP1 POP PUSH2 0x1DD7 DUP2 PUSH2 0x1DB1 JUMP JUMPDEST SWAP3 SWAP2 POP POP JUMP JUMPDEST PUSH1 0x0 PUSH1 0x20 DUP3 DUP5 SUB SLT ISZERO PUSH2 0x1DF3 JUMPI PUSH2 0x1DF2 PUSH2 0x1CD8 JUMP JUMPDEST JUMPDEST PUSH1 0x0 PUSH2 0x1E01 DUP5 DUP3 DUP6 ADD PUSH2 0x1DC8 JUMP JUMPDEST SWAP2 POP POP SWAP3 SWAP2 POP POP JUMP JUMPDEST PUSH1 0x0 DUP2 SWAP1 POP SWAP2 SWAP1 POP JUMP JUMPDEST PUSH2 0x1E1D DUP2 PUSH2 0x1E0A JUMP JUMPDEST DUP3 MSTORE POP POP JUMP JUMPDEST PUSH1 0x0 PUSH1 0x20 DUP3 ADD SWAP1 POP PUSH2 0x1E38 PUSH1 0x0 DUP4 ADD DUP5 PUSH2 0x1E14 JUMP JUMPDEST SWAP3 SWAP2 POP POP JUMP JUMPDEST PUSH1 0x0 PUSH20 0xFFFFFFFFFFFFFFFFFFFFFFFFFFFFFFFFFFFFFFFF DUP3 AND SWAP1 POP SWAP2 SWAP1 POP JUMP JUMPDEST PUSH1 0x0 PUSH2 0x1E69 DUP3 PUSH2 0x1E3E JUMP JUMPDEST SWAP1 POP SWAP2 SWAP1 POP JUMP JUMPDEST PUSH2 0x1E79 DUP2 PUSH2 0x1E5E JUMP JUMPDEST DUP2 EQ PUSH2 0x1E84 JUMPI PUSH1 0x0 DUP1 REVERT JUMPDEST POP JUMP JUMPDEST PUSH1 0x0 DUP2 CALLDATALOAD SWAP1 POP PUSH2 0x1E96 DUP2 PUSH2 0x1E70 JUMP JUMPDEST SWAP3 SWAP2 POP POP JUMP JUMPDEST PUSH1 0x0 DUP2 SWAP1 POP SWAP2 SWAP1 POP JUMP JUMPDEST PUSH2 0x1EAF DUP2 PUSH2 0x1E9C JUMP JUMPDEST DUP2 EQ PUSH2 0x1EBA JUMPI PUSH1 0x0 DUP1 REVERT JUMPDEST POP JUMP JUMPDEST PUSH1 0x0 DUP2 CALLDATALOAD SWAP1 POP PUSH2 0x1ECC DUP2 PUSH2 0x1EA6 JUMP JUMPDEST SWAP3 SWAP2 POP POP JUMP JUMPDEST PUSH1 0x0 DUP1 PUSH1 0x40 DUP4 DUP6 SUB SLT ISZERO PUSH2 0x1EE9 JUMPI PUSH2 0x1EE8 PUSH2 0x1CD8 JUMP JUMPDEST JUMPDEST PUSH1 0x0 PUSH2 0x1EF7 DUP6 DUP3 DUP7 ADD PUSH2 0x1E87 JUMP JUMPDEST SWAP3 POP POP PUSH1 0x20 PUSH2 0x1F08 DUP6 DUP3 DUP7 ADD PUSH2 0x1EBD JUMP JUMPDEST SWAP2 POP POP SWAP3 POP SWAP3 SWAP1 POP JUMP JUMPDEST PUSH2 0x1F1B DUP2 PUSH2 0x1E5E JUMP JUMPDEST DUP3 MSTORE POP POP JUMP JUMPDEST PUSH1 0x0 PUSH1 0x20 DUP3 ADD SWAP1 POP PUSH2 0x1F36 PUSH1 0x0 DUP4 ADD DUP5 PUSH2 0x1F12 JUMP JUMPDEST SWAP3 SWAP2 POP POP JUMP JUMPDEST PUSH2 0x1F45 DUP2 PUSH2 0x1E0A JUMP JUMPDEST DUP2 EQ PUSH2 0x1F50 JUMPI PUSH1 0x0 DUP1 REVERT JUMPDEST POP JUMP JUMPDEST PUSH1 0x0 DUP2 CALLDATALOAD SWAP1 POP PUSH2 0x1F62 DUP2 PUSH2 0x1F3C JUMP JUMPDEST SWAP3 SWAP2 POP POP JUMP JUMPDEST PUSH1 0x0 PUSH1 0x20 DUP3 DUP5 SUB SLT ISZERO PUSH2 0x1F7E JUMPI PUSH2 0x1F7D PUSH2 0x1CD8 JUMP JUMPDEST JUMPDEST PUSH1 0x0 PUSH2 0x1F8C DUP5 DUP3 DUP6 ADD PUSH2 0x1F53 JUMP JUMPDEST SWAP2 POP POP SWAP3 SWAP2 POP POP JUMP JUMPDEST PUSH1 0x0 DUP1 PUSH1 0x40 DUP4 DUP6 SUB SLT ISZERO PUSH2 0x1FAC JUMPI PUSH2 0x1FAB PUSH2 0x1CD8 JUMP JUMPDEST JUMPDEST PUSH1 0x0 PUSH2 0x1FBA DUP6 DUP3 DUP7 ADD PUSH2 0x1F53 JUMP JUMPDEST SWAP3 POP POP PUSH1 0x20 PUSH2 0x1FCB DUP6 DUP3 DUP7 ADD PUSH2 0x1E87 JUMP JUMPDEST SWAP2 POP POP SWAP3 POP SWAP3 SWAP1 POP JUMP JUMPDEST PUSH1 0x0 PUSH1 0x20 DUP3 DUP5 SUB SLT ISZERO PUSH2 0x1FEB JUMPI PUSH2 0x1FEA PUSH2 0x1CD8 JUMP JUMPDEST JUMPDEST PUSH1 0x0 PUSH2 0x1FF9 DUP5 DUP3 DUP6 ADD PUSH2 0x1E87 JUMP JUMPDEST SWAP2 POP POP SWAP3 SWAP2 POP POP JUMP JUMPDEST PUSH1 0x0 DUP2 MLOAD SWAP1 POP SWAP2 SWAP1 POP JUMP JUMPDEST PUSH1 0x0 DUP3 DUP3 MSTORE PUSH1 0x20 DUP3 ADD SWAP1 POP SWAP3 SWAP2 POP POP JUMP JUMPDEST PUSH1 0x0 JUMPDEST DUP4 DUP2 LT ISZERO PUSH2 0x203C JUMPI DUP1 DUP3 ADD MLOAD DUP2 DUP5 ADD MSTORE PUSH1 0x20 DUP2 ADD SWAP1 POP PUSH2 0x2021 JUMP JUMPDEST PUSH1 0x0 DUP5 DUP5 ADD MSTORE POP POP POP POP JUMP JUMPDEST PUSH1 0x0 PUSH1 0x1F NOT PUSH1 0x1F DUP4 ADD AND SWAP1 POP SWAP2 SWAP1 POP JUMP JUMPDEST PUSH1 0x0 PUSH2 0x2064 DUP3 PUSH2 0x2002 JUMP JUMPDEST PUSH2 0x206E DUP2 DUP6 PUSH2 0x200D JUMP JUMPDEST SWAP4 POP PUSH2 0x207E DUP2 DUP6 PUSH1 0x20 DUP7 ADD PUSH2 0x201E JUMP JUMPDEST PUSH2 0x2087 DUP2 PUSH2 0x2048 JUMP JUMPDEST DUP5 ADD SWAP2 POP POP SWAP3 SWAP2 POP POP JUMP JUMPDEST PUSH2 0x209B DUP2 PUSH2 0x1E9C JUMP JUMPDEST DUP3 MSTORE POP POP JUMP JUMPDEST PUSH1 0x0 PUSH1 0x80 DUP3 ADD SWAP1 POP DUP2 DUP2 SUB PUSH1 0x0 DUP4 ADD MSTORE PUSH2 0x20BB DUP2 DUP8 PUSH2 0x2059 JUMP JUMPDEST SWAP1 POP PUSH2 0x20CA PUSH1 0x20 DUP4 ADD DUP7 PUSH2 0x2092 JUMP JUMPDEST PUSH2 0x20D7 PUSH1 0x40 DUP4 ADD DUP6 PUSH2 0x2092 JUMP JUMPDEST PUSH2 0x20E4 PUSH1 0x60 DUP4 ADD DUP5 PUSH2 0x1D73 JUMP JUMPDEST SWAP6 SWAP5 POP POP POP POP POP JUMP JUMPDEST PUSH1 0x0 DUP1 REVERT JUMPDEST PUSH1 0x0 DUP1 REVERT JUMPDEST PUSH32 0x4E487B7100000000000000000000000000000000000000000000000000000000 PUSH1 0x0 MSTORE PUSH1 0x41 PUSH1 0x4 MSTORE PUSH1 0x24 PUSH1 0x0 REVERT JUMPDEST PUSH2 0x212F DUP3 PUSH2 0x2048 JUMP JUMPDEST DUP2 ADD DUP2 DUP2 LT PUSH8 0xFFFFFFFFFFFFFFFF DUP3 GT OR ISZERO PUSH2 0x214E JUMPI PUSH2 0x214D PUSH2 0x20F7 JUMP JUMPDEST JUMPDEST DUP1 PUSH1 0x40 MSTORE POP POP POP JUMP JUMPDEST PUSH1 0x0 PUSH2 0x2161 PUSH2 0x1CCE JUMP JUMPDEST SWAP1 POP PUSH2 0x216D DUP3 DUP3 PUSH2 0x2126 JUMP JUMPDEST SWAP2 SWAP1 POP JUMP JUMPDEST PUSH1 0x0 PUSH8 0xFFFFFFFFFFFFFFFF DUP3 GT ISZERO PUSH2 0x218D JUMPI PUSH2 0x218C PUSH2 0x20F7 JUMP JUMPDEST JUMPDEST PUSH2 0x2196 DUP3 PUSH2 0x2048 JUMP JUMPDEST SWAP1 POP PUSH1 0x20 DUP2 ADD SWAP1 POP SWAP2 SWAP1 POP JUMP JUMPDEST DUP3 DUP2 DUP4 CALLDATACOPY PUSH1 0x0 DUP4 DUP4 ADD MSTORE POP POP POP JUMP JUMPDEST PUSH1 0x0 PUSH2 0x21C5 PUSH2 0x21C0 DUP5 PUSH2 0x2172 JUMP JUMPDEST PUSH2 0x2157 JUMP JUMPDEST SWAP1 POP DUP3 DUP2 MSTORE PUSH1 0x20 DUP2 ADD DUP5 DUP5 DUP5 ADD GT ISZERO PUSH2 0x21E1 JUMPI PUSH2 0x21E0 PUSH2 0x20F2 JUMP JUMPDEST JUMPDEST PUSH2 0x21EC DUP5 DUP3 DUP6 PUSH2 0x21A3 JUMP JUMPDEST POP SWAP4 SWAP3 POP POP POP JUMP JUMPDEST PUSH1 0x0 DUP3 PUSH1 0x1F DUP4 ADD SLT PUSH2 0x2209 JUMPI PUSH2 0x2208 PUSH2 0x20ED JUMP JUMPDEST JUMPDEST DUP2 CALLDATALOAD PUSH2 0x2219 DUP5 DUP3 PUSH1 0x20 DUP7 ADD PUSH2 0x21B2 JUMP JUMPDEST SWAP2 POP POP SWAP3 SWAP2 POP POP JUMP JUMPDEST PUSH1 0x0 PUSH1 0x20 DUP3 DUP5 SUB SLT ISZERO PUSH2 0x2238 JUMPI PUSH2 0x2237 PUSH2 0x1CD8 JUMP JUMPDEST JUMPDEST PUSH1 0x0 DUP3 ADD CALLDATALOAD PUSH8 0xFFFFFFFFFFFFFFFF DUP2 GT ISZERO PUSH2 0x2256 JUMPI PUSH2 0x2255 PUSH2 0x1CDD JUMP JUMPDEST JUMPDEST PUSH2 0x2262 DUP5 DUP3 DUP6 ADD PUSH2 0x21F4 JUMP JUMPDEST SWAP2 POP POP SWAP3 SWAP2 POP POP JUMP JUMPDEST PUSH1 0x0 DUP1 REVERT JUMPDEST PUSH1 0x0 DUP1 REVERT JUMPDEST PUSH1 0x0 PUSH1 0x80 DUP3 DUP5 SUB SLT ISZERO PUSH2 0x228B JUMPI PUSH2 0x228A PUSH2 0x226B JUMP JUMPDEST JUMPDEST PUSH2 0x2295 PUSH1 0x80 PUSH2 0x2157 JUMP JUMPDEST SWAP1 POP PUSH1 0x0 PUSH2 0x22A5 DUP5 DUP3 DUP6 ADD PUSH2 0x1EBD JUMP JUMPDEST PUSH1 0x0 DUP4 ADD MSTORE POP PUSH1 0x20 PUSH2 0x22B9 DUP5 DUP3 DUP6 ADD PUSH2 0x1EBD JUMP JUMPDEST PUSH1 0x20 DUP4 ADD MSTORE POP PUSH1 0x40 PUSH2 0x22CD DUP5 DUP3 DUP6 ADD PUSH2 0x1E87 JUMP JUMPDEST PUSH1 0x40 DUP4 ADD MSTORE POP PUSH1 0x60 DUP3 ADD CALLDATALOAD PUSH8 0xFFFFFFFFFFFFFFFF DUP2 GT ISZERO PUSH2 0x22F1 JUMPI PUSH2 0x22F0 PUSH2 0x2270 JUMP JUMPDEST JUMPDEST PUSH2 0x22FD DUP5 DUP3 DUP6 ADD PUSH2 0x21F4 JUMP JUMPDEST PUSH1 0x60 DUP4 ADD MSTORE POP SWAP3 SWAP2 POP POP JUMP JUMPDEST PUSH1 0x0 PUSH1 0x20 DUP3 DUP5 SUB SLT ISZERO PUSH2 0x231F JUMPI PUSH2 0x231E PUSH2 0x1CD8 JUMP JUMPDEST JUMPDEST PUSH1 0x0 DUP3 ADD CALLDATALOAD PUSH8 0xFFFFFFFFFFFFFFFF DUP2 GT ISZERO PUSH2 0x233D JUMPI PUSH2 0x233C PUSH2 0x1CDD JUMP JUMPDEST JUMPDEST PUSH2 0x2349 DUP5 DUP3 DUP6 ADD PUSH2 0x2275 JUMP JUMPDEST SWAP2 POP POP SWAP3 SWAP2 POP POP JUMP JUMPDEST PUSH1 0x0 PUSH1 0x20 DUP3 ADD SWAP1 POP PUSH2 0x2367 PUSH1 0x0 DUP4 ADD DUP5 PUSH2 0x2092 JUMP JUMPDEST SWAP3 SWAP2 POP POP JUMP JUMPDEST PUSH1 0x0 DUP1 PUSH1 0x0 PUSH1 0x60 DUP5 DUP7 SUB SLT ISZERO PUSH2 0x2386 JUMPI PUSH2 0x2385 PUSH2 0x1CD8 JUMP JUMPDEST JUMPDEST PUSH1 0x0 PUSH2 0x2394 DUP7 DUP3 DUP8 ADD PUSH2 0x1E87 JUMP JUMPDEST SWAP4 POP POP PUSH1 0x20 PUSH2 0x23A5 DUP7 DUP3 DUP8 ADD PUSH2 0x1EBD JUMP JUMPDEST SWAP3 POP POP PUSH1 0x40 PUSH2 0x23B6 DUP7 DUP3 DUP8 ADD PUSH2 0x1EBD JUMP JUMPDEST SWAP2 POP POP SWAP3 POP SWAP3 POP SWAP3 JUMP JUMPDEST PUSH1 0x0 PUSH1 0x20 DUP3 DUP5 SUB SLT ISZERO PUSH2 0x23D6 JUMPI PUSH2 0x23D5 PUSH2 0x1CD8 JUMP JUMPDEST JUMPDEST PUSH1 0x0 PUSH2 0x23E4 DUP5 DUP3 DUP6 ADD PUSH2 0x1EBD JUMP JUMPDEST SWAP2 POP POP SWAP3 SWAP2 POP POP JUMP JUMPDEST PUSH1 0x0 DUP2 SWAP1 POP SWAP2 SWAP1 POP JUMP JUMPDEST PUSH1 0x0 PUSH2 0x2412 PUSH2 0x240D PUSH2 0x2408 DUP5 PUSH2 0x1E3E JUMP JUMPDEST PUSH2 0x23ED JUMP JUMPDEST PUSH2 0x1E3E JUMP JUMPDEST SWAP1 POP SWAP2 SWAP1 POP JUMP JUMPDEST PUSH1 0x0 PUSH2 0x2424 DUP3 PUSH2 0x23F7 JUMP JUMPDEST SWAP1 POP SWAP2 SWAP1 POP JUMP JUMPDEST PUSH1 0x0 PUSH2 0x2436 DUP3 PUSH2 0x2419 JUMP JUMPDEST SWAP1 POP SWAP2 SWAP1 POP JUMP JUMPDEST PUSH2 0x2446 DUP2 PUSH2 0x242B JUMP JUMPDEST DUP3 MSTORE POP POP JUMP JUMPDEST PUSH1 0x0 PUSH1 0x20 DUP3 ADD SWAP1 POP PUSH2 0x2461 PUSH1 0x0 DUP4 ADD DUP5 PUSH2 0x243D JUMP JUMPDEST SWAP3 SWAP2 POP POP JUMP JUMPDEST PUSH32 0x4E487B7100000000000000000000000000000000000000000000000000000000 PUSH1 0x0 MSTORE PUSH1 0x22 PUSH1 0x4 MSTORE PUSH1 0x24 PUSH1 0x0 REVERT JUMPDEST PUSH1 0x0 PUSH1 0x2 DUP3 DIV SWAP1 POP PUSH1 0x1 DUP3 AND DUP1 PUSH2 0x24AE JUMPI PUSH1 0x7F DUP3 AND SWAP2 POP JUMPDEST PUSH1 0x20 DUP3 LT DUP2 SUB PUSH2 0x24C1 JUMPI PUSH2 0x24C0 PUSH2 0x2467 JUMP JUMPDEST JUMPDEST POP SWAP2 SWAP1 POP JUMP JUMPDEST PUSH32 0x5573657220616C72656164792065786973747300000000000000000000000000 PUSH1 0x0 DUP3 ADD MSTORE POP JUMP JUMPDEST PUSH1 0x0 PUSH2 0x24FD PUSH1 0x13 DUP4 PUSH2 0x200D JUMP JUMPDEST SWAP2 POP PUSH2 0x2508 DUP3 PUSH2 0x24C7 JUMP JUMPDEST PUSH1 0x20 DUP3 ADD SWAP1 POP SWAP2 SWAP1 POP JUMP JUMPDEST PUSH1 0x0 PUSH1 0x20 DUP3 ADD SWAP1 POP DUP2 DUP2 SUB PUSH1 0x0 DUP4 ADD MSTORE PUSH2 0x252C DUP2 PUSH2 0x24F0 JUMP JUMPDEST SWAP1 POP SWAP2 SWAP1 POP JUMP JUMPDEST PUSH1 0x0 DUP2 SWAP1 POP DUP2 PUSH1 0x0 MSTORE PUSH1 0x20 PUSH1 0x0 KECCAK256 SWAP1 POP SWAP2 SWAP1 POP JUMP JUMPDEST PUSH1 0x0 PUSH1 0x20 PUSH1 0x1F DUP4 ADD DIV SWAP1 POP SWAP2 SWAP1 POP JUMP JUMPDEST PUSH1 0x0 DUP3 DUP3 SHL SWAP1 POP SWAP3 SWAP2 POP POP JUMP JUMPDEST PUSH1 0x0 PUSH1 0x8 DUP4 MUL PUSH2 0x2595 PUSH32 0xFFFFFFFFFFFFFFFFFFFFFFFFFFFFFFFFFFFFFFFFFFFFFFFFFFFFFFFFFFFFFFFF DUP3 PUSH2 0x2558 JUMP JUMPDEST PUSH2 0x259F DUP7 DUP4 PUSH2 0x2558 JUMP JUMPDEST SWAP6 POP DUP1 NOT DUP5 AND SWAP4 POP DUP1 DUP7 AND DUP5 OR SWAP3 POP POP POP SWAP4 SWAP3 POP POP POP JUMP JUMPDEST PUSH1 0x0 PUSH2 0x25D2 PUSH2 0x25CD PUSH2 0x25C8 DUP5 PUSH2 0x1E9C JUMP JUMPDEST PUSH2 0x23ED JUMP JUMPDEST PUSH2 0x1E9C JUMP JUMPDEST SWAP1 POP SWAP2 SWAP1 POP JUMP JUMPDEST PUSH1 0x0 DUP2 SWAP1 POP SWAP2 SWAP1 POP JUMP JUMPDEST PUSH2 0x25EC DUP4 PUSH2 0x25B7 JUMP JUMPDEST PUSH2 0x2600 PUSH2 0x25F8 DUP3 PUSH2 0x25D9 JUMP JUMPDEST DUP5 DUP5 SLOAD PUSH2 0x2565 JUMP JUMPDEST DUP3 SSTORE POP POP POP POP JUMP JUMPDEST PUSH1 0x0 SWAP1 JUMP JUMPDEST PUSH2 0x2615 PUSH2 0x2608 JUMP JUMPDEST PUSH2 0x2620 DUP2 DUP5 DUP5 PUSH2 0x25E3 JUMP JUMPDEST POP POP POP JUMP JUMPDEST JUMPDEST DUP2 DUP2 LT ISZERO PUSH2 0x2644 JUMPI PUSH2 0x2639 PUSH1 0x0 DUP3 PUSH2 0x260D JUMP JUMPDEST PUSH1 0x1 DUP2 ADD SWAP1 POP PUSH2 0x2626 JUMP JUMPDEST POP POP JUMP JUMPDEST PUSH1 0x1F DUP3 GT ISZERO PUSH2 0x2689 JUMPI PUSH2 0x265A DUP2 PUSH2 0x2533 JUMP JUMPDEST PUSH2 0x2663 DUP5 PUSH2 0x2548 JUMP JUMPDEST DUP2 ADD PUSH1 0x20 DUP6 LT ISZERO PUSH2 0x2672 JUMPI DUP2 SWAP1 POP JUMPDEST PUSH2 0x2686 PUSH2 0x267E DUP6 PUSH2 0x2548 JUMP JUMPDEST DUP4 ADD DUP3 PUSH2 0x2625 JUMP JUMPDEST POP POP JUMPDEST POP POP POP JUMP JUMPDEST PUSH1 0x0 DUP3 DUP3 SHR SWAP1 POP SWAP3 SWAP2 POP POP JUMP JUMPDEST PUSH1 0x0 PUSH2 0x26AC PUSH1 0x0 NOT DUP5 PUSH1 0x8 MUL PUSH2 0x268E JUMP JUMPDEST NOT DUP1 DUP4 AND SWAP2 POP POP SWAP3 SWAP2 POP POP JUMP JUMPDEST PUSH1 0x0 PUSH2 0x26C5 DUP4 DUP4 PUSH2 0x269B JUMP JUMPDEST SWAP2 POP DUP3 PUSH1 0x2 MUL DUP3 OR SWAP1 POP SWAP3 SWAP2 POP POP JUMP JUMPDEST PUSH2 0x26DE DUP3 PUSH2 0x2002 JUMP JUMPDEST PUSH8 0xFFFFFFFFFFFFFFFF DUP2 GT ISZERO PUSH2 0x26F7 JUMPI PUSH2 0x26F6 PUSH2 0x20F7 JUMP JUMPDEST JUMPDEST PUSH2 0x2701 DUP3 SLOAD PUSH2 0x2496 JUMP JUMPDEST PUSH2 0x270C DUP3 DUP3 DUP6 PUSH2 0x2648 JUMP JUMPDEST PUSH1 0x0 PUSH1 0x20 SWAP1 POP PUSH1 0x1F DUP4 GT PUSH1 0x1 DUP2 EQ PUSH2 0x273F JUMPI PUSH1 0x0 DUP5 ISZERO PUSH2 0x272D JUMPI DUP3 DUP8 ADD MLOAD SWAP1 POP JUMPDEST PUSH2 0x2737 DUP6 DUP3 PUSH2 0x26B9 JUMP JUMPDEST DUP7 SSTORE POP PUSH2 0x279F JUMP JUMPDEST PUSH1 0x1F NOT DUP5 AND PUSH2 0x274D DUP7 PUSH2 0x2533 JUMP JUMPDEST PUSH1 0x0 JUMPDEST DUP3 DUP2 LT ISZERO PUSH2 0x2775 JUMPI DUP5 DUP10 ADD MLOAD DUP3 SSTORE PUSH1 0x1 DUP3 ADD SWAP2 POP PUSH1 0x20 DUP6 ADD SWAP5 POP PUSH1 0x20 DUP2 ADD SWAP1 POP PUSH2 0x2750 JUMP JUMPDEST DUP7 DUP4 LT ISZERO PUSH2 0x2792 JUMPI DUP5 DUP10 ADD MLOAD PUSH2 0x278E PUSH1 0x1F DUP10 AND DUP3 PUSH2 0x269B JUMP JUMPDEST DUP4 SSTORE POP JUMPDEST PUSH1 0x1 PUSH1 0x2 DUP9 MUL ADD DUP9 SSTORE POP POP POP JUMPDEST POP POP POP POP POP POP JUMP JUMPDEST PUSH32 0x546869732075736572206E6F7420617574686F72697A656420746F206576616C PUSH1 0x0 DUP3 ADD MSTORE PUSH32 0x7561746520746865206576616C75617465652E00000000000000000000000000 PUSH1 0x20 DUP3 ADD MSTORE POP JUMP JUMPDEST PUSH1 0x0 PUSH2 0x2803 PUSH1 0x33 DUP4 PUSH2 0x200D JUMP JUMPDEST SWAP2 POP PUSH2 0x280E DUP3 PUSH2 0x27A7 JUMP JUMPDEST PUSH1 0x40 DUP3 ADD SWAP1 POP SWAP2 SWAP1 POP JUMP JUMPDEST PUSH1 0x0 PUSH1 0x20 DUP3 ADD SWAP1 POP DUP2 DUP2 SUB PUSH1 0x0 DUP4 ADD MSTORE PUSH2 0x2832 DUP2 PUSH2 0x27F6 JUMP JUMPDEST SWAP1 POP SWAP2 SWAP1 POP JUMP JUMPDEST PUSH32 0x4E487B7100000000000000000000000000000000000000000000000000000000 PUSH1 0x0 MSTORE PUSH1 0x32 PUSH1 0x4 MSTORE PUSH1 0x24 PUSH1 0x0 REVERT JUMPDEST PUSH2 0x2871 DUP2 PUSH2 0x1E9C JUMP JUMPDEST DUP3 MSTORE POP POP JUMP JUMPDEST PUSH2 0x2880 DUP2 PUSH2 0x1E5E JUMP JUMPDEST DUP3 MSTORE POP POP JUMP JUMPDEST PUSH1 0x0 DUP3 DUP3 MSTORE PUSH1 0x20 DUP3 ADD SWAP1 POP SWAP3 SWAP2 POP POP JUMP JUMPDEST PUSH1 0x0 PUSH2 0x28A2 DUP3 PUSH2 0x2002 JUMP JUMPDEST PUSH2 0x28AC DUP2 DUP6 PUSH2 0x2886 JUMP JUMPDEST SWAP4 POP PUSH2 0x28BC DUP2 DUP6 PUSH1 0x20 DUP7 ADD PUSH2 0x201E JUMP JUMPDEST PUSH2 0x28C5 DUP2 PUSH2 0x2048 JUMP JUMPDEST DUP5 ADD SWAP2 POP POP SWAP3 SWAP2 POP POP JUMP JUMPDEST PUSH1 0x0 PUSH1 0x80 DUP4 ADD PUSH1 0x0 DUP4 ADD MLOAD PUSH2 0x28E8 PUSH1 0x0 DUP7 ADD DUP3 PUSH2 0x2868 JUMP JUMPDEST POP PUSH1 0x20 DUP4 ADD MLOAD PUSH2 0x28FB PUSH1 0x20 DUP7 ADD DUP3 PUSH2 0x2868 JUMP JUMPDEST POP PUSH1 0x40 DUP4 ADD MLOAD PUSH2 0x290E PUSH1 0x40 DUP7 ADD DUP3 PUSH2 0x2877 JUMP JUMPDEST POP PUSH1 0x60 DUP4 ADD MLOAD DUP5 DUP3 SUB PUSH1 0x60 DUP7 ADD MSTORE PUSH2 0x2926 DUP3 DUP3 PUSH2 0x2897 JUMP JUMPDEST SWAP2 POP POP DUP1 SWAP2 POP POP SWAP3 SWAP2 POP POP JUMP JUMPDEST PUSH1 0x0 PUSH1 0x20 DUP3 ADD SWAP1 POP DUP2 DUP2 SUB PUSH1 0x0 DUP4 ADD MSTORE PUSH2 0x294D DUP2 DUP5 PUSH2 0x28D0 JUMP JUMPDEST SWAP1 POP SWAP3 SWAP2 POP POP JUMP JUMPDEST PUSH32 0x4E487B7100000000000000000000000000000000000000000000000000000000 PUSH1 0x0 MSTORE PUSH1 0x21 PUSH1 0x4 MSTORE PUSH1 0x24 PUSH1 0x0 REVERT JUMPDEST PUSH2 0x298D DUP2 PUSH2 0x1D9D JUMP JUMPDEST DUP3 MSTORE POP POP JUMP JUMPDEST PUSH1 0x4 DUP2 LT PUSH2 0x29A4 JUMPI PUSH2 0x29A3 PUSH2 0x2955 JUMP JUMPDEST JUMPDEST POP JUMP JUMPDEST PUSH1 0x0 DUP2 SWAP1 POP PUSH2 0x29B5 DUP3 PUSH2 0x2993 JUMP JUMPDEST SWAP2 SWAP1 POP JUMP JUMPDEST PUSH1 0x0 PUSH2 0x29C5 DUP3 PUSH2 0x29A7 JUMP JUMPDEST SWAP1 POP SWAP2 SWAP1 POP JUMP JUMPDEST PUSH2 0x29D5 DUP2 PUSH2 0x29BA JUMP JUMPDEST DUP3 MSTORE POP POP JUMP JUMPDEST PUSH2 0x29E4 DUP2 PUSH2 0x1D67 JUMP JUMPDEST DUP3 MSTORE POP POP JUMP JUMPDEST PUSH1 0x0 DUP2 MLOAD SWAP1 POP SWAP2 SWAP1 POP JUMP JUMPDEST PUSH1 0x0 DUP3 DUP3 MSTORE PUSH1 0x20 DUP3 ADD SWAP1 POP SWAP3 SWAP2 POP POP JUMP JUMPDEST PUSH1 0x0 DUP2 SWAP1 POP PUSH1 0x20 DUP3 ADD SWAP1 POP SWAP2 SWAP1 POP JUMP JUMPDEST PUSH1 0x0 DUP2 MLOAD SWAP1 POP SWAP2 SWAP1 POP JUMP JUMPDEST PUSH1 0x0 DUP3 DUP3 MSTORE PUSH1 0x20 DUP3 ADD SWAP1 POP SWAP3 SWAP2 POP POP JUMP JUMPDEST PUSH1 0x0 PUSH2 0x2A3D DUP3 PUSH2 0x2A16 JUMP JUMPDEST PUSH2 0x2A47 DUP2 DUP6 PUSH2 0x2A21 JUMP JUMPDEST SWAP4 POP PUSH2 0x2A57 DUP2 DUP6 PUSH1 0x20 DUP7 ADD PUSH2 0x201E JUMP JUMPDEST PUSH2 0x2A60 DUP2 PUSH2 0x2048 JUMP JUMPDEST DUP5 ADD SWAP2 POP POP SWAP3 SWAP2 POP POP JUMP JUMPDEST PUSH1 0x0 PUSH2 0x2A77 DUP4 DUP4 PUSH2 0x2A32 JUMP JUMPDEST SWAP1 POP SWAP3 SWAP2 POP POP JUMP JUMPDEST PUSH1 0x0 PUSH1 0x20 DUP3 ADD SWAP1 POP SWAP2 SWAP1 POP JUMP JUMPDEST PUSH1 0x0 PUSH2 0x2A97 DUP3 PUSH2 0x29EA JUMP JUMPDEST PUSH2 0x2AA1 DUP2 DUP6 PUSH2 0x29F5 JUMP JUMPDEST SWAP4 POP DUP4 PUSH1 0x20 DUP3 MUL DUP6 ADD PUSH2 0x2AB3 DUP6 PUSH2 0x2A06 JUMP JUMPDEST DUP1 PUSH1 0x0 JUMPDEST DUP6 DUP2 LT ISZERO PUSH2 0x2AEF JUMPI DUP5 DUP5 SUB DUP10 MSTORE DUP2 MLOAD PUSH2 0x2AD0 DUP6 DUP3 PUSH2 0x2A6B JUMP JUMPDEST SWAP5 POP PUSH2 0x2ADB DUP4 PUSH2 0x2A7F JUMP JUMPDEST SWAP3 POP PUSH1 0x20 DUP11 ADD SWAP10 POP POP PUSH1 0x1 DUP2 ADD SWAP1 POP PUSH2 0x2AB7 JUMP JUMPDEST POP DUP3 SWAP8 POP DUP8 SWAP6 POP POP POP POP POP POP SWAP3 SWAP2 POP POP JUMP JUMPDEST PUSH1 0x0 PUSH2 0x140 DUP4 ADD PUSH1 0x0 DUP4 ADD MLOAD PUSH2 0x2B1A PUSH1 0x0 DUP7 ADD DUP3 PUSH2 0x2984 JUMP JUMPDEST POP PUSH1 0x20 DUP4 ADD MLOAD PUSH2 0x2B2D PUSH1 0x20 DUP7 ADD DUP3 PUSH2 0x2984 JUMP JUMPDEST POP PUSH1 0x40 DUP4 ADD MLOAD PUSH2 0x2B40 PUSH1 0x40 DUP7 ADD DUP3 PUSH2 0x2984 JUMP JUMPDEST POP PUSH1 0x60 DUP4 ADD MLOAD PUSH2 0x2B53 PUSH1 0x60 DUP7 ADD DUP3 PUSH2 0x2984 JUMP JUMPDEST POP PUSH1 0x80 DUP4 ADD MLOAD PUSH2 0x2B66 PUSH1 0x80 DUP7 ADD DUP3 PUSH2 0x2877 JUMP JUMPDEST POP PUSH1 0xA0 DUP4 ADD MLOAD PUSH2 0x2B79 PUSH1 0xA0 DUP7 ADD DUP3 PUSH2 0x2984 JUMP JUMPDEST POP PUSH1 0xC0 DUP4 ADD MLOAD PUSH2 0x2B8C PUSH1 0xC0 DUP7 ADD DUP3 PUSH2 0x29CC JUMP JUMPDEST POP PUSH1 0xE0 DUP4 ADD MLOAD PUSH2 0x2B9F PUSH1 0xE0 DUP7 ADD DUP3 PUSH2 0x29DB JUMP JUMPDEST POP PUSH2 0x100 DUP4 ADD MLOAD DUP5 DUP3 SUB PUSH2 0x100 DUP7 ADD MSTORE PUSH2 0x2BB9 DUP3 DUP3 PUSH2 0x2A8C JUMP JUMPDEST SWAP2 POP POP PUSH2 0x120 DUP4 ADD MLOAD DUP5 DUP3 SUB PUSH2 0x120 DUP7 ADD MSTORE PUSH2 0x2BD5 DUP3 DUP3 PUSH2 0x2A32 JUMP JUMPDEST SWAP2 POP POP DUP1 SWAP2 POP POP SWAP3 SWAP2 POP POP JUMP JUMPDEST POP JUMP JUMPDEST PUSH1 0x0 PUSH2 0x2BF2 PUSH1 0x0 DUP4 PUSH2 0x200D JUMP JUMPDEST SWAP2 POP PUSH2 0x2BFD DUP3 PUSH2 0x2BE2 JUMP JUMPDEST PUSH1 0x0 DUP3 ADD SWAP1 POP SWAP2 SWAP1 POP JUMP JUMPDEST PUSH1 0x0 DUP3 DUP3 MSTORE PUSH1 0x20 DUP3 ADD SWAP1 POP SWAP3 SWAP2 POP POP JUMP JUMPDEST PUSH1 0x0 PUSH2 0x2C26 PUSH1 0x0 DUP4 PUSH2 0x2C08 JUMP JUMPDEST SWAP2 POP PUSH2 0x2C31 DUP3 PUSH2 0x2BE2 JUMP JUMPDEST PUSH1 0x0 DUP3 ADD SWAP1 POP SWAP2 SWAP1 POP JUMP JUMPDEST PUSH1 0x0 PUSH1 0x80 DUP3 ADD SWAP1 POP DUP2 DUP2 SUB PUSH1 0x0 DUP4 ADD MSTORE PUSH2 0x2C56 DUP2 DUP5 PUSH2 0x2B01 JUMP JUMPDEST SWAP1 POP DUP2 DUP2 SUB PUSH1 0x20 DUP4 ADD MSTORE PUSH2 0x2C69 DUP2 PUSH2 0x2BE5 JUMP JUMPDEST SWAP1 POP DUP2 DUP2 SUB PUSH1 0x40 DUP4 ADD MSTORE PUSH2 0x2C7C DUP2 PUSH2 0x2C19 JUMP JUMPDEST SWAP1 POP DUP2 DUP2 SUB PUSH1 0x60 DUP4 ADD MSTORE PUSH2 0x2C8F DUP2 PUSH2 0x2C19 JUMP JUMPDEST SWAP1 POP SWAP3 SWAP2 POP POP JUMP JUMPDEST PUSH1 0x0 DUP2 MLOAD SWAP1 POP PUSH2 0x2CA6 DUP2 PUSH2 0x1DB1 JUMP JUMPDEST SWAP3 SWAP2 POP POP JUMP JUMPDEST PUSH1 0x0 PUSH1 0x20 DUP3 DUP5 SUB SLT ISZERO PUSH2 0x2CC2 JUMPI PUSH2 0x2CC1 PUSH2 0x1CD8 JUMP JUMPDEST JUMPDEST PUSH1 0x0 PUSH2 0x2CD0 DUP5 DUP3 DUP6 ADD PUSH2 0x2C97 JUMP JUMPDEST SWAP2 POP POP SWAP3 SWAP2 POP POP JUMP JUMPDEST PUSH1 0x0 PUSH1 0x80 DUP3 ADD SWAP1 POP PUSH2 0x2CEE PUSH1 0x0 DUP4 ADD DUP8 PUSH2 0x1F12 JUMP JUMPDEST PUSH2 0x2CFB PUSH1 0x20 DUP4 ADD DUP7 PUSH2 0x2092 JUMP JUMPDEST PUSH2 0x2D08 PUSH1 0x40 DUP4 ADD DUP6 PUSH2 0x2092 JUMP JUMPDEST DUP2 DUP2 SUB PUSH1 0x60 DUP4 ADD MSTORE PUSH2 0x2D1A DUP2 DUP5 PUSH2 0x2059 JUMP JUMPDEST SWAP1 POP SWAP6 SWAP5 POP POP POP POP POP JUMP JUMPDEST PUSH32 0x5573657220646F6573206E6F7420657869737473000000000000000000000000 PUSH1 0x0 DUP3 ADD MSTORE POP JUMP JUMPDEST PUSH1 0x0 PUSH2 0x2D5B PUSH1 0x14 DUP4 PUSH2 0x200D JUMP JUMPDEST SWAP2 POP PUSH2 0x2D66 DUP3 PUSH2 0x2D25 JUMP JUMPDEST PUSH1 0x20 DUP3 ADD SWAP1 POP SWAP2 SWAP1 POP JUMP JUMPDEST PUSH1 0x0 PUSH1 0x20 DUP3 ADD SWAP1 POP DUP2 DUP2 SUB PUSH1 0x0 DUP4 ADD MSTORE PUSH2 0x2D8A DUP2 PUSH2 0x2D4E JUMP JUMPDEST SWAP1 POP SWAP2 SWAP1 POP JUMP JUMPDEST PUSH32 0x4E487B7100000000000000000000000000000000000000000000000000000000 PUSH1 0x0 MSTORE PUSH1 0x11 PUSH1 0x4 MSTORE PUSH1 0x24 PUSH1 0x0 REVERT JUMPDEST PUSH1 0x0 PUSH2 0x2DCB DUP3 PUSH2 0x1E9C JUMP JUMPDEST SWAP2 POP PUSH2 0x2DD6 DUP4 PUSH2 0x1E9C JUMP JUMPDEST SWAP3 POP DUP3 DUP3 ADD SWAP1 POP DUP1 DUP3 GT ISZERO PUSH2 0x2DEE JUMPI PUSH2 0x2DED PUSH2 0x2D91 JUMP JUMPDEST JUMPDEST SWAP3 SWAP2 POP POP JUMP JUMPDEST PUSH32 0x50726F6A65637420686173206E6F742073746172746564206279207468697320 PUSH1 0x0 DUP3 ADD MSTORE PUSH32 0x7573657200000000000000000000000000000000000000000000000000000000 PUSH1 0x20 DUP3 ADD MSTORE POP JUMP JUMPDEST PUSH1 0x0 PUSH2 0x2E50 PUSH1 0x24 DUP4 PUSH2 0x200D JUMP JUMPDEST SWAP2 POP PUSH2 0x2E5B DUP3 PUSH2 0x2DF4 JUMP JUMPDEST PUSH1 0x40 DUP3 ADD SWAP1 POP SWAP2 SWAP1 POP JUMP JUMPDEST PUSH1 0x0 PUSH1 0x20 DUP3 ADD SWAP1 POP DUP2 DUP2 SUB PUSH1 0x0 DUP4 ADD MSTORE PUSH2 0x2E7F DUP2 PUSH2 0x2E43 JUMP JUMPDEST SWAP1 POP SWAP2 SWAP1 POP JUMP JUMPDEST PUSH1 0x0 PUSH1 0x60 DUP3 ADD SWAP1 POP PUSH2 0x2E9B PUSH1 0x0 DUP4 ADD DUP7 PUSH2 0x1F12 JUMP JUMPDEST PUSH2 0x2EA8 PUSH1 0x20 DUP4 ADD DUP6 PUSH2 0x2092 JUMP JUMPDEST PUSH2 0x2EB5 PUSH1 0x40 DUP4 ADD DUP5 PUSH2 0x2092 JUMP JUMPDEST SWAP5 SWAP4 POP POP POP POP JUMP JUMPDEST PUSH1 0x0 PUSH2 0x2EC8 DUP3 PUSH2 0x1E9C JUMP JUMPDEST SWAP2 POP PUSH2 0x2ED3 DUP4 PUSH2 0x1E9C JUMP JUMPDEST SWAP3 POP DUP3 DUP3 MUL PUSH2 0x2EE1 DUP2 PUSH2 0x1E9C JUMP JUMPDEST SWAP2 POP DUP3 DUP3 DIV DUP5 EQ DUP4 ISZERO OR PUSH2 0x2EF8 JUMPI PUSH2 0x2EF7 PUSH2 0x2D91 JUMP JUMPDEST JUMPDEST POP SWAP3 SWAP2 POP POP JUMP JUMPDEST PUSH32 0x4E487B7100000000000000000000000000000000000000000000000000000000 PUSH1 0x0 MSTORE PUSH1 0x12 PUSH1 0x4 MSTORE PUSH1 0x24 PUSH1 0x0 REVERT JUMPDEST PUSH1 0x0 PUSH2 0x2F39 DUP3 PUSH2 0x1E9C JUMP JUMPDEST SWAP2 POP PUSH2 0x2F44 DUP4 PUSH2 0x1E9C JUMP JUMPDEST SWAP3 POP DUP3 PUSH2 0x2F54 JUMPI PUSH2 0x2F53 PUSH2 0x2EFF JUMP JUMPDEST JUMPDEST DUP3 DUP3 DIV SWAP1 POP SWAP3 SWAP2 POP POP JUMP JUMPDEST PUSH1 0x0 PUSH2 0x2F6A DUP3 PUSH2 0x1E9C JUMP JUMPDEST SWAP2 POP PUSH2 0x2F75 DUP4 PUSH2 0x1E9C JUMP JUMPDEST SWAP3 POP DUP3 DUP3 SUB SWAP1 POP DUP2 DUP2 GT ISZERO PUSH2 0x2F8D JUMPI PUSH2 0x2F8C PUSH2 0x2D91 JUMP JUMPDEST JUMPDEST SWAP3 SWAP2 POP POP JUMP JUMPDEST PUSH1 0x0 DUP2 SLOAD SWAP1 POP SWAP2 SWAP1 POP JUMP JUMPDEST PUSH1 0x0 DUP3 DUP3 MSTORE PUSH1 0x20 DUP3 ADD SWAP1 POP SWAP3 SWAP2 POP POP JUMP JUMPDEST PUSH1 0x0 DUP2 SWAP1 POP DUP2 PUSH1 0x0 MSTORE PUSH1 0x20 PUSH1 0x0 KECCAK256 SWAP1 POP SWAP2 SWAP1 POP JUMP JUMPDEST PUSH1 0x0 PUSH2 0x2FD0 DUP4 DUP4 PUSH2 0x2877 JUMP JUMPDEST PUSH1 0x20 DUP4 ADD SWAP1 POP SWAP3 SWAP2 POP POP JUMP JUMPDEST PUSH1 0x0 DUP2 PUSH1 0x0 SHR SWAP1 POP SWAP2 SWAP1 POP JUMP JUMPDEST PUSH1 0x0 PUSH20 0xFFFFFFFFFFFFFFFFFFFFFFFFFFFFFFFFFFFFFFFF DUP3 AND SWAP1 POP SWAP2 SWAP1 POP JUMP JUMPDEST PUSH1 0x0 PUSH2 0x301C PUSH2 0x3017 DUP4 PUSH2 0x2FDC JUMP JUMPDEST PUSH2 0x2FE9 JUMP JUMPDEST SWAP1 POP SWAP2 SWAP1 POP JUMP JUMPDEST PUSH1 0x0 PUSH2 0x302F DUP3 SLOAD PUSH2 0x3009 JUMP JUMPDEST SWAP1 POP SWAP2 SWAP1 POP JUMP JUMPDEST PUSH1 0x0 PUSH1 0x1 DUP3 ADD SWAP1 POP SWAP2 SWAP1 POP JUMP JUMPDEST PUSH1 0x0 PUSH2 0x304E DUP3 PUSH2 0x2F93 JUMP JUMPDEST PUSH2 0x3058 DUP2 DUP6 PUSH2 0x2F9E JUMP JUMPDEST SWAP4 POP PUSH2 0x3063 DUP4 PUSH2 0x2FAF JUMP JUMPDEST DUP1 PUSH1 0x0 JUMPDEST DUP4 DUP2 LT ISZERO PUSH2 0x309B JUMPI PUSH2 0x3078 DUP3 PUSH2 0x3023 JUMP JUMPDEST PUSH2 0x3082 DUP9 DUP3 PUSH2 0x2FC4 JUMP JUMPDEST SWAP8 POP PUSH2 0x308D DUP4 PUSH2 0x3036 JUMP JUMPDEST SWAP3 POP POP PUSH1 0x1 DUP2 ADD SWAP1 POP PUSH2 0x3067 JUMP JUMPDEST POP DUP6 SWAP4 POP POP POP POP SWAP3 SWAP2 POP POP JUMP JUMPDEST PUSH1 0x0 PUSH1 0x60 DUP3 ADD SWAP1 POP PUSH2 0x30BD PUSH1 0x0 DUP4 ADD DUP7 PUSH2 0x1F12 JUMP JUMPDEST PUSH2 0x30CA PUSH1 0x20 DUP4 ADD DUP6 PUSH2 0x2092 JUMP JUMPDEST DUP2 DUP2 SUB PUSH1 0x40 DUP4 ADD MSTORE PUSH2 0x30DC DUP2 DUP5 PUSH2 0x3043 JUMP JUMPDEST SWAP1 POP SWAP5 SWAP4 POP POP POP POP JUMP JUMPDEST PUSH1 0x0 DUP2 SWAP1 POP SWAP2 SWAP1 POP JUMP JUMPDEST PUSH2 0x3101 PUSH2 0x30FC DUP3 PUSH2 0x1E9C JUMP JUMPDEST PUSH2 0x30E6 JUMP JUMPDEST DUP3 MSTORE POP POP JUMP JUMPDEST PUSH1 0x0 DUP2 PUSH1 0x60 SHL SWAP1 POP SWAP2 SWAP1 POP JUMP JUMPDEST PUSH1 0x0 PUSH2 0x311F DUP3 PUSH2 0x3107 JUMP JUMPDEST SWAP1 POP SWAP2 SWAP1 POP JUMP JUMPDEST PUSH1 0x0 PUSH2 0x3131 DUP3 PUSH2 0x3114 JUMP JUMPDEST SWAP1 POP SWAP2 SWAP1 POP JUMP JUMPDEST PUSH2 0x3149 PUSH2 0x3144 DUP3 PUSH2 0x1E5E JUMP JUMPDEST PUSH2 0x3126 JUMP JUMPDEST DUP3 MSTORE POP POP JUMP JUMPDEST PUSH1 0x0 PUSH2 0x315B DUP3 DUP7 PUSH2 0x30F0 JUMP JUMPDEST PUSH1 0x20 DUP3 ADD SWAP2 POP PUSH2 0x316B DUP3 DUP6 PUSH2 0x30F0 JUMP JUMPDEST PUSH1 0x20 DUP3 ADD SWAP2 POP PUSH2 0x317B DUP3 DUP5 PUSH2 0x3138 JUMP JUMPDEST PUSH1 0x14 DUP3 ADD SWAP2 POP DUP2 SWAP1 POP SWAP5 SWAP4 POP POP POP POP JUMP JUMPDEST PUSH1 0x0 PUSH2 0x3197 DUP3 PUSH2 0x1E9C JUMP JUMPDEST SWAP2 POP PUSH2 0x31A2 DUP4 PUSH2 0x1E9C JUMP JUMPDEST SWAP3 POP DUP3 PUSH2 0x31B2 JUMPI PUSH2 0x31B1 PUSH2 0x2EFF JUMP JUMPDEST JUMPDEST DUP3 DUP3 MOD SWAP1 POP SWAP3 SWAP2 POP POP JUMP JUMPDEST PUSH1 0x0 PUSH1 0x40 DUP3 ADD SWAP1 POP PUSH2 0x31D2 PUSH1 0x0 DUP4 ADD DUP6 PUSH2 0x1F12 JUMP JUMPDEST PUSH2 0x31DF PUSH1 0x20 DUP4 ADD DUP5 PUSH2 0x1E14 JUMP JUMPDEST SWAP4 SWAP3 POP POP POP JUMP INVALID LOG2 PUSH5 0x6970667358 0x22 SLT KECCAK256 PC PUSH31 0x1FB9D63486363DD9939E631E62B32DDA37DF38FD3D2A821357D91BD226AD64 PUSH20 0x6F6C634300081B00330000000000000000000000 "
        },
        "methodIdentifiers": {
          "ADMIN_ROLE()": "75b238fc",
          "DEFAULT_ADMIN_ROLE()": "a217fddf",
          "EVALUATEE_ROLE()": "1163efb9",
          "EVALUATOR_ROLE()": "30d0ea31",
          "OWNER_ROLE()": "e58378bb",
          "addUserPoints(address,uint256)": "697ad3c0",
          "completeProject(address,uint256,uint256)": "a590794f",
          "createUser(string)": "507ffba5",
          "evaluatorOf(address,uint256)": "23ed747e",
          "getRoleAdmin(bytes32)": "248a9ca3",
          "grantRole(bytes32,address)": "2f2ff15d",
          "hasRole(bytes32,address)": "91d14854",
          "matchmaking(uint256)": "a89a57df",
          "renounceRole(bytes32,address)": "36568abe",
          "revokeRole(bytes32,address)": "d547741f",
          "setAdmin(address)": "704b6c02",
          "setSPInstance(address)": "8e9d660f",
          "setSchemaID(uint64)": "05ca8ee3",
          "spInstance()": "a8c5dc33",
          "submitEvaluation((uint256,uint256,address,string))": "57598268",
          "supportsInterface(bytes4)": "01ffc9a7",
          "transferOwnership(address)": "f2fde38b",
          "userProfiles(address)": "332d56d7"
        }
      }
    }
  }
}